{
  "contractName": "BattleRandom",
  "abi": [
    {
      "constant": true,
      "inputs": [],
      "name": "playersTurn",
      "outputs": [
        {
          "name": "",
          "type": "address"
        }
      ],
      "payable": false,
      "stateMutability": "view",
      "type": "function",
      "signature": "0x06880689"
    },
    {
      "constant": true,
      "inputs": [
        {
          "name": "player",
          "type": "address"
        }
      ],
      "name": "getPlayersCurrentCardNumber",
      "outputs": [
        {
          "name": "",
          "type": "uint8"
        }
      ],
      "payable": false,
      "stateMutability": "view",
      "type": "function",
      "signature": "0x2af1e2f8"
    },
    {
      "constant": false,
      "inputs": [
        {
          "name": "desiredCards",
          "type": "uint256[5]"
        }
      ],
      "name": "pickPayerCards",
      "outputs": [],
      "payable": false,
      "stateMutability": "nonpayable",
      "type": "function",
      "signature": "0x48373963"
    },
    {
      "constant": false,
      "inputs": [
        {
          "components": [
            {
              "name": "cardId",
              "type": "uint256"
            },
            {
              "name": "health",
              "type": "uint16"
            },
            {
              "name": "defence",
              "type": "uint16"
            },
            {
              "name": "mana",
              "type": "uint16"
            },
            {
              "name": "attack",
              "type": "uint16"
            },
            {
              "name": "specialAttack",
              "type": "uint16"
            }
          ],
          "name": "playerCards",
          "type": "tuple[]"
        }
      ],
      "name": "calcMaxSpeed",
      "outputs": [
        {
          "name": "",
          "type": "uint16"
        }
      ],
      "payable": false,
      "stateMutability": "nonpayable",
      "type": "function",
      "signature": "0x4ed61446"
    },
    {
      "constant": true,
      "inputs": [],
      "name": "player2",
      "outputs": [
        {
          "name": "",
          "type": "address"
        }
      ],
      "payable": false,
      "stateMutability": "view",
      "type": "function",
      "signature": "0x59a5f12d"
    },
    {
      "constant": true,
      "inputs": [],
      "name": "winningPlayer",
      "outputs": [
        {
          "name": "",
          "type": "address"
        }
      ],
      "payable": false,
      "stateMutability": "view",
      "type": "function",
      "signature": "0x5ad39846"
    },
    {
      "constant": true,
      "inputs": [
        {
          "name": "player",
          "type": "address"
        }
      ],
      "name": "getPlayerDeck",
      "outputs": [
        {
          "components": [
            {
              "components": [
                {
                  "name": "cardId",
                  "type": "uint256"
                },
                {
                  "name": "health",
                  "type": "uint16"
                },
                {
                  "name": "defence",
                  "type": "uint16"
                },
                {
                  "name": "mana",
                  "type": "uint16"
                },
                {
                  "name": "attack",
                  "type": "uint16"
                },
                {
                  "name": "specialAttack",
                  "type": "uint16"
                }
              ],
              "name": "playerCards",
              "type": "tuple[]"
            },
            {
              "name": "currentCard",
              "type": "uint8"
            }
          ],
          "name": "",
          "type": "tuple"
        }
      ],
      "payable": false,
      "stateMutability": "view",
      "type": "function",
      "signature": "0xc0d35449"
    },
    {
      "constant": true,
      "inputs": [],
      "name": "player1",
      "outputs": [
        {
          "name": "",
          "type": "address"
        }
      ],
      "payable": false,
      "stateMutability": "view",
      "type": "function",
      "signature": "0xd30895e4"
    },
    {
      "constant": true,
      "inputs": [],
      "name": "cardsPicked",
      "outputs": [
        {
          "name": "",
          "type": "bool"
        }
      ],
      "payable": false,
      "stateMutability": "view",
      "type": "function",
      "signature": "0xd7eb798c"
    },
    {
      "constant": true,
      "inputs": [
        {
          "name": "",
          "type": "address"
        }
      ],
      "name": "playerDecks",
      "outputs": [
        {
          "name": "currentCard",
          "type": "uint8"
        }
      ],
      "payable": false,
      "stateMutability": "view",
      "type": "function",
      "signature": "0xe4b6c992"
    },
    {
      "constant": true,
      "inputs": [
        {
          "name": "player",
          "type": "address"
        }
      ],
      "name": "getPlayerCurrentCard",
      "outputs": [
        {
          "components": [
            {
              "name": "cardId",
              "type": "uint256"
            },
            {
              "name": "health",
              "type": "uint16"
            },
            {
              "name": "defence",
              "type": "uint16"
            },
            {
              "name": "mana",
              "type": "uint16"
            },
            {
              "name": "attack",
              "type": "uint16"
            },
            {
              "name": "specialAttack",
              "type": "uint16"
            }
          ],
          "name": "",
          "type": "tuple"
        }
      ],
      "payable": false,
      "stateMutability": "view",
      "type": "function",
      "signature": "0xfe145fbd"
    },
    {
      "inputs": [
        {
          "name": "_player1",
          "type": "address"
        },
        {
          "name": "_player2",
          "type": "address"
        },
        {
          "name": "cardsAddress",
          "type": "address"
        }
      ],
      "payable": false,
      "stateMutability": "nonpayable",
      "type": "constructor",
      "signature": "constructor"
    },
    {
      "anonymous": false,
      "inputs": [
        {
          "indexed": false,
          "name": "move",
          "type": "uint8"
        },
        {
          "indexed": false,
          "name": "attachCardId",
          "type": "uint256"
        },
        {
          "components": [
            {
              "name": "cardId",
              "type": "uint256"
            },
            {
              "name": "health",
              "type": "uint16"
            },
            {
              "name": "defence",
              "type": "uint16"
            },
            {
              "name": "mana",
              "type": "uint16"
            },
            {
              "name": "attack",
              "type": "uint16"
            },
            {
              "name": "specialAttack",
              "type": "uint16"
            }
          ],
          "indexed": false,
          "name": "playerDefenceCard",
          "type": "tuple"
        },
        {
          "indexed": false,
          "name": "nextPlayer",
          "type": "address"
        }
      ],
      "name": "Turn",
      "type": "event",
      "signature": "0x5f4bfc4bb3efc8381128908c65dba16d774750a4508f87b52ed63512630609f9"
    },
    {
      "anonymous": false,
      "inputs": [
        {
          "indexed": false,
          "name": "winningPlayer",
          "type": "address"
        }
      ],
      "name": "EndGame",
      "type": "event",
      "signature": "0xc50f4648fa14be3ee68f160a224cc5d77eeeac58ea500c6fb63fac6788afb0be"
    },
    {
      "anonymous": false,
      "inputs": [
        {
          "indexed": false,
          "name": "desiredCards",
          "type": "uint256[5]"
        },
        {
          "indexed": false,
          "name": "pickedCards",
          "type": "uint256[3]"
        }
      ],
      "name": "PickPayerCards",
      "type": "event",
      "signature": "0x48ca02657a8acb3a062f53bf24ca611bb25d8108f29f5e3c5e468080a44dca5d"
    },
    {
      "constant": false,
      "inputs": [
        {
          "name": "move",
          "type": "uint8"
        }
      ],
      "name": "turn",
      "outputs": [],
      "payable": false,
      "stateMutability": "nonpayable",
      "type": "function",
      "signature": "0x2e535940"
    },
    {
      "constant": false,
      "inputs": [
        {
          "name": "_winningPlayer",
          "type": "address"
        }
      ],
      "name": "endGame",
      "outputs": [],
      "payable": false,
      "stateMutability": "nonpayable",
      "type": "function",
      "signature": "0x2a035b6c"
    }
  ],
  "bytecode": "0x60806040523480156200001157600080fd5b506040516060806200385d83398101806040526200003391908101906200011a565b82828282600160006101000a81548173ffffffffffffffffffffffffffffffffffffffff021916908373ffffffffffffffffffffffffffffffffffffffff16021790555081600260006101000a81548173ffffffffffffffffffffffffffffffffffffffff021916908373ffffffffffffffffffffffffffffffffffffffff160217905550806000806101000a81548173ffffffffffffffffffffffffffffffffffffffff021916908373ffffffffffffffffffffffffffffffffffffffff160217905550505050505050620001a4565b600062000112825162000190565b905092915050565b6000806000606084860312156200013057600080fd5b6000620001408682870162000104565b9350506020620001538682870162000104565b9250506040620001668682870162000104565b9150509250925092565b600073ffffffffffffffffffffffffffffffffffffffff82169050919050565b60006200019d8262000170565b9050919050565b6136a980620001b46000396000f3fe608060405234801561001057600080fd5b50600436106100ec576000357c01000000000000000000000000000000000000000000000000000000009004806359a5f12d116100a9578063d30895e411610083578063d30895e41461022f578063d7eb798c1461024d578063e4b6c9921461026b578063fe145fbd1461029b576100ec565b806359a5f12d146101c35780635ad39846146101e1578063c0d35449146101ff576100ec565b806306880689146100f15780632a035b6c1461010f5780632af1e2f81461012b5780632e5359401461015b57806348373963146101775780634ed6144614610193575b600080fd5b6100f96102cb565b60405161010691906131f8565b60405180910390f35b61012960048036036101249190810190612b98565b6102f1565b005b61014560048036036101409190810190612b98565b6103d0565b60405161015291906133f2565b60405180910390f35b61017560048036036101709190810190612c2b565b610429565b005b610191600480360361018c9190810190612c02565b611135565b005b6101ad60048036036101a89190810190612bc1565b611720565b6040516101ba91906133bc565b60405180910390f35b6101cb611852565b6040516101d891906131f8565b60405180910390f35b6101e9611878565b6040516101f691906131f8565b60405180910390f35b61021960048036036102149190810190612b98565b61189e565b604051610226919061339a565b60405180910390f35b610237611a1e565b60405161024491906131f8565b60405180910390f35b610255611a44565b604051610262919061323d565b60405180910390f35b61028560048036036102809190810190612b98565b611a57565b60405161029291906133f2565b60405180910390f35b6102b560048036036102b09190810190612b98565b611a82565b6040516102c2919061337f565b60405180910390f35b600460019054906101000a900473ffffffffffffffffffffffffffffffffffffffff1681565b80600560006101000a81548173ffffffffffffffffffffffffffffffffffffffff021916908373ffffffffffffffffffffffffffffffffffffffff1602179055506000600460016101000a81548173ffffffffffffffffffffffffffffffffffffffff021916908373ffffffffffffffffffffffffffffffffffffffff1602179055507fc50f4648fa14be3ee68f160a224cc5d77eeeac58ea500c6fb63fac6788afb0be600560009054906101000a900473ffffffffffffffffffffffffffffffffffffffff166040516103c591906131f8565b60405180910390a150565b6000600360008373ffffffffffffffffffffffffffffffffffffffff1673ffffffffffffffffffffffffffffffffffffffff16815260200190815260200160002060010160009054906101000a900460ff169050919050565b3373ffffffffffffffffffffffffffffffffffffffff16600460019054906101000a900473ffffffffffffffffffffffffffffffffffffffff1673ffffffffffffffffffffffffffffffffffffffff161415156104bb576040517f08c379a00000000000000000000000000000000000000000000000000000000081526004016104b2906132ff565b60405180910390fd5b600060036000600160009054906101000a900473ffffffffffffffffffffffffffffffffffffffff1673ffffffffffffffffffffffffffffffffffffffff1673ffffffffffffffffffffffffffffffffffffffff16815260200190815260200160002060000160036000600160009054906101000a900473ffffffffffffffffffffffffffffffffffffffff1673ffffffffffffffffffffffffffffffffffffffff1673ffffffffffffffffffffffffffffffffffffffff16815260200190815260200160002060010160009054906101000a900460ff1660ff168154811015156105a257fe5b90600052602060002090600202019050600060036000600260009054906101000a900473ffffffffffffffffffffffffffffffffffffffff1673ffffffffffffffffffffffffffffffffffffffff1673ffffffffffffffffffffffffffffffffffffffff16815260200190815260200160002060000160036000600260009054906101000a900473ffffffffffffffffffffffffffffffffffffffff1673ffffffffffffffffffffffffffffffffffffffff1673ffffffffffffffffffffffffffffffffffffffff16815260200190815260200160002060010160009054906101000a900460ff1660ff1681548110151561069957fe5b90600052602060002090600202019050600060036000600260009054906101000a900473ffffffffffffffffffffffffffffffffffffffff1673ffffffffffffffffffffffffffffffffffffffff1673ffffffffffffffffffffffffffffffffffffffff16815260200190815260200160002090506000600260009054906101000a900473ffffffffffffffffffffffffffffffffffffffff169050600260009054906101000a900473ffffffffffffffffffffffffffffffffffffffff1673ffffffffffffffffffffffffffffffffffffffff16600460019054906101000a900473ffffffffffffffffffffffffffffffffffffffff1673ffffffffffffffffffffffffffffffffffffffff161415610a245760036000600260009054906101000a900473ffffffffffffffffffffffffffffffffffffffff1673ffffffffffffffffffffffffffffffffffffffff1673ffffffffffffffffffffffffffffffffffffffff16815260200190815260200160002060000160036000600260009054906101000a900473ffffffffffffffffffffffffffffffffffffffff1673ffffffffffffffffffffffffffffffffffffffff1673ffffffffffffffffffffffffffffffffffffffff16815260200190815260200160002060010160009054906101000a900460ff1660ff1681548110151561089257fe5b9060005260206000209060020201935060036000600160009054906101000a900473ffffffffffffffffffffffffffffffffffffffff1673ffffffffffffffffffffffffffffffffffffffff1673ffffffffffffffffffffffffffffffffffffffff16815260200190815260200160002060000160036000600160009054906101000a900473ffffffffffffffffffffffffffffffffffffffff1673ffffffffffffffffffffffffffffffffffffffff1673ffffffffffffffffffffffffffffffffffffffff16815260200190815260200160002060010160009054906101000a900460ff1660ff1681548110151561098757fe5b9060005260206000209060020201925060036000600160009054906101000a900473ffffffffffffffffffffffffffffffffffffffff1673ffffffffffffffffffffffffffffffffffffffff1673ffffffffffffffffffffffffffffffffffffffff1681526020019081526020016000209150600160009054906101000a900473ffffffffffffffffffffffffffffffffffffffff169050610ad9565b600160009054906101000a900473ffffffffffffffffffffffffffffffffffffffff1673ffffffffffffffffffffffffffffffffffffffff16600460019054906101000a900473ffffffffffffffffffffffffffffffffffffffff1673ffffffffffffffffffffffffffffffffffffffff16141515610ad8576040517f08c379a0000000000000000000000000000000000000000000000000000000008152600401610acf906132df565b60405180910390fd5b5b6000806002811115610ae757fe5b866002811115610af357fe5b1415610b4f5760018560010160049054906101000a900461ffff16018560010160046101000a81548161ffff021916908361ffff160217905550610b4a8560010160069054906101000a900461ffff168585611bfc565b6110ab565b60016002811115610b5c57fe5b866002811115610b6857fe5b1415610b9057610b8b8560010160089054906101000a900461ffff168585611bfc565b6110aa565b600280811115610b9c57fe5b866002811115610ba857fe5b141561106e57610bb6612576565b6000809054906101000a900473ffffffffffffffffffffffffffffffffffffffff1673ffffffffffffffffffffffffffffffffffffffff16639188d31287600001546040518263ffffffff167c0100000000000000000000000000000000000000000000000000000000028152600401610c3091906133d7565b600060405180830381600087803b158015610c4a57600080fd5b505af1158015610c5e573d6000803e3d6000fd5b505050506040513d6000823e3d601f19601f82011682018060405250610c879190810190612c54565b905080602001516060015161ffff1660018760010160049054906101000a900461ffff160161ffff1610151515610cf3576040517f08c379a0000000000000000000000000000000000000000000000000000000008152600401610cea9061335f565b60405180910390fd5b6000809050610d1f60018860010160049054906101000a900461ffff1601836020015160600151611e54565b8860010160048294508391906101000a81548161ffff021916908361ffff1602179055505050610d4d6125da565b8260200151602001519050610d606125da565b8360200151604001519050610d8b8860010160009054906101000a900461ffff168360000151611e54565b8960010160008296508391906101000a81548161ffff021916908361ffff1602179055505050610dd18860010160029054906101000a900461ffff168360200151611e54565b8960010160028296508391906101000a81548161ffff021916908361ffff1602179055505050610e178860010160049054906101000a900461ffff168360400151611e54565b8960010160048296508391906101000a81548161ffff021916908361ffff1602179055505050610e5d8860010160069054906101000a900461ffff168360600151611e54565b8960010160068296508391906101000a81548161ffff021916908361ffff1602179055505050610ea38860010160089054906101000a900461ffff168360800151611e54565b8960010160088296508391906101000a81548161ffff021916908361ffff160217905550505060008860010160009054906101000a900461ffff1661ffff161415610f525760018760000180549050038760010160009054906101000a900460ff1660ff161415610f1c57610f17336102f1565b610f51565b86600101600081819054906101000a900460ff168092919060010191906101000a81548160ff021916908360ff160217905550505b5b80600001518960010160009054906101000a900461ffff16018960010160006101000a81548161ffff021916908361ffff16021790555080602001518960010160029054906101000a900461ffff16018960010160026101000a81548161ffff021916908361ffff16021790555080604001518960010160049054906101000a900461ffff16018960010160046101000a81548161ffff021916908361ffff16021790555080606001518960010160069054906101000a900461ffff16018960010160066101000a81548161ffff021916908361ffff16021790555080608001518960010160089054906101000a900461ffff16018960010160086101000a81548161ffff021916908361ffff160217905550505050506110a9565b6040517f08c379a00000000000000000000000000000000000000000000000000000000081526004016110a0906132bf565b60405180910390fd5b5b5b81600460016101000a81548173ffffffffffffffffffffffffffffffffffffffff021916908373ffffffffffffffffffffffffffffffffffffffff1602179055507f5f4bfc4bb3efc8381128908c65dba16d774750a4508f87b52ed63512630609f986866000015486856040516111259493929190613258565b60405180910390a1505050505050565b6000600360003373ffffffffffffffffffffffffffffffffffffffff1673ffffffffffffffffffffffffffffffffffffffff1681526020019081526020016000206000019050600081805490501415156111c4576040517f08c379a00000000000000000000000000000000000000000000000000000000081526004016111bb9061331f565b60405180910390fd5b3373ffffffffffffffffffffffffffffffffffffffff16600160009054906101000a900473ffffffffffffffffffffffffffffffffffffffff1673ffffffffffffffffffffffffffffffffffffffff1614156112ab57600060036000600260009054906101000a900473ffffffffffffffffffffffffffffffffffffffff1673ffffffffffffffffffffffffffffffffffffffff1673ffffffffffffffffffffffffffffffffffffffff1681526020019081526020016000206000018054905011156112a6576001600460006101000a81548160ff0219169083151502179055505b6113ce565b3373ffffffffffffffffffffffffffffffffffffffff16600260009054906101000a900473ffffffffffffffffffffffffffffffffffffffff1673ffffffffffffffffffffffffffffffffffffffff16141561139257600060036000600160009054906101000a900473ffffffffffffffffffffffffffffffffffffffff1673ffffffffffffffffffffffffffffffffffffffff1673ffffffffffffffffffffffffffffffffffffffff16815260200190815260200160002060000180549050111561138d576001600460006101000a81548160ff0219169083151502179055505b6113cd565b6040517f08c379a00000000000000000000000000000000000000000000000000000000081526004016113c49061333f565b60405180910390fd5b5b6113d661261e565b606060405190810160405280600081526020016000815260200160008152509050600061140560056001611e8c565b905061142383858360058110151561141957fe5b6020020151611f48565b82600081548110151561143257fe5b90600052602060002090600202016000015482600060038110151561145357fe5b602002018181525050600061146a600a6002611e8c565b90508082148061147a5750600481115b1561155a5761154960016000809054906101000a900473ffffffffffffffffffffffffffffffffffffffff1673ffffffffffffffffffffffffffffffffffffffff16631b6cde106040518163ffffffff167c0100000000000000000000000000000000000000000000000000000000028152600401602060405180830381600087803b15801561150957600080fd5b505af115801561151d573d6000803e3d6000fd5b505050506040513d601f19601f820116820180604052506115419190810190612c95565b036002611e8c565b90506115558482611f48565b611577565b61157684868360058110151561156c57fe5b6020020151611f48565b5b83600181548110151561158657fe5b9060005260206000209060020201600001548360016003811015156115a757fe5b602002018181525050600061167c60016000809054906101000a900473ffffffffffffffffffffffffffffffffffffffff1673ffffffffffffffffffffffffffffffffffffffff16631b6cde106040518163ffffffff167c0100000000000000000000000000000000000000000000000000000000028152600401602060405180830381600087803b15801561163c57600080fd5b505af1158015611650573d6000803e3d6000fd5b505050506040513d601f19601f820116820180604052506116749190810190612c95565b036003611e8c565b90506116888582611f48565b84600281548110151561169757fe5b9060005260206000209060020201600001548460026003811015156116b857fe5b6020020181815250507f48ca02657a8acb3a062f53bf24ca611bb25d8108f29f5e3c5e468080a44dca5d86856040516116f2929190613213565b60405180910390a1600460009054906101000a900460ff161561171857611717612162565b5b505050505050565b6000806000905060008090505b83518110156118485760008060009054906101000a900473ffffffffffffffffffffffffffffffffffffffff1673ffffffffffffffffffffffffffffffffffffffff16639188d312868481518110151561178357fe5b90602001906020020151600001516040518263ffffffff167c01000000000000000000000000000000000000000000000000000000000281526004016117c991906133d7565b600060405180830381600087803b1580156117e357600080fd5b505af11580156117f7573d6000803e3d6000fd5b505050506040513d6000823e3d601f19601f820116820180604052506118209190810190612c54565b60a0015190508261ffff168161ffff16111561183a578092505b50808060010191505061172d565b5080915050919050565b600260009054906101000a900473ffffffffffffffffffffffffffffffffffffffff1681565b600560009054906101000a900473ffffffffffffffffffffffffffffffffffffffff1681565b6118a6612641565b600360008373ffffffffffffffffffffffffffffffffffffffff1673ffffffffffffffffffffffffffffffffffffffff16815260200190815260200160002060408051908101604052908160008201805480602002602001604051908101604052809291908181526020016000905b828210156119f2578382906000526020600020906002020160c06040519081016040529081600082015481526020016001820160009054906101000a900461ffff1661ffff1661ffff1681526020016001820160029054906101000a900461ffff1661ffff1661ffff1681526020016001820160049054906101000a900461ffff1661ffff1661ffff1681526020016001820160069054906101000a900461ffff1661ffff1661ffff1681526020016001820160089054906101000a900461ffff1661ffff1661ffff168152505081526020019060010190611915565b5050505081526020016001820160009054906101000a900460ff1660ff1660ff16815250509050919050565b600160009054906101000a900473ffffffffffffffffffffffffffffffffffffffff1681565b600460009054906101000a900460ff1681565b60036020528060005260406000206000915090508060010160009054906101000a900460ff16905081565b611a8a61265e565b6000600360008473ffffffffffffffffffffffffffffffffffffffff1673ffffffffffffffffffffffffffffffffffffffff16815260200190815260200160002060010160009054906101000a900460ff169050600360008473ffffffffffffffffffffffffffffffffffffffff1673ffffffffffffffffffffffffffffffffffffffff1681526020019081526020016000206000018160ff16815481101515611b3057fe5b906000526020600020906002020160c06040519081016040529081600082015481526020016001820160009054906101000a900461ffff1661ffff1661ffff1681526020016001820160029054906101000a900461ffff1661ffff1661ffff1681526020016001820160049054906101000a900461ffff1661ffff1661ffff1681526020016001820160069054906101000a900461ffff1661ffff1661ffff1681526020016001820160089054906101000a900461ffff1661ffff1661ffff1681525050915050919050565b6000808360010160029054906101000a900461ffff1661ffff161115611d5f57611c388360010160029054906101000a900461ffff1685611e54565b8460010160028294508391906101000a81548161ffff021916908361ffff160217905550505060008161ffff161115611d5a57611c878360010160009054906101000a900461ffff1682611e54565b8460010160008294508391906101000a81548161ffff021916908361ffff160217905550505060008161ffff161115611d595781600101600081819054906101000a900460ff168092919060010191906101000a81548160ff021916908360ff1602179055505081600001805490508260010160009054906101000a900460ff1660ff161115611d1b57611d1a336102f1565b5b611d5881836000018460010160009054906101000a900460ff1660ff16815481101515611d4457fe5b906000526020600020906002020184611bfc565b5b5b611e4e565b611d7b8360010160009054906101000a900461ffff1685611e54565b8460010160008294508391906101000a81548161ffff021916908361ffff160217905550505060008161ffff161115611e4d5781600101600081819054906101000a900460ff168092919060010191906101000a81548160ff021916908360ff1602179055505081600001805490508260010160009054906101000a900460ff1660ff161115611e0f57611e0e336102f1565b5b611e4c81836000018460010160009054906101000a900460ff1660ff16815481101515611e3857fe5b906000526020600020906002020184611bfc565b5b5b50505050565b6000808361ffff168361ffff161115611e7857600084840381915091509150611e85565b8284036000809050915091505b9250929050565b60008082600143034033604051602001808460ff1660ff167f01000000000000000000000000000000000000000000000000000000000000000281526001018381526020018273ffffffffffffffffffffffffffffffffffffffff1673ffffffffffffffffffffffffffffffffffffffff166c010000000000000000000000000281526014019350505050604051602081830303815290604052805190602001206001900490508381811515611f3e57fe5b0691505092915050565b611f50612576565b6000809054906101000a900473ffffffffffffffffffffffffffffffffffffffff1673ffffffffffffffffffffffffffffffffffffffff16639188d312836040518263ffffffff167c0100000000000000000000000000000000000000000000000000000000028152600401611fc691906133d7565b600060405180830381600087803b158015611fe057600080fd5b505af1158015611ff4573d6000803e3d6000fd5b505050506040513d6000823e3d601f19601f8201168201806040525061201d9190810190612c54565b90508260c060405190810160405280848152602001836040015161ffff168152602001836060015161ffff168152602001836080015161ffff1681526020018360c0015161ffff1681526020018360e0015161ffff16815250908060018154018082558091505090600182039060005260206000209060020201600090919290919091506000820151816000015560208201518160010160006101000a81548161ffff021916908361ffff16021790555060408201518160010160026101000a81548161ffff021916908361ffff16021790555060608201518160010160046101000a81548161ffff021916908361ffff16021790555060808201518160010160066101000a81548161ffff021916908361ffff16021790555060a08201518160010160086101000a81548161ffff021916908361ffff160217905550505050505050565b600460009054906101000a900460ff1615156121b3576040517f08c379a00000000000000000000000000000000000000000000000000000000081526004016121aa9061329f565b60405180910390fd5b600061232260036000600160009054906101000a900473ffffffffffffffffffffffffffffffffffffffff1673ffffffffffffffffffffffffffffffffffffffff1673ffffffffffffffffffffffffffffffffffffffff168152602001908152602001600020600001805480602002602001604051908101604052809291908181526020016000905b82821015612319578382906000526020600020906002020160c06040519081016040529081600082015481526020016001820160009054906101000a900461ffff1661ffff1661ffff1681526020016001820160029054906101000a900461ffff1661ffff1661ffff1681526020016001820160049054906101000a900461ffff1661ffff1661ffff1681526020016001820160069054906101000a900461ffff1661ffff1661ffff1681526020016001820160089054906101000a900461ffff1661ffff1661ffff16815250508152602001906001019061223c565b50505050611720565b9050600061249360036000600260009054906101000a900473ffffffffffffffffffffffffffffffffffffffff1673ffffffffffffffffffffffffffffffffffffffff1673ffffffffffffffffffffffffffffffffffffffff168152602001908152602001600020600001805480602002602001604051908101604052809291908181526020016000905b8282101561248a578382906000526020600020906002020160c06040519081016040529081600082015481526020016001820160009054906101000a900461ffff1661ffff1661ffff1681526020016001820160029054906101000a900461ffff1661ffff1661ffff1681526020016001820160049054906101000a900461ffff1661ffff1661ffff1681526020016001820160069054906101000a900461ffff1661ffff1661ffff1681526020016001820160089054906101000a900461ffff1661ffff1661ffff1681525050815260200190600101906123ad565b50505050611720565b90508061ffff168261ffff1610151561250e57600160009054906101000a900473ffffffffffffffffffffffffffffffffffffffff16600460016101000a81548173ffffffffffffffffffffffffffffffffffffffff021916908373ffffffffffffffffffffffffffffffffffffffff160217905550612572565b600260009054906101000a900473ffffffffffffffffffffffffffffffffffffffff16600460016101000a81548173ffffffffffffffffffffffffffffffffffffffff021916908373ffffffffffffffffffffffffffffffffffffffff1602179055505b5050565b61026060405190810160405280606081526020016125926126a9565b8152602001600061ffff168152602001600061ffff168152602001600061ffff168152602001600061ffff168152602001600061ffff168152602001600061ffff1681525090565b60a060405190810160405280600061ffff168152602001600061ffff168152602001600061ffff168152602001600061ffff168152602001600061ffff1681525090565b606060405190810160405280600390602082028038833980820191505090505090565b604080519081016040528060608152602001600060ff1681525090565b60c06040519081016040528060008152602001600061ffff168152602001600061ffff168152602001600061ffff168152602001600061ffff168152602001600061ffff1681525090565b61018060405190810160405280606081526020016126c56126e3565b81526020016126d26126e3565b8152602001600061ffff1681525090565b60a060405190810160405280600061ffff168152602001600061ffff168152602001600061ffff168152602001600061ffff168152602001600061ffff1681525090565b60006127338235613592565b905092915050565b600082601f830112151561274e57600080fd5b813561276161275c8261343a565b61340d565b915081818352602084019350602081019050838560c084028201111561278657600080fd5b60005b838110156127b6578161279c8882612aac565b845260208401935060c08301925050600181019050612789565b5050505092915050565b600082601f83011215156127d357600080fd5b60056127e66127e182613462565b61340d565b915081838560208402820111156127fc57600080fd5b60005b8381101561282c57816128128882612b70565b8452602084019350602083019250506001810190506127ff565b5050505092915050565b600061284282356135a4565b905092915050565b600082601f830112151561285d57600080fd5b815161287061286b82613484565b61340d565b9150808252602083016020830185838301111561288c57600080fd5b6128978382846135e7565b50505092915050565b600061018082840312156128b357600080fd5b6128bd608061340d565b9050600082015167ffffffffffffffff8111156128d957600080fd5b6128e58482850161284a565b60008301525060206128f98482850161292e565b60208301525060c061290d8482850161292e565b60408301525061016061292284828501612b5c565b60608301525092915050565b600060a0828403121561294057600080fd5b61294a60a061340d565b9050600061295a84828501612b5c565b600083015250602061296e84828501612b5c565b602083015250604061298284828501612b5c565b604083015250606061299684828501612b5c565b60608301525060806129aa84828501612b5c565b60808301525092915050565b600061010082840312156129c957600080fd5b6129d461010061340d565b9050600082015167ffffffffffffffff8111156129f057600080fd5b6129fc8482850161284a565b600083015250602082015167ffffffffffffffff811115612a1c57600080fd5b612a28848285016128a0565b6020830152506040612a3c84828501612b5c565b6040830152506060612a5084828501612b5c565b6060830152506080612a6484828501612b5c565b60808301525060a0612a7884828501612b5c565b60a08301525060c0612a8c84828501612b5c565b60c08301525060e0612aa084828501612b5c565b60e08301525092915050565b600060c08284031215612abe57600080fd5b612ac860c061340d565b90506000612ad884828501612b70565b6000830152506020612aec84828501612b48565b6020830152506040612b0084828501612b48565b6040830152506060612b1484828501612b48565b6060830152506080612b2884828501612b48565b60808301525060a0612b3c84828501612b48565b60a08301525092915050565b6000612b5482356135bd565b905092915050565b6000612b6882516135bd565b905092915050565b6000612b7c82356135cb565b905092915050565b6000612b9082516135cb565b905092915050565b600060208284031215612baa57600080fd5b6000612bb884828501612727565b91505092915050565b600060208284031215612bd357600080fd5b600082013567ffffffffffffffff811115612bed57600080fd5b612bf98482850161273b565b91505092915050565b600060a08284031215612c1457600080fd5b6000612c22848285016127c0565b91505092915050565b600060208284031215612c3d57600080fd5b6000612c4b84828501612836565b91505092915050565b600060208284031215612c6657600080fd5b600082015167ffffffffffffffff811115612c8057600080fd5b612c8c848285016129b6565b91505092915050565b600060208284031215612ca757600080fd5b6000612cb584828501612b84565b91505092915050565b612cc781613519565b82525050565b6000612cd8826134d1565b808452602084019350612cea836134b0565b60005b82811015612d1c57612d00868351613070565b612d09826134f2565b915060c086019550600181019050612ced565b50849250505092915050565b612d31816134dc565b612d3a826134bd565b60005b82811015612d6c57612d508583516131da565b612d59826134ff565b9150602085019450600181019050612d3d565b5050505050565b612d7c816134e7565b612d85826134c7565b60005b82811015612db757612d9b8583516131da565b612da48261350c565b9150602085019450600181019050612d88565b5050505050565b612dc78161352b565b82525050565b612dd6816135d5565b82525050565b6000602c82527f426f746820706c6179657273206861766520746f2068617665207069636b656460208301527f20746865697220636172647300000000000000000000000000000000000000006040830152606082019050919050565b6000600c82527f496e76616c6964206d6f766500000000000000000000000000000000000000006020830152604082019050919050565b6000602982527f706c6179657273207475726e20646f6573206e6f7420657175616c206569746860208301527f657220706c6179657200000000000000000000000000000000000000000000006040830152606082019050919050565b6000600d82527f4e6f7420796f7572207475726e000000000000000000000000000000000000006020830152604082019050919050565b6000602582527f506c617965722068617320616c7265616479207069636b65642074686569722060208301527f63617264730000000000000000000000000000000000000000000000000000006040830152606082019050919050565b6000602882527f5472616e73616374696f6e2073656e646572206d75737420626520706c61796560208301527f722031206f7220320000000000000000000000000000000000000000000000006040830152606082019050919050565b6000600f82527f4e6f7420656e6f756768206d616e6100000000000000000000000000000000006020830152604082019050919050565b60c08201600082015161300b60008501826131da565b50602082015161301e60208501826131cb565b50604082015161303160408501826131cb565b50606082015161304460608501826131cb565b50608082015161305760808501826131cb565b5060a082015161306a60a08501826131cb565b50505050565b60c08201600082015161308660008501826131da565b50602082015161309960208501826131cb565b5060408201516130ac60408501826131cb565b5060608201516130bf60608501826131cb565b5060808201516130d260808501826131cb565b5060a08201516130e560a08501826131cb565b50505050565b60c0820160008083015490506131008161361a565b61310d60008601826131da565b506001830154905061311e8161361a565b61312b60208601826131cb565b5061313581613627565b61314260408601826131cb565b5061314c81613636565b61315960608601826131cb565b5061316381613647565b61317060808601826131cb565b5061317a8161365a565b61318760a08601826131cb565b5050505050565b600060408301600083015184820360008601526131ab8282612ccd565b91505060208301516131c060208601826131e9565b508091505092915050565b6131d48161354d565b82525050565b6131e38161357b565b82525050565b6131f281613585565b82525050565b600060208201905061320d6000830184612cbe565b92915050565b6000610100820190506132296000830185612d73565b61323660a0830184612d28565b9392505050565b60006020820190506132526000830184612dbe565b92915050565b60006101208201905061326e6000830187612dcd565b61327b60208301866131da565b61328860408301856130eb565b613296610100830184612cbe565b95945050505050565b600060208201905081810360008301526132b881612ddc565b9050919050565b600060208201905081810360008301526132d881612e39565b9050919050565b600060208201905081810360008301526132f881612e70565b9050919050565b6000602082019050818103600083015261331881612ecd565b9050919050565b6000602082019050818103600083015261333881612f04565b9050919050565b6000602082019050818103600083015261335881612f61565b9050919050565b6000602082019050818103600083015261337881612fbe565b9050919050565b600060c0820190506133946000830184612ff5565b92915050565b600060208201905081810360008301526133b4818461318e565b905092915050565b60006020820190506133d160008301846131cb565b92915050565b60006020820190506133ec60008301846131da565b92915050565b600060208201905061340760008301846131e9565b92915050565b6000604051905081810181811067ffffffffffffffff8211171561343057600080fd5b8060405250919050565b600067ffffffffffffffff82111561345157600080fd5b602082029050602081019050919050565b600067ffffffffffffffff82111561347957600080fd5b602082029050919050565b600067ffffffffffffffff82111561349b57600080fd5b601f19601f8301169050602081019050919050565b6000602082019050919050565b6000819050919050565b6000819050919050565b600081519050919050565b600060039050919050565b600060059050919050565b6000602082019050919050565b6000602082019050919050565b6000602082019050919050565b60006135248261355b565b9050919050565b60008115159050919050565b600060038210151561354557fe5b819050919050565b600061ffff82169050919050565b600073ffffffffffffffffffffffffffffffffffffffff82169050919050565b6000819050919050565b600060ff82169050919050565b600061359d8261355b565b9050919050565b60006003821015156135b557600080fd5b819050919050565b600061ffff82169050919050565b6000819050919050565b60006135e082613537565b9050919050565b60005b838110156136055780820151818401526020810190506135ea565b83811115613614576000848401525b50505050565b6000600182049050919050565b60006201000082049050919050565b600064010000000082049050919050565b6000660100000000000082049050919050565b6000680100000000000000008204905091905056fea265627a7a72305820f090d6b53d52c0282ed30c0ed9ba48b2fef6d5e418f6aa398bd52610956b39f96c6578706572696d656e74616cf50037",
  "source": "pragma solidity ^0.5.2;\npragma experimental ABIEncoderV2;\n\nimport {PlayerCardsRandom} from \"./PlayerCardsRandom.sol\";\nimport {Cards} from \"./Cards.sol\";\nimport {MathUtils} from \"./MathUtils.sol\";\n\ncontract BattleRandom is PlayerCardsRandom {\n\n    enum Move {\n        Attack,\n        SpecialAttack,\n        Ability\n    }\n\n    uint16 constant turnDefenceIncrease = 30;\n\n    address public winningPlayer;\n\n    event Turn(Move move, uint attachCardId, PlayerCard playerDefenceCard, address nextPlayer);\n    event EndGame(address winningPlayer);\n    \n    constructor(address _player1, address _player2, address cardsAddress) public\n        PlayerCardsRandom(_player1, _player2, cardsAddress)\n    {}\n\n    function turn(Move move) public {\n        require(playersTurn == msg.sender, \"Not your turn\");\n\n        // Assume playersTurn == player1 as Solidity does not allow uninitialized storage pointers\n        PlayerCard storage playerAttackCard = playerDecks[player1].playerCards[playerDecks[player1].currentCard];\n        PlayerCard storage playerDefenceCard = playerDecks[player2].playerCards[playerDecks[player2].currentCard];\n        PlayerDeck storage defenceDeck = playerDecks[player2];\n        address nextPlayer = player2;\n        // if (playersTurn == player1) {\n        //     playerAttackCard = player1Cards[currentCardPlayer1];\n        //     playerDefenceCard = player2Cards[currentCardPlayer2];\n        //     nextPlayer = player2;\n        // } else \n        if (playersTurn == player2) {\n            playerAttackCard = playerDecks[player2].playerCards[playerDecks[player2].currentCard];\n            playerDefenceCard = playerDecks[player1].playerCards[playerDecks[player1].currentCard];\n            defenceDeck = playerDecks[player1];\n            nextPlayer = player1;\n        } else if (playersTurn != player1) {\n            revert('players turn does not equal either player');\n        }\n\n        // move logic\n        uint16 remainingAttackAmount;\n        if (move == Move.Attack) {\n            playerAttackCard.mana = playerAttackCard.mana + 1;\n\n            // attack the defence and then health of the opponent\n            attack(playerAttackCard.attack, playerDefenceCard, defenceDeck);\n        } else if (move == Move.SpecialAttack) {\n\n            // attack the defence and then health of the opponent\n            attack(playerAttackCard.specialAttack, playerDefenceCard, defenceDeck);\n\n        } else if (move == Move.Ability) {\n\n            Card memory attackCard = cardsContract.getCard(playerAttackCard.cardId);\n\n            require(playerAttackCard.mana + 1 >= attackCard.ability.manaCost, 'Not enough mana');\n\n            uint16 remainder = 0;\n            (playerAttackCard.mana, remainder) = MathUtils.subToZero(playerAttackCard.mana + 1, attackCard.ability.manaCost);\n\n            Cards.CardProperties memory opponentAbility = attackCard.ability.opponent;\n            Cards.CardProperties memory playerAbility = attackCard.ability.player;\n\n            // reduce opponents current card\n            (playerDefenceCard.health, remainder) = MathUtils.subToZero(playerDefenceCard.health, opponentAbility.health);\n            (playerDefenceCard.defence, remainder) = MathUtils.subToZero(playerDefenceCard.defence, opponentAbility.defence);\n            (playerDefenceCard.mana, remainder) = MathUtils.subToZero(playerDefenceCard.mana, opponentAbility.mana);\n            (playerDefenceCard.attack, remainder) = MathUtils.subToZero(playerDefenceCard.attack, opponentAbility.attack);\n            (playerDefenceCard.specialAttack, remainder) = MathUtils.subToZero(playerDefenceCard.specialAttack, opponentAbility.specialAttack);\n\n            // if opponent health went to zero\n            if (playerDefenceCard.health == 0) {\n                // if last card in defence deck\n                if  (defenceDeck.currentCard == defenceDeck.playerCards.length - 1) {\n                    endGame(msg.sender);\n                } else {\n                    defenceDeck.currentCard++;\n                }\n            }\n\n            // boost your current card\n            playerAttackCard.health = playerAttackCard.health + playerAbility.health;\n            playerAttackCard.defence = playerAttackCard.defence + playerAbility.defence;\n            playerAttackCard.mana = playerAttackCard.mana + playerAbility.mana;\n            playerAttackCard.attack = playerAttackCard.attack + playerAbility.attack;\n            playerAttackCard.specialAttack = playerAttackCard.specialAttack + playerAbility.specialAttack;\n        }\n        else {\n            revert('Invalid move');\n        }\n        \n        playersTurn = nextPlayer;\n\n        emit Turn(move, playerAttackCard.cardId, playerDefenceCard, nextPlayer);\n    }\n\n    // Attacked the defence and then health of the opponent\n    function attack(uint16 attackAmount, PlayerCard storage playerDefenceCard, PlayerDeck storage defenceDeck) internal {\n        uint16 remainingAttackAmount;\n\n        if (playerDefenceCard.defence > 0) {\n            (playerDefenceCard.defence, remainingAttackAmount) = MathUtils.subToZero(playerDefenceCard.defence, attackAmount);\n\n            if (remainingAttackAmount > 0) {\n                (playerDefenceCard.health, remainingAttackAmount) = MathUtils.subToZero(playerDefenceCard.health, remainingAttackAmount);\n\n                if (remainingAttackAmount > 0) {\n                    defenceDeck.currentCard++;\n                    if (defenceDeck.currentCard > defenceDeck.playerCards.length) {\n                        endGame(msg.sender);\n                    }\n                    attack(remainingAttackAmount, defenceDeck.playerCards[defenceDeck.currentCard], defenceDeck);\n                }\n            }\n        } else {\n\n            (playerDefenceCard.health, remainingAttackAmount) = MathUtils.subToZero(playerDefenceCard.health, attackAmount);\n\n            if (remainingAttackAmount > 0) {\n                defenceDeck.currentCard++;\n                if (defenceDeck.currentCard > defenceDeck.playerCards.length) {\n                    endGame(msg.sender);\n                }\n                attack(remainingAttackAmount, defenceDeck.playerCards[defenceDeck.currentCard], defenceDeck);\n            }\n        }\n    }\n\n    function endGame(address _winningPlayer) public {\n        winningPlayer = _winningPlayer;\n        playersTurn = address(0);\n\n        emit EndGame(winningPlayer);\n    }\n}",
  "sourcePath": "/Users/nicholasaddison/Documents/workspaces/scratch/crypto-beasts/contracts/BattleRandom.sol",
  "compiler": {
    "name": "solc",
    "version": "0.5.2+commit.1df8f40c.Emscripten.clang"
  },
  "schemaVersion": "3.0.6",
  "updatedAt": "2019-04-20T12:15:51.391Z",
  "devdoc": {
    "methods": {}
  },
  "userdoc": {
    "methods": {}
  }
}