{
  "contractName": "Battle",
  "abi": [
    {
      "constant": true,
      "inputs": [],
      "name": "playersTurn",
      "outputs": [
        {
          "name": "",
          "type": "address"
        }
      ],
      "payable": false,
      "stateMutability": "view",
      "type": "function",
      "signature": "0x06880689"
    },
    {
      "constant": true,
      "inputs": [
        {
          "name": "player",
          "type": "address"
        }
      ],
      "name": "getPlayersCurrentCardNumber",
      "outputs": [
        {
          "name": "",
          "type": "uint8"
        }
      ],
      "payable": false,
      "stateMutability": "view",
      "type": "function",
      "signature": "0x2af1e2f8"
    },
    {
      "constant": false,
      "inputs": [
        {
          "components": [
            {
              "name": "name",
              "type": "string"
            },
            {
              "components": [
                {
                  "name": "name",
                  "type": "string"
                },
                {
                  "components": [
                    {
                      "name": "health",
                      "type": "uint16"
                    },
                    {
                      "name": "defence",
                      "type": "uint16"
                    },
                    {
                      "name": "mana",
                      "type": "uint16"
                    },
                    {
                      "name": "attack",
                      "type": "uint16"
                    },
                    {
                      "name": "specialAttack",
                      "type": "uint16"
                    }
                  ],
                  "name": "opponent",
                  "type": "tuple"
                },
                {
                  "components": [
                    {
                      "name": "health",
                      "type": "uint16"
                    },
                    {
                      "name": "defence",
                      "type": "uint16"
                    },
                    {
                      "name": "mana",
                      "type": "uint16"
                    },
                    {
                      "name": "attack",
                      "type": "uint16"
                    },
                    {
                      "name": "specialAttack",
                      "type": "uint16"
                    }
                  ],
                  "name": "player",
                  "type": "tuple"
                },
                {
                  "name": "manaCost",
                  "type": "uint16"
                }
              ],
              "name": "ability",
              "type": "tuple"
            },
            {
              "name": "initHealth",
              "type": "uint16"
            },
            {
              "name": "initDefence",
              "type": "uint16"
            },
            {
              "name": "initMana",
              "type": "uint16"
            },
            {
              "name": "speed",
              "type": "uint16"
            },
            {
              "name": "attack",
              "type": "uint16"
            },
            {
              "name": "specialAttack",
              "type": "uint16"
            }
          ],
          "name": "card",
          "type": "tuple"
        }
      ],
      "name": "createCard",
      "outputs": [],
      "payable": false,
      "stateMutability": "nonpayable",
      "type": "function",
      "signature": "0x377b723a"
    },
    {
      "constant": false,
      "inputs": [
        {
          "name": "desiredCards",
          "type": "uint256[5]"
        }
      ],
      "name": "pickPayerCards",
      "outputs": [],
      "payable": false,
      "stateMutability": "nonpayable",
      "type": "function",
      "signature": "0x48373963"
    },
    {
      "constant": false,
      "inputs": [
        {
          "components": [
            {
              "name": "cardId",
              "type": "uint256"
            },
            {
              "name": "health",
              "type": "uint16"
            },
            {
              "name": "defence",
              "type": "uint16"
            },
            {
              "name": "mana",
              "type": "uint16"
            },
            {
              "name": "attack",
              "type": "uint16"
            },
            {
              "name": "specialAttack",
              "type": "uint16"
            }
          ],
          "name": "playerCards",
          "type": "tuple[]"
        }
      ],
      "name": "calcMaxSpeed",
      "outputs": [
        {
          "name": "",
          "type": "uint16"
        }
      ],
      "payable": false,
      "stateMutability": "nonpayable",
      "type": "function",
      "signature": "0x4ed61446"
    },
    {
      "constant": true,
      "inputs": [],
      "name": "player2",
      "outputs": [
        {
          "name": "",
          "type": "address"
        }
      ],
      "payable": false,
      "stateMutability": "view",
      "type": "function",
      "signature": "0x59a5f12d"
    },
    {
      "constant": true,
      "inputs": [],
      "name": "winningPlayer",
      "outputs": [
        {
          "name": "",
          "type": "address"
        }
      ],
      "payable": false,
      "stateMutability": "view",
      "type": "function",
      "signature": "0x5ad39846"
    },
    {
      "constant": false,
      "inputs": [],
      "name": "renounceOwnership",
      "outputs": [],
      "payable": false,
      "stateMutability": "nonpayable",
      "type": "function",
      "signature": "0x715018a6"
    },
    {
      "constant": true,
      "inputs": [],
      "name": "owner",
      "outputs": [
        {
          "name": "",
          "type": "address"
        }
      ],
      "payable": false,
      "stateMutability": "view",
      "type": "function",
      "signature": "0x8da5cb5b"
    },
    {
      "constant": true,
      "inputs": [
        {
          "name": "",
          "type": "uint256"
        }
      ],
      "name": "cards",
      "outputs": [
        {
          "name": "name",
          "type": "string"
        },
        {
          "components": [
            {
              "name": "name",
              "type": "string"
            },
            {
              "components": [
                {
                  "name": "health",
                  "type": "uint16"
                },
                {
                  "name": "defence",
                  "type": "uint16"
                },
                {
                  "name": "mana",
                  "type": "uint16"
                },
                {
                  "name": "attack",
                  "type": "uint16"
                },
                {
                  "name": "specialAttack",
                  "type": "uint16"
                }
              ],
              "name": "opponent",
              "type": "tuple"
            },
            {
              "components": [
                {
                  "name": "health",
                  "type": "uint16"
                },
                {
                  "name": "defence",
                  "type": "uint16"
                },
                {
                  "name": "mana",
                  "type": "uint16"
                },
                {
                  "name": "attack",
                  "type": "uint16"
                },
                {
                  "name": "specialAttack",
                  "type": "uint16"
                }
              ],
              "name": "player",
              "type": "tuple"
            },
            {
              "name": "manaCost",
              "type": "uint16"
            }
          ],
          "name": "ability",
          "type": "tuple"
        },
        {
          "name": "initHealth",
          "type": "uint16"
        },
        {
          "name": "initDefence",
          "type": "uint16"
        },
        {
          "name": "initMana",
          "type": "uint16"
        },
        {
          "name": "speed",
          "type": "uint16"
        },
        {
          "name": "attack",
          "type": "uint16"
        },
        {
          "name": "specialAttack",
          "type": "uint16"
        }
      ],
      "payable": false,
      "stateMutability": "view",
      "type": "function",
      "signature": "0x8dc10768"
    },
    {
      "constant": true,
      "inputs": [],
      "name": "isOwner",
      "outputs": [
        {
          "name": "",
          "type": "bool"
        }
      ],
      "payable": false,
      "stateMutability": "view",
      "type": "function",
      "signature": "0x8f32d59b"
    },
    {
      "constant": true,
      "inputs": [],
      "name": "player1",
      "outputs": [
        {
          "name": "",
          "type": "address"
        }
      ],
      "payable": false,
      "stateMutability": "view",
      "type": "function",
      "signature": "0xd30895e4"
    },
    {
      "constant": true,
      "inputs": [],
      "name": "cardsPicked",
      "outputs": [
        {
          "name": "",
          "type": "bool"
        }
      ],
      "payable": false,
      "stateMutability": "view",
      "type": "function",
      "signature": "0xd7eb798c"
    },
    {
      "constant": true,
      "inputs": [
        {
          "name": "",
          "type": "address"
        }
      ],
      "name": "playerDecks",
      "outputs": [
        {
          "name": "currentCard",
          "type": "uint8"
        }
      ],
      "payable": false,
      "stateMutability": "view",
      "type": "function",
      "signature": "0xe4b6c992"
    },
    {
      "constant": false,
      "inputs": [
        {
          "name": "newOwner",
          "type": "address"
        }
      ],
      "name": "transferOwnership",
      "outputs": [],
      "payable": false,
      "stateMutability": "nonpayable",
      "type": "function",
      "signature": "0xf2fde38b"
    },
    {
      "constant": true,
      "inputs": [
        {
          "name": "player",
          "type": "address"
        }
      ],
      "name": "getPlayerCurrentCard",
      "outputs": [
        {
          "components": [
            {
              "name": "cardId",
              "type": "uint256"
            },
            {
              "name": "health",
              "type": "uint16"
            },
            {
              "name": "defence",
              "type": "uint16"
            },
            {
              "name": "mana",
              "type": "uint16"
            },
            {
              "name": "attack",
              "type": "uint16"
            },
            {
              "name": "specialAttack",
              "type": "uint16"
            }
          ],
          "name": "",
          "type": "tuple"
        }
      ],
      "payable": false,
      "stateMutability": "view",
      "type": "function",
      "signature": "0xfe145fbd"
    },
    {
      "inputs": [
        {
          "name": "_player1",
          "type": "address"
        },
        {
          "name": "_player2",
          "type": "address"
        }
      ],
      "payable": false,
      "stateMutability": "nonpayable",
      "type": "constructor",
      "signature": "constructor"
    },
    {
      "anonymous": false,
      "inputs": [
        {
          "indexed": false,
          "name": "move",
          "type": "uint8"
        },
        {
          "indexed": false,
          "name": "attachCardId",
          "type": "uint256"
        },
        {
          "components": [
            {
              "name": "cardId",
              "type": "uint256"
            },
            {
              "name": "health",
              "type": "uint16"
            },
            {
              "name": "defence",
              "type": "uint16"
            },
            {
              "name": "mana",
              "type": "uint16"
            },
            {
              "name": "attack",
              "type": "uint16"
            },
            {
              "name": "specialAttack",
              "type": "uint16"
            }
          ],
          "indexed": false,
          "name": "defenceCard",
          "type": "tuple"
        },
        {
          "indexed": false,
          "name": "nextPlayer",
          "type": "address"
        }
      ],
      "name": "Turn",
      "type": "event",
      "signature": "0x5f4bfc4bb3efc8381128908c65dba16d774750a4508f87b52ed63512630609f9"
    },
    {
      "anonymous": false,
      "inputs": [
        {
          "indexed": false,
          "name": "winningPlayer",
          "type": "address"
        }
      ],
      "name": "EndGame",
      "type": "event",
      "signature": "0xc50f4648fa14be3ee68f160a224cc5d77eeeac58ea500c6fb63fac6788afb0be"
    },
    {
      "anonymous": false,
      "inputs": [
        {
          "indexed": false,
          "name": "desiredCards",
          "type": "uint256[5]"
        },
        {
          "indexed": false,
          "name": "pickedCards",
          "type": "uint256[3]"
        }
      ],
      "name": "PickPayerCards",
      "type": "event",
      "signature": "0x48ca02657a8acb3a062f53bf24ca611bb25d8108f29f5e3c5e468080a44dca5d"
    },
    {
      "anonymous": false,
      "inputs": [
        {
          "indexed": false,
          "name": "cardId",
          "type": "uint256"
        },
        {
          "components": [
            {
              "name": "name",
              "type": "string"
            },
            {
              "components": [
                {
                  "name": "name",
                  "type": "string"
                },
                {
                  "components": [
                    {
                      "name": "health",
                      "type": "uint16"
                    },
                    {
                      "name": "defence",
                      "type": "uint16"
                    },
                    {
                      "name": "mana",
                      "type": "uint16"
                    },
                    {
                      "name": "attack",
                      "type": "uint16"
                    },
                    {
                      "name": "specialAttack",
                      "type": "uint16"
                    }
                  ],
                  "name": "opponent",
                  "type": "tuple"
                },
                {
                  "components": [
                    {
                      "name": "health",
                      "type": "uint16"
                    },
                    {
                      "name": "defence",
                      "type": "uint16"
                    },
                    {
                      "name": "mana",
                      "type": "uint16"
                    },
                    {
                      "name": "attack",
                      "type": "uint16"
                    },
                    {
                      "name": "specialAttack",
                      "type": "uint16"
                    }
                  ],
                  "name": "player",
                  "type": "tuple"
                },
                {
                  "name": "manaCost",
                  "type": "uint16"
                }
              ],
              "name": "ability",
              "type": "tuple"
            },
            {
              "name": "initHealth",
              "type": "uint16"
            },
            {
              "name": "initDefence",
              "type": "uint16"
            },
            {
              "name": "initMana",
              "type": "uint16"
            },
            {
              "name": "speed",
              "type": "uint16"
            },
            {
              "name": "attack",
              "type": "uint16"
            },
            {
              "name": "specialAttack",
              "type": "uint16"
            }
          ],
          "indexed": false,
          "name": "card",
          "type": "tuple"
        }
      ],
      "name": "NewCard",
      "type": "event",
      "signature": "0xb1b17b23cffcf729d34b26aac4faa18940cec6ac11f34c678d0bfe232b00dc81"
    },
    {
      "anonymous": false,
      "inputs": [
        {
          "indexed": true,
          "name": "previousOwner",
          "type": "address"
        },
        {
          "indexed": true,
          "name": "newOwner",
          "type": "address"
        }
      ],
      "name": "OwnershipTransferred",
      "type": "event",
      "signature": "0x8be0079c531659141344cd1fd0a4f28419497f9722a3daafe3b4186f6b6457e0"
    },
    {
      "constant": false,
      "inputs": [
        {
          "name": "move",
          "type": "uint8"
        }
      ],
      "name": "turn",
      "outputs": [],
      "payable": false,
      "stateMutability": "nonpayable",
      "type": "function",
      "signature": "0x2e535940"
    },
    {
      "constant": false,
      "inputs": [
        {
          "name": "_winningPlayer",
          "type": "address"
        }
      ],
      "name": "endGame",
      "outputs": [],
      "payable": false,
      "stateMutability": "nonpayable",
      "type": "function",
      "signature": "0x2a035b6c"
    }
  ],
  "bytecode": "0x60806040523480156200001157600080fd5b506040516040806200400e833981018060405262000033919081019062000193565b8181336000806101000a81548173ffffffffffffffffffffffffffffffffffffffff021916908373ffffffffffffffffffffffffffffffffffffffff1602179055506000809054906101000a900473ffffffffffffffffffffffffffffffffffffffff1673ffffffffffffffffffffffffffffffffffffffff16600073ffffffffffffffffffffffffffffffffffffffff167f8be0079c531659141344cd1fd0a4f28419497f9722a3daafe3b4186f6b6457e060405160405180910390a381600260006101000a81548173ffffffffffffffffffffffffffffffffffffffff021916908373ffffffffffffffffffffffffffffffffffffffff16021790555080600360006101000a81548173ffffffffffffffffffffffffffffffffffffffff021916908373ffffffffffffffffffffffffffffffffffffffff1602179055505050505062000208565b60006200018b8251620001f4565b905092915050565b60008060408385031215620001a757600080fd5b6000620001b7858286016200017d565b9250506020620001ca858286016200017d565b9150509250929050565b600073ffffffffffffffffffffffffffffffffffffffff82169050919050565b60006200020182620001d4565b9050919050565b613df680620002186000396000f3fe608060405234801561001057600080fd5b5060043610610133576000357c010000000000000000000000000000000000000000000000000000000090048063715018a6116100bf578063d30895e41161008e578063d30895e4146102df578063d7eb798c146102fd578063e4b6c9921461031b578063f2fde38b1461034b578063fe145fbd1461036757610133565b8063715018a6146102625780638da5cb5b1461026c5780638dc107681461028a5780638f32d59b146102c157610133565b8063377b723a11610106578063377b723a146101be57806348373963146101da5780634ed61446146101f657806359a5f12d146102265780635ad398461461024457610133565b806306880689146101385780632a035b6c146101565780632af1e2f8146101725780632e535940146101a2575b600080fd5b610140610397565b60405161014d91906138e0565b60405180910390f35b610170600480360361016b9190810190613210565b6103bd565b005b61018c60048036036101879190810190613210565b61049c565b6040516101999190613b39565b60405180910390f35b6101bc60048036036101b791908101906132a3565b6104f5565b005b6101d860048036036101d391908101906132cc565b6112a1565b005b6101f460048036036101ef919081019061327a565b6115d5565b005b610210600480360361020b9190810190613239565b611a50565b60405161021d9190613aee565b60405180910390f35b61022e611ae0565b60405161023b91906138e0565b60405180910390f35b61024c611b06565b60405161025991906138e0565b60405180910390f35b61026a611b2c565b005b610274611bfe565b60405161028191906138e0565b60405180910390f35b6102a4600480360361029f919081019061330d565b611c27565b6040516102b8989796959493929190613987565b60405180910390f35b6102c9611fa1565b6040516102d69190613925565b60405180910390f35b6102e7611ff8565b6040516102f491906138e0565b60405180910390f35b61030561201e565b6040516103129190613925565b60405180910390f35b61033560048036036103309190810190613210565b612031565b6040516103429190613b39565b60405180910390f35b61036560048036036103609190810190613210565b61205c565b005b610381600480360361037c9190810190613210565b61207b565b60405161038e9190613ad3565b60405180910390f35b600560019054906101000a900473ffffffffffffffffffffffffffffffffffffffff1681565b80600660006101000a81548173ffffffffffffffffffffffffffffffffffffffff021916908373ffffffffffffffffffffffffffffffffffffffff1602179055506000600560016101000a81548173ffffffffffffffffffffffffffffffffffffffff021916908373ffffffffffffffffffffffffffffffffffffffff1602179055507fc50f4648fa14be3ee68f160a224cc5d77eeeac58ea500c6fb63fac6788afb0be600660009054906101000a900473ffffffffffffffffffffffffffffffffffffffff1660405161049191906138e0565b60405180910390a150565b6000600460008373ffffffffffffffffffffffffffffffffffffffff1673ffffffffffffffffffffffffffffffffffffffff16815260200190815260200160002060010160009054906101000a900460ff169050919050565b3373ffffffffffffffffffffffffffffffffffffffff16600560019054906101000a900473ffffffffffffffffffffffffffffffffffffffff1673ffffffffffffffffffffffffffffffffffffffff16141515610587576040517f08c379a000000000000000000000000000000000000000000000000000000000815260040161057e90613a73565b60405180910390fd5b600060046000600260009054906101000a900473ffffffffffffffffffffffffffffffffffffffff1673ffffffffffffffffffffffffffffffffffffffff1673ffffffffffffffffffffffffffffffffffffffff16815260200190815260200160002060000160046000600260009054906101000a900473ffffffffffffffffffffffffffffffffffffffff1673ffffffffffffffffffffffffffffffffffffffff1673ffffffffffffffffffffffffffffffffffffffff16815260200190815260200160002060010160009054906101000a900460ff1660ff1681548110151561066e57fe5b90600052602060002090600202019050600060046000600360009054906101000a900473ffffffffffffffffffffffffffffffffffffffff1673ffffffffffffffffffffffffffffffffffffffff1673ffffffffffffffffffffffffffffffffffffffff16815260200190815260200160002060000160046000600360009054906101000a900473ffffffffffffffffffffffffffffffffffffffff1673ffffffffffffffffffffffffffffffffffffffff1673ffffffffffffffffffffffffffffffffffffffff16815260200190815260200160002060010160009054906101000a900460ff1660ff1681548110151561076557fe5b90600052602060002090600202019050600060046000600360009054906101000a900473ffffffffffffffffffffffffffffffffffffffff1673ffffffffffffffffffffffffffffffffffffffff1673ffffffffffffffffffffffffffffffffffffffff16815260200190815260200160002090506000600360009054906101000a900473ffffffffffffffffffffffffffffffffffffffff169050600360009054906101000a900473ffffffffffffffffffffffffffffffffffffffff1673ffffffffffffffffffffffffffffffffffffffff16600560019054906101000a900473ffffffffffffffffffffffffffffffffffffffff1673ffffffffffffffffffffffffffffffffffffffff161415610af05760046000600360009054906101000a900473ffffffffffffffffffffffffffffffffffffffff1673ffffffffffffffffffffffffffffffffffffffff1673ffffffffffffffffffffffffffffffffffffffff16815260200190815260200160002060000160046000600360009054906101000a900473ffffffffffffffffffffffffffffffffffffffff1673ffffffffffffffffffffffffffffffffffffffff1673ffffffffffffffffffffffffffffffffffffffff16815260200190815260200160002060010160009054906101000a900460ff1660ff1681548110151561095e57fe5b9060005260206000209060020201935060046000600260009054906101000a900473ffffffffffffffffffffffffffffffffffffffff1673ffffffffffffffffffffffffffffffffffffffff1673ffffffffffffffffffffffffffffffffffffffff16815260200190815260200160002060000160046000600260009054906101000a900473ffffffffffffffffffffffffffffffffffffffff1673ffffffffffffffffffffffffffffffffffffffff1673ffffffffffffffffffffffffffffffffffffffff16815260200190815260200160002060010160009054906101000a900460ff1660ff16815481101515610a5357fe5b9060005260206000209060020201925060046000600260009054906101000a900473ffffffffffffffffffffffffffffffffffffffff1673ffffffffffffffffffffffffffffffffffffffff1673ffffffffffffffffffffffffffffffffffffffff1681526020019081526020016000209150600260009054906101000a900473ffffffffffffffffffffffffffffffffffffffff169050610ba5565b600260009054906101000a900473ffffffffffffffffffffffffffffffffffffffff1673ffffffffffffffffffffffffffffffffffffffff16600560019054906101000a900473ffffffffffffffffffffffffffffffffffffffff1673ffffffffffffffffffffffffffffffffffffffff16141515610ba4576040517f08c379a0000000000000000000000000000000000000000000000000000000008152600401610b9b90613a53565b60405180910390fd5b5b6000806002811115610bb357fe5b866002811115610bbf57fe5b1415610c1b5760018560010160049054906101000a900461ffff16018560010160046101000a81548161ffff021916908361ffff160217905550610c168560010160069054906101000a900461ffff1685856121f5565b611217565b60016002811115610c2857fe5b866002811115610c3457fe5b1415610c815760008560010160049054906101000a900461ffff1661ffff16111515610c5f57600080fd5b610c7c8560010160089054906101000a900461ffff1685856121f5565b611216565b600280811115610c8d57fe5b866002811115610c9957fe5b14156111da576000809050610cf860018760010160049054906101000a900461ffff160160018860000154815481101515610cd057fe5b906000526020600020906006020160010160030160009054906101000a900461ffff1661244d565b8760010160048294508391906101000a81548161ffff021916908361ffff1602179055505050610d26612c70565b60018760000154815481101515610d3957fe5b906000526020600020906006020160010160010160a060405190810160405290816000820160009054906101000a900461ffff1661ffff1661ffff1681526020016000820160029054906101000a900461ffff1661ffff1661ffff1681526020016000820160049054906101000a900461ffff1661ffff1661ffff1681526020016000820160069054906101000a900461ffff1661ffff1661ffff1681526020016000820160089054906101000a900461ffff1661ffff1661ffff16815250509050610e03612c70565b60018860000154815481101515610e1657fe5b906000526020600020906006020160010160010160a060405190810160405290816000820160009054906101000a900461ffff1661ffff1661ffff1681526020016000820160029054906101000a900461ffff1661ffff1661ffff1681526020016000820160049054906101000a900461ffff1661ffff1661ffff1681526020016000820160069054906101000a900461ffff1661ffff1661ffff1681526020016000820160089054906101000a900461ffff1661ffff1661ffff16815250509050610ef88760010160009054906101000a900461ffff16836000015161244d565b8860010160008296508391906101000a81548161ffff021916908361ffff1602179055505050610f3e8760010160029054906101000a900461ffff16836020015161244d565b8860010160028296508391906101000a81548161ffff021916908361ffff1602179055505050610f848760010160049054906101000a900461ffff16836040015161244d565b8860010160048296508391906101000a81548161ffff021916908361ffff1602179055505050610fca8760010160069054906101000a900461ffff16836060015161244d565b8860010160068296508391906101000a81548161ffff021916908361ffff16021790555050506110108760010160089054906101000a900461ffff16836080015161244d565b8860010160088296508391906101000a81548161ffff021916908361ffff160217905550505060008760010160009054906101000a900461ffff1661ffff1614156110bf5760018660000180549050038660010160009054906101000a900460ff1660ff16141561108957611084336103bd565b6110be565b85600101600081819054906101000a900460ff168092919060010191906101000a81548160ff021916908360ff160217905550505b5b80600001518860010160009054906101000a900461ffff16018860010160006101000a81548161ffff021916908361ffff16021790555080602001518860010160029054906101000a900461ffff16018860010160026101000a81548161ffff021916908361ffff16021790555080604001518860010160049054906101000a900461ffff16018860010160046101000a81548161ffff021916908361ffff16021790555080606001518860010160069054906101000a900461ffff16018860010160066101000a81548161ffff021916908361ffff16021790555080608001518860010160089054906101000a900461ffff16018860010160086101000a81548161ffff021916908361ffff160217905550505050611215565b6040517f08c379a000000000000000000000000000000000000000000000000000000000815260040161120c90613a33565b60405180910390fd5b5b5b81600560016101000a81548173ffffffffffffffffffffffffffffffffffffffff021916908373ffffffffffffffffffffffffffffffffffffffff1602179055507f5f4bfc4bb3efc8381128908c65dba16d774750a4508f87b52ed63512630609f986866000015486856040516112919493929190613940565b60405180910390a1505050505050565b6112a9611fa1565b15156112b457600080fd5b600060018083908060018154018082558091505090600182039060005260206000209060060201600090919290919091506000820151816000019080519060200190611301929190612cb4565b506020820151816001016000820151816000019080519060200190611327929190612cb4565b5060208201518160010160008201518160000160006101000a81548161ffff021916908361ffff16021790555060208201518160000160026101000a81548161ffff021916908361ffff16021790555060408201518160000160046101000a81548161ffff021916908361ffff16021790555060608201518160000160066101000a81548161ffff021916908361ffff16021790555060808201518160000160086101000a81548161ffff021916908361ffff160217905550505060408201518160020160008201518160000160006101000a81548161ffff021916908361ffff16021790555060208201518160000160026101000a81548161ffff021916908361ffff16021790555060408201518160000160046101000a81548161ffff021916908361ffff16021790555060608201518160000160066101000a81548161ffff021916908361ffff16021790555060808201518160000160086101000a81548161ffff021916908361ffff160217905550505060608201518160030160006101000a81548161ffff021916908361ffff160217905550505060408201518160050160006101000a81548161ffff021916908361ffff16021790555060608201518160050160026101000a81548161ffff021916908361ffff16021790555060808201518160050160046101000a81548161ffff021916908361ffff16021790555060a08201518160050160066101000a81548161ffff021916908361ffff16021790555060c08201518160050160086101000a81548161ffff021916908361ffff16021790555060e082015181600501600a6101000a81548161ffff021916908361ffff16021790555050500390507fb1b17b23cffcf729d34b26aac4faa18940cec6ac11f34c678d0bfe232b00dc8181836040516115c9929190613b09565b60405180910390a15050565b6000600460003373ffffffffffffffffffffffffffffffffffffffff1673ffffffffffffffffffffffffffffffffffffffff168152602001908152602001600020600001905060008180549050141515611664576040517f08c379a000000000000000000000000000000000000000000000000000000000815260040161165b90613a93565b60405180910390fd5b3373ffffffffffffffffffffffffffffffffffffffff16600260009054906101000a900473ffffffffffffffffffffffffffffffffffffffff1673ffffffffffffffffffffffffffffffffffffffff16141561174b57600060046000600360009054906101000a900473ffffffffffffffffffffffffffffffffffffffff1673ffffffffffffffffffffffffffffffffffffffff1673ffffffffffffffffffffffffffffffffffffffff168152602001908152602001600020600001805490501115611746576001600560006101000a81548160ff0219169083151502179055505b61186e565b3373ffffffffffffffffffffffffffffffffffffffff16600360009054906101000a900473ffffffffffffffffffffffffffffffffffffffff1673ffffffffffffffffffffffffffffffffffffffff16141561183257600060046000600260009054906101000a900473ffffffffffffffffffffffffffffffffffffffff1673ffffffffffffffffffffffffffffffffffffffff1673ffffffffffffffffffffffffffffffffffffffff16815260200190815260200160002060000180549050111561182d576001600560006101000a81548160ff0219169083151502179055505b61186d565b6040517f08c379a000000000000000000000000000000000000000000000000000000000815260040161186490613ab3565b60405180910390fd5b5b611876612d34565b60606040519081016040528060008152602001600081526020016000815250905060006118a560056001612485565b90506118c38385836005811015156118b957fe5b602002015161254e565b8260008154811015156118d257fe5b9060005260206000209060020201600001548260006003811015156118f357fe5b602002018181525050600061190a600a6002612485565b90508082148061191a5750600481115b156119425761193160018080549050036002612485565b905061193d848261254e565b61195f565b61195e84868360058110151561195457fe5b602002015161254e565b5b83600181548110151561196e57fe5b90600052602060002090600202016000015483600160038110151561198f57fe5b60200201818152505060006119ac60018080549050036003612485565b90506119b8858261254e565b8460028154811015156119c757fe5b9060005260206000209060020201600001548460026003811015156119e857fe5b6020020181815250507f48ca02657a8acb3a062f53bf24ca611bb25d8108f29f5e3c5e468080a44dca5d8685604051611a229291906138fb565b60405180910390a1600560009054906101000a900460ff1615611a4857611a47612762565b5b505050505050565b6000806000905060008090505b8351811015611ad657600060018583815181101515611a7857fe5b9060200190602002015160000151815481101515611a9257fe5b906000526020600020906006020160050160069054906101000a900461ffff1690508261ffff168161ffff161115611ac8578092505b508080600101915050611a5d565b5080915050919050565b600360009054906101000a900473ffffffffffffffffffffffffffffffffffffffff1681565b600660009054906101000a900473ffffffffffffffffffffffffffffffffffffffff1681565b611b34611fa1565b1515611b3f57600080fd5b600073ffffffffffffffffffffffffffffffffffffffff166000809054906101000a900473ffffffffffffffffffffffffffffffffffffffff1673ffffffffffffffffffffffffffffffffffffffff167f8be0079c531659141344cd1fd0a4f28419497f9722a3daafe3b4186f6b6457e060405160405180910390a360008060006101000a81548173ffffffffffffffffffffffffffffffffffffffff021916908373ffffffffffffffffffffffffffffffffffffffff160217905550565b60008060009054906101000a900473ffffffffffffffffffffffffffffffffffffffff16905090565b600181815481101515611c3657fe5b9060005260206000209060060201600091509050806000018054600181600116156101000203166002900480601f016020809104026020016040519081016040528092919081815260200182805460018160011615610100020316600290048015611ce25780601f10611cb757610100808354040283529160200191611ce2565b820191906000526020600020905b815481529060010190602001808311611cc557829003601f168201915b5050505050908060010160806040519081016040529081600082018054600181600116156101000203166002900480601f016020809104026020016040519081016040528092919081815260200182805460018160011615610100020316600290048015611d915780601f10611d6657610100808354040283529160200191611d91565b820191906000526020600020905b815481529060010190602001808311611d7457829003601f168201915b505050505081526020016001820160a060405190810160405290816000820160009054906101000a900461ffff1661ffff1661ffff1681526020016000820160029054906101000a900461ffff1661ffff1661ffff1681526020016000820160049054906101000a900461ffff1661ffff1661ffff1681526020016000820160069054906101000a900461ffff1661ffff1661ffff1681526020016000820160089054906101000a900461ffff1661ffff1661ffff168152505081526020016002820160a060405190810160405290816000820160009054906101000a900461ffff1661ffff1661ffff1681526020016000820160029054906101000a900461ffff1661ffff1661ffff1681526020016000820160049054906101000a900461ffff1661ffff1661ffff1681526020016000820160069054906101000a900461ffff1661ffff1661ffff1681526020016000820160089054906101000a900461ffff1661ffff1661ffff168152505081526020016003820160009054906101000a900461ffff1661ffff1661ffff1681525050908060050160009054906101000a900461ffff16908060050160029054906101000a900461ffff16908060050160049054906101000a900461ffff16908060050160069054906101000a900461ffff16908060050160089054906101000a900461ffff169080600501600a9054906101000a900461ffff16905088565b60008060009054906101000a900473ffffffffffffffffffffffffffffffffffffffff1673ffffffffffffffffffffffffffffffffffffffff163373ffffffffffffffffffffffffffffffffffffffff1614905090565b600260009054906101000a900473ffffffffffffffffffffffffffffffffffffffff1681565b600560009054906101000a900460ff1681565b60046020528060005260406000206000915090508060010160009054906101000a900460ff16905081565b612064611fa1565b151561206f57600080fd5b61207881612b76565b50565b612083612d57565b6000600460008473ffffffffffffffffffffffffffffffffffffffff1673ffffffffffffffffffffffffffffffffffffffff16815260200190815260200160002060010160009054906101000a900460ff169050600460008473ffffffffffffffffffffffffffffffffffffffff1673ffffffffffffffffffffffffffffffffffffffff1681526020019081526020016000206000018160ff1681548110151561212957fe5b906000526020600020906002020160c06040519081016040529081600082015481526020016001820160009054906101000a900461ffff1661ffff1661ffff1681526020016001820160029054906101000a900461ffff1661ffff1661ffff1681526020016001820160049054906101000a900461ffff1661ffff1661ffff1681526020016001820160069054906101000a900461ffff1661ffff1661ffff1681526020016001820160089054906101000a900461ffff1661ffff1661ffff1681525050915050919050565b6000808360010160029054906101000a900461ffff1661ffff161115612358576122318360010160029054906101000a900461ffff168561244d565b8460010160028294508391906101000a81548161ffff021916908361ffff160217905550505060008161ffff161115612353576122808360010160009054906101000a900461ffff168261244d565b8460010160008294508391906101000a81548161ffff021916908361ffff160217905550505060008161ffff1611156123525781600101600081819054906101000a900460ff168092919060010191906101000a81548160ff021916908360ff1602179055505081600001805490508260010160009054906101000a900460ff1660ff16111561231457612313336103bd565b5b61235181836000018460010160009054906101000a900460ff1660ff1681548110151561233d57fe5b9060005260206000209060020201846121f5565b5b5b612447565b6123748360010160009054906101000a900461ffff168561244d565b8460010160008294508391906101000a81548161ffff021916908361ffff160217905550505060008161ffff1611156124465781600101600081819054906101000a900460ff168092919060010191906101000a81548160ff021916908360ff1602179055505081600001805490508260010160009054906101000a900460ff1660ff16111561240857612407336103bd565b5b61244581836000018460010160009054906101000a900460ff1660ff1681548110151561243157fe5b9060005260206000209060020201846121f5565b5b5b50505050565b6000808361ffff168361ffff1611156124715760008484038191509150915061247e565b8284036000809050915091505b9250929050565b60008082600143034033600180549050604051602001808560ff1660ff167f01000000000000000000000000000000000000000000000000000000000000000281526001018481526020018373ffffffffffffffffffffffffffffffffffffffff1673ffffffffffffffffffffffffffffffffffffffff166c0100000000000000000000000002815260140182815260200194505050505060405160208183030381529060405280519060200120600190049050838181151561254457fe5b0691505092915050565b8160c06040519081016040528083815260200160018481548110151561257057fe5b906000526020600020906006020160050160009054906101000a900461ffff1661ffff1681526020016001848154811015156125a857fe5b906000526020600020906006020160050160029054906101000a900461ffff1661ffff1681526020016001848154811015156125e057fe5b906000526020600020906006020160050160049054906101000a900461ffff1661ffff16815260200160018481548110151561261857fe5b906000526020600020906006020160050160089054906101000a900461ffff1661ffff16815260200160018481548110151561265057fe5b9060005260206000209060060201600501600a9054906101000a900461ffff1661ffff16815250908060018154018082558091505090600182039060005260206000209060020201600090919290919091506000820151816000015560208201518160010160006101000a81548161ffff021916908361ffff16021790555060408201518160010160026101000a81548161ffff021916908361ffff16021790555060608201518160010160046101000a81548161ffff021916908361ffff16021790555060808201518160010160066101000a81548161ffff021916908361ffff16021790555060a08201518160010160086101000a81548161ffff021916908361ffff1602179055505050505050565b600560009054906101000a900460ff1615156127b3576040517f08c379a00000000000000000000000000000000000000000000000000000000081526004016127aa90613a13565b60405180910390fd5b600061292260046000600260009054906101000a900473ffffffffffffffffffffffffffffffffffffffff1673ffffffffffffffffffffffffffffffffffffffff1673ffffffffffffffffffffffffffffffffffffffff168152602001908152602001600020600001805480602002602001604051908101604052809291908181526020016000905b82821015612919578382906000526020600020906002020160c06040519081016040529081600082015481526020016001820160009054906101000a900461ffff1661ffff1661ffff1681526020016001820160029054906101000a900461ffff1661ffff1661ffff1681526020016001820160049054906101000a900461ffff1661ffff1661ffff1681526020016001820160069054906101000a900461ffff1661ffff1661ffff1681526020016001820160089054906101000a900461ffff1661ffff1661ffff16815250508152602001906001019061283c565b50505050611a50565b90506000612a9360046000600360009054906101000a900473ffffffffffffffffffffffffffffffffffffffff1673ffffffffffffffffffffffffffffffffffffffff1673ffffffffffffffffffffffffffffffffffffffff168152602001908152602001600020600001805480602002602001604051908101604052809291908181526020016000905b82821015612a8a578382906000526020600020906002020160c06040519081016040529081600082015481526020016001820160009054906101000a900461ffff1661ffff1661ffff1681526020016001820160029054906101000a900461ffff1661ffff1661ffff1681526020016001820160049054906101000a900461ffff1661ffff1661ffff1681526020016001820160069054906101000a900461ffff1661ffff1661ffff1681526020016001820160089054906101000a900461ffff1661ffff1661ffff1681525050815260200190600101906129ad565b50505050611a50565b90508061ffff168261ffff16101515612b0e57600260009054906101000a900473ffffffffffffffffffffffffffffffffffffffff16600560016101000a81548173ffffffffffffffffffffffffffffffffffffffff021916908373ffffffffffffffffffffffffffffffffffffffff160217905550612b72565b600360009054906101000a900473ffffffffffffffffffffffffffffffffffffffff16600560016101000a81548173ffffffffffffffffffffffffffffffffffffffff021916908373ffffffffffffffffffffffffffffffffffffffff1602179055505b5050565b600073ffffffffffffffffffffffffffffffffffffffff168173ffffffffffffffffffffffffffffffffffffffff1614151515612bb257600080fd5b8073ffffffffffffffffffffffffffffffffffffffff166000809054906101000a900473ffffffffffffffffffffffffffffffffffffffff1673ffffffffffffffffffffffffffffffffffffffff167f8be0079c531659141344cd1fd0a4f28419497f9722a3daafe3b4186f6b6457e060405160405180910390a3806000806101000a81548173ffffffffffffffffffffffffffffffffffffffff021916908373ffffffffffffffffffffffffffffffffffffffff16021790555050565b60a060405190810160405280600061ffff168152602001600061ffff168152602001600061ffff168152602001600061ffff168152602001600061ffff1681525090565b828054600181600116156101000203166002900490600052602060002090601f016020900481019282601f10612cf557805160ff1916838001178555612d23565b82800160010185558215612d23579182015b82811115612d22578251825591602001919060010190612d07565b5b509050612d309190612da2565b5090565b606060405190810160405280600390602082028038833980820191505090505090565b60c06040519081016040528060008152602001600061ffff168152602001600061ffff168152602001600061ffff168152602001600061ffff168152602001600061ffff1681525090565b612dc491905b80821115612dc0576000816000905550600101612da8565b5090565b90565b6000612dd38235613cbf565b905092915050565b600082601f8301121515612dee57600080fd5b8135612e01612dfc82613b81565b613b54565b915081818352602084019350602081019050838560c0840282011115612e2657600080fd5b60005b83811015612e565781612e3c888261314c565b845260208401935060c08301925050600181019050612e29565b5050505092915050565b600082601f8301121515612e7357600080fd5b6005612e86612e8182613ba9565b613b54565b91508183856020840282011115612e9c57600080fd5b60005b83811015612ecc5781612eb288826131fc565b845260208401935060208301925050600181019050612e9f565b5050505092915050565b6000612ee28235613cd1565b905092915050565b600082601f8301121515612efd57600080fd5b8135612f10612f0b82613bcb565b613b54565b91508082526020830160208301858383011115612f2c57600080fd5b612f37838284613d14565b50505092915050565b60006101808284031215612f5357600080fd5b612f5d6080613b54565b9050600082013567ffffffffffffffff811115612f7957600080fd5b612f8584828501612eea565b6000830152506020612f9984828501612fce565b60208301525060c0612fad84828501612fce565b604083015250610160612fc2848285016131e8565b60608301525092915050565b600060a08284031215612fe057600080fd5b612fea60a0613b54565b90506000612ffa848285016131e8565b600083015250602061300e848285016131e8565b6020830152506040613022848285016131e8565b6040830152506060613036848285016131e8565b606083015250608061304a848285016131e8565b60808301525092915050565b6000610100828403121561306957600080fd5b613074610100613b54565b9050600082013567ffffffffffffffff81111561309057600080fd5b61309c84828501612eea565b600083015250602082013567ffffffffffffffff8111156130bc57600080fd5b6130c884828501612f40565b60208301525060406130dc848285016131e8565b60408301525060606130f0848285016131e8565b6060830152506080613104848285016131e8565b60808301525060a0613118848285016131e8565b60a08301525060c061312c848285016131e8565b60c08301525060e0613140848285016131e8565b60e08301525092915050565b600060c0828403121561315e57600080fd5b61316860c0613b54565b90506000613178848285016131fc565b600083015250602061318c848285016131e8565b60208301525060406131a0848285016131e8565b60408301525060606131b4848285016131e8565b60608301525060806131c8848285016131e8565b60808301525060a06131dc848285016131e8565b60a08301525092915050565b60006131f48235613cea565b905092915050565b60006132088235613cf8565b905092915050565b60006020828403121561322257600080fd5b600061323084828501612dc7565b91505092915050565b60006020828403121561324b57600080fd5b600082013567ffffffffffffffff81111561326557600080fd5b61327184828501612ddb565b91505092915050565b600060a0828403121561328c57600080fd5b600061329a84828501612e60565b91505092915050565b6000602082840312156132b557600080fd5b60006132c384828501612ed6565b91505092915050565b6000602082840312156132de57600080fd5b600082013567ffffffffffffffff8111156132f857600080fd5b61330484828501613056565b91505092915050565b60006020828403121561331f57600080fd5b600061332d848285016131fc565b91505092915050565b61333f81613c46565b82525050565b61334e81613c0b565b61335782613bf7565b60005b828110156133895761336d8583516138c2565b61337682613c2c565b915060208501945060018101905061335a565b5050505050565b61339981613c16565b6133a282613c01565b60005b828110156133d4576133b88583516138c2565b6133c182613c39565b91506020850194506001810190506133a5565b5050505050565b6133e481613c58565b82525050565b6133f381613d02565b82525050565b600061340482613c21565b808452613418816020860160208601613d23565b61342181613d56565b602085010191505092915050565b6000602c82527f426f746820706c6179657273206861766520746f2068617665207069636b656460208301527f20746865697220636172647300000000000000000000000000000000000000006040830152606082019050919050565b6000600c82527f496e76616c6964206d6f766500000000000000000000000000000000000000006020830152604082019050919050565b6000602982527f706c6179657273207475726e20646f6573206e6f7420657175616c206569746860208301527f657220706c6179657200000000000000000000000000000000000000000000006040830152606082019050919050565b6000600d82527f4e6f7420796f7572207475726e000000000000000000000000000000000000006020830152604082019050919050565b6000602582527f506c617965722068617320616c7265616479207069636b65642074686569722060208301527f63617264730000000000000000000000000000000000000000000000000000006040830152606082019050919050565b6000602882527f5472616e73616374696f6e2073656e646572206d75737420626520706c61796560208301527f722031206f7220320000000000000000000000000000000000000000000000006040830152606082019050919050565b600061018083016000830151848203600086015261362f82826133f9565b91505060208301516136446020860182613676565b50604083015161365760c0860182613676565b50606083015161366b6101608601826138b3565b508091505092915050565b60a08201600082015161368c60008501826138b3565b50602082015161369f60208501826138b3565b5060408201516136b260408501826138b3565b5060608201516136c560608501826138b3565b5060808201516136d860808501826138b3565b50505050565b60006101008301600083015184820360008601526136fc82826133f9565b915050602083015184820360208601526137168282613611565b915050604083015161372b60408601826138b3565b50606083015161373e60608601826138b3565b50608083015161375160808601826138b3565b5060a083015161376460a08601826138b3565b5060c083015161377760c08601826138b3565b5060e083015161378a60e08601826138b3565b508091505092915050565b60c0820160008201516137ab60008501826138c2565b5060208201516137be60208501826138b3565b5060408201516137d160408501826138b3565b5060608201516137e460608501826138b3565b5060808201516137f760808501826138b3565b5060a082015161380a60a08501826138b3565b50505050565b60c08201600080830154905061382581613d67565b61383260008601826138c2565b506001830154905061384381613d67565b61385060208601826138b3565b5061385a81613d74565b61386760408601826138b3565b5061387181613d83565b61387e60608601826138b3565b5061388881613d94565b61389560808601826138b3565b5061389f81613da7565b6138ac60a08601826138b3565b5050505050565b6138bc81613c7a565b82525050565b6138cb81613ca8565b82525050565b6138da81613cb2565b82525050565b60006020820190506138f56000830184613336565b92915050565b6000610100820190506139116000830185613390565b61391e60a0830184613345565b9392505050565b600060208201905061393a60008301846133db565b92915050565b60006101208201905061395660008301876133ea565b61396360208301866138c2565b6139706040830185613810565b61397e610100830184613336565b95945050505050565b60006101008201905081810360008301526139a2818b6133f9565b905081810360208301526139b6818a613611565b90506139c560408301896138b3565b6139d260608301886138b3565b6139df60808301876138b3565b6139ec60a08301866138b3565b6139f960c08301856138b3565b613a0660e08301846138b3565b9998505050505050505050565b60006020820190508181036000830152613a2c8161342f565b9050919050565b60006020820190508181036000830152613a4c8161348c565b9050919050565b60006020820190508181036000830152613a6c816134c3565b9050919050565b60006020820190508181036000830152613a8c81613520565b9050919050565b60006020820190508181036000830152613aac81613557565b9050919050565b60006020820190508181036000830152613acc816135b4565b9050919050565b600060c082019050613ae86000830184613795565b92915050565b6000602082019050613b0360008301846138b3565b92915050565b6000604082019050613b1e60008301856138c2565b8181036020830152613b3081846136de565b90509392505050565b6000602082019050613b4e60008301846138d1565b92915050565b6000604051905081810181811067ffffffffffffffff82111715613b7757600080fd5b8060405250919050565b600067ffffffffffffffff821115613b9857600080fd5b602082029050602081019050919050565b600067ffffffffffffffff821115613bc057600080fd5b602082029050919050565b600067ffffffffffffffff821115613be257600080fd5b601f19601f8301169050602081019050919050565b6000819050919050565b6000819050919050565b600060039050919050565b600060059050919050565b600081519050919050565b6000602082019050919050565b6000602082019050919050565b6000613c5182613c88565b9050919050565b60008115159050919050565b6000600382101515613c7257fe5b819050919050565b600061ffff82169050919050565b600073ffffffffffffffffffffffffffffffffffffffff82169050919050565b6000819050919050565b600060ff82169050919050565b6000613cca82613c88565b9050919050565b6000600382101515613ce257600080fd5b819050919050565b600061ffff82169050919050565b6000819050919050565b6000613d0d82613c64565b9050919050565b82818337600083830152505050565b60005b83811015613d41578082015181840152602081019050613d26565b83811115613d50576000848401525b50505050565b6000601f19601f8301169050919050565b6000600182049050919050565b60006201000082049050919050565b600064010000000082049050919050565b6000660100000000000082049050919050565b6000680100000000000000008204905091905056fea265627a7a72305820d0f938b2723346231b99bbbf4fa3ece1eccd2d4d111219b1d5720cf69eed2c9d6c6578706572696d656e74616cf50037",
  "source": "pragma solidity ^0.5.2;\npragma experimental ABIEncoderV2;\n\nimport {PlayerCards} from \"./PlayerCards.sol\";\nimport {MathUtils} from \"./MathUtils.sol\";\n\ncontract Battle is PlayerCards {\n\n    enum Move {\n        Attack,\n        SpecialAttack,\n        Ability\n    }\n\n    uint16 constant turnDefenceIncrease = 30;\n\n    address public winningPlayer;\n\n    event Turn(Move move, uint attachCardId, PlayerCard defenceCard, address nextPlayer);\n    event EndGame(address winningPlayer);\n    \n    constructor(address _player1, address _player2) public\n        PlayerCards(_player1, _player2)\n    {}\n\n    function turn(Move move) public {\n        require(playersTurn == msg.sender, \"Not your turn\");\n\n        // Assume playersTurn == player1 as Solidity does not allow uninitialized storage pointers\n        PlayerCard storage attackCard = playerDecks[player1].playerCards[playerDecks[player1].currentCard];\n        PlayerCard storage defenceCard = playerDecks[player2].playerCards[playerDecks[player2].currentCard];\n        PlayerDeck storage defenceDeck = playerDecks[player2];\n        address nextPlayer = player2;\n        // if (playersTurn == player1) {\n        //     attackCard = player1Cards[currentCardPlayer1];\n        //     defenceCard = player2Cards[currentCardPlayer2];\n        //     nextPlayer = player2;\n        // } else \n        if (playersTurn == player2) {\n            attackCard = playerDecks[player2].playerCards[playerDecks[player2].currentCard];\n            defenceCard = playerDecks[player1].playerCards[playerDecks[player1].currentCard];\n            defenceDeck = playerDecks[player1];\n            nextPlayer = player1;\n        } else if (playersTurn != player1) {\n            revert('players turn does not equal either player');\n        }\n\n        // move logic\n        uint16 remainingAttackAmount;\n        if (move == Move.Attack) {\n            attackCard.mana = attackCard.mana + 1;\n\n            // attack the defence and then health of the opponent\n            attack(attackCard.attack, defenceCard, defenceDeck);\n        } else if (move == Move.SpecialAttack) {\n\n            require(attackCard.mana > 0);\n\n            // attack the defence and then health of the opponent\n            attack(attackCard.specialAttack, defenceCard, defenceDeck);\n\n        } else if (move == Move.Ability) {\n            uint16 remainder = 0;\n\n            (attackCard.mana, remainder) = MathUtils.subToZero(attackCard.mana + 1, cards[attackCard.cardId].ability.manaCost);\n\n            CardProperties memory opponentAbility = cards[attackCard.cardId].ability.opponent;\n            CardProperties memory playerAbility = cards[attackCard.cardId].ability.opponent;\n\n            // reduce opponents current card\n            (defenceCard.health, remainder) = MathUtils.subToZero(defenceCard.health, opponentAbility.health);\n            (defenceCard.defence, remainder) = MathUtils.subToZero(defenceCard.defence, opponentAbility.defence);\n            (defenceCard.mana, remainder) = MathUtils.subToZero(defenceCard.mana, opponentAbility.mana);\n            (defenceCard.attack, remainder) = MathUtils.subToZero(defenceCard.attack, opponentAbility.attack);\n            (defenceCard.specialAttack, remainder) = MathUtils.subToZero(defenceCard.specialAttack, opponentAbility.specialAttack);\n\n            // if opponent health went to zero\n            if (defenceCard.health == 0) {\n                // if last card in defence deck\n                if  (defenceDeck.currentCard == defenceDeck.playerCards.length - 1) {\n                    endGame(msg.sender);\n                } else {\n                    defenceDeck.currentCard++;\n                }\n            }\n\n            // boost your current card\n            attackCard.health = attackCard.health + playerAbility.health;\n            attackCard.defence = attackCard.defence + playerAbility.defence;\n            attackCard.mana = attackCard.mana + playerAbility.mana;\n            attackCard.attack = attackCard.attack + playerAbility.attack;\n            attackCard.specialAttack = attackCard.specialAttack + playerAbility.specialAttack;\n        }\n        else {\n            revert('Invalid move');\n        }\n        \n        playersTurn = nextPlayer;\n\n        emit Turn(move, attackCard.cardId, defenceCard, nextPlayer);\n    }\n\n    // Attacked the defence and then health of the opponent\n    function attack(uint16 attackAmount, PlayerCard storage defenceCard, PlayerDeck storage defenceDeck) internal {\n        uint16 remainingAttackAmount;\n\n        if (defenceCard.defence > 0) {\n            (defenceCard.defence, remainingAttackAmount) = MathUtils.subToZero(defenceCard.defence, attackAmount);\n\n            if (remainingAttackAmount > 0) {\n                (defenceCard.health, remainingAttackAmount) = MathUtils.subToZero(defenceCard.health, remainingAttackAmount);\n\n                if (remainingAttackAmount > 0) {\n                    defenceDeck.currentCard++;\n                    if (defenceDeck.currentCard > defenceDeck.playerCards.length) {\n                        endGame(msg.sender);\n                    }\n                    attack(remainingAttackAmount, defenceDeck.playerCards[defenceDeck.currentCard], defenceDeck);\n                }\n            }\n        } else {\n\n            (defenceCard.health, remainingAttackAmount) = MathUtils.subToZero(defenceCard.health, attackAmount);\n\n            if (remainingAttackAmount > 0) {\n                defenceDeck.currentCard++;\n                if (defenceDeck.currentCard > defenceDeck.playerCards.length) {\n                    endGame(msg.sender);\n                }\n                attack(remainingAttackAmount, defenceDeck.playerCards[defenceDeck.currentCard], defenceDeck);\n            }\n        }\n    }\n\n    function endGame(address _winningPlayer) public {\n        winningPlayer = _winningPlayer;\n        playersTurn = address(0);\n\n        emit EndGame(winningPlayer);\n    }\n}",
  "sourcePath": "/Users/nicholasaddison/Documents/workspaces/scratch/crypto-beasts/contracts/Battle.sol",
  "compiler": {
    "name": "solc",
    "version": "0.5.2+commit.1df8f40c.Emscripten.clang"
  },
  "schemaVersion": "3.0.6",
  "updatedAt": "2019-04-15T12:21:43.397Z",
  "devdoc": {
    "methods": {
      "isOwner()": {
        "return": "true if `msg.sender` is the owner of the contract."
      },
      "owner()": {
        "return": "the address of the owner."
      },
      "renounceOwnership()": {
        "details": "Allows the current owner to relinquish control of the contract. It will not be possible to call the functions with the `onlyOwner` modifier anymore."
      },
      "transferOwnership(address)": {
        "details": "Allows the current owner to transfer control of the contract to a newOwner.",
        "params": {
          "newOwner": "The address to transfer ownership to."
        }
      }
    }
  },
  "userdoc": {
    "methods": {
      "renounceOwnership()": {
        "notice": "Renouncing ownership will leave the contract without an owner, thereby removing any functionality that is only available to the owner."
      }
    }
  }
}