{
  "contractName": "BattlePick",
  "abi": [
    {
      "constant": true,
      "inputs": [],
      "name": "playersTurn",
      "outputs": [
        {
          "name": "",
          "type": "address"
        }
      ],
      "payable": false,
      "stateMutability": "view",
      "type": "function",
      "signature": "0x06880689"
    },
    {
      "constant": true,
      "inputs": [
        {
          "name": "player",
          "type": "address"
        }
      ],
      "name": "getPlayersCurrentCardNumber",
      "outputs": [
        {
          "name": "",
          "type": "uint8"
        }
      ],
      "payable": false,
      "stateMutability": "view",
      "type": "function",
      "signature": "0x2af1e2f8"
    },
    {
      "constant": false,
      "inputs": [
        {
          "name": "desiredCards",
          "type": "uint256[5]"
        }
      ],
      "name": "pickPayerCards",
      "outputs": [],
      "payable": false,
      "stateMutability": "nonpayable",
      "type": "function",
      "signature": "0x48373963"
    },
    {
      "constant": false,
      "inputs": [
        {
          "components": [
            {
              "name": "cardId",
              "type": "uint256"
            },
            {
              "name": "health",
              "type": "uint16"
            },
            {
              "name": "defence",
              "type": "uint16"
            },
            {
              "name": "mana",
              "type": "uint16"
            },
            {
              "name": "attack",
              "type": "uint16"
            },
            {
              "name": "specialAttack",
              "type": "uint16"
            }
          ],
          "name": "playerCards",
          "type": "tuple[]"
        }
      ],
      "name": "calcMaxSpeed",
      "outputs": [
        {
          "name": "",
          "type": "uint16"
        }
      ],
      "payable": false,
      "stateMutability": "nonpayable",
      "type": "function",
      "signature": "0x4ed61446"
    },
    {
      "constant": true,
      "inputs": [],
      "name": "player2",
      "outputs": [
        {
          "name": "",
          "type": "address"
        }
      ],
      "payable": false,
      "stateMutability": "view",
      "type": "function",
      "signature": "0x59a5f12d"
    },
    {
      "constant": true,
      "inputs": [],
      "name": "winningPlayer",
      "outputs": [
        {
          "name": "",
          "type": "address"
        }
      ],
      "payable": false,
      "stateMutability": "view",
      "type": "function",
      "signature": "0x5ad39846"
    },
    {
      "constant": true,
      "inputs": [
        {
          "name": "player",
          "type": "address"
        }
      ],
      "name": "getPlayerDeck",
      "outputs": [
        {
          "components": [
            {
              "components": [
                {
                  "name": "cardId",
                  "type": "uint256"
                },
                {
                  "name": "health",
                  "type": "uint16"
                },
                {
                  "name": "defence",
                  "type": "uint16"
                },
                {
                  "name": "mana",
                  "type": "uint16"
                },
                {
                  "name": "attack",
                  "type": "uint16"
                },
                {
                  "name": "specialAttack",
                  "type": "uint16"
                }
              ],
              "name": "playerCards",
              "type": "tuple[]"
            },
            {
              "name": "currentCard",
              "type": "uint8"
            }
          ],
          "name": "",
          "type": "tuple"
        }
      ],
      "payable": false,
      "stateMutability": "view",
      "type": "function",
      "signature": "0xc0d35449"
    },
    {
      "constant": true,
      "inputs": [],
      "name": "player1",
      "outputs": [
        {
          "name": "",
          "type": "address"
        }
      ],
      "payable": false,
      "stateMutability": "view",
      "type": "function",
      "signature": "0xd30895e4"
    },
    {
      "constant": true,
      "inputs": [],
      "name": "cardsPicked",
      "outputs": [
        {
          "name": "",
          "type": "bool"
        }
      ],
      "payable": false,
      "stateMutability": "view",
      "type": "function",
      "signature": "0xd7eb798c"
    },
    {
      "constant": true,
      "inputs": [
        {
          "name": "",
          "type": "address"
        }
      ],
      "name": "playerDecks",
      "outputs": [
        {
          "name": "currentCard",
          "type": "uint8"
        }
      ],
      "payable": false,
      "stateMutability": "view",
      "type": "function",
      "signature": "0xe4b6c992"
    },
    {
      "constant": true,
      "inputs": [
        {
          "name": "player",
          "type": "address"
        }
      ],
      "name": "getPlayerCurrentCard",
      "outputs": [
        {
          "components": [
            {
              "name": "cardId",
              "type": "uint256"
            },
            {
              "name": "health",
              "type": "uint16"
            },
            {
              "name": "defence",
              "type": "uint16"
            },
            {
              "name": "mana",
              "type": "uint16"
            },
            {
              "name": "attack",
              "type": "uint16"
            },
            {
              "name": "specialAttack",
              "type": "uint16"
            }
          ],
          "name": "",
          "type": "tuple"
        }
      ],
      "payable": false,
      "stateMutability": "view",
      "type": "function",
      "signature": "0xfe145fbd"
    },
    {
      "inputs": [
        {
          "name": "_player1",
          "type": "address"
        },
        {
          "name": "_player2",
          "type": "address"
        },
        {
          "name": "cardsAddress",
          "type": "address"
        }
      ],
      "payable": false,
      "stateMutability": "nonpayable",
      "type": "constructor",
      "signature": "constructor"
    },
    {
      "anonymous": false,
      "inputs": [
        {
          "indexed": false,
          "name": "move",
          "type": "uint8"
        },
        {
          "indexed": false,
          "name": "attachCardId",
          "type": "uint256"
        },
        {
          "components": [
            {
              "name": "cardId",
              "type": "uint256"
            },
            {
              "name": "health",
              "type": "uint16"
            },
            {
              "name": "defence",
              "type": "uint16"
            },
            {
              "name": "mana",
              "type": "uint16"
            },
            {
              "name": "attack",
              "type": "uint16"
            },
            {
              "name": "specialAttack",
              "type": "uint16"
            }
          ],
          "indexed": false,
          "name": "playerDefenceCard",
          "type": "tuple"
        },
        {
          "indexed": false,
          "name": "nextPlayer",
          "type": "address"
        }
      ],
      "name": "Turn",
      "type": "event",
      "signature": "0x5f4bfc4bb3efc8381128908c65dba16d774750a4508f87b52ed63512630609f9"
    },
    {
      "anonymous": false,
      "inputs": [
        {
          "indexed": false,
          "name": "winningPlayer",
          "type": "address"
        }
      ],
      "name": "EndGame",
      "type": "event",
      "signature": "0xc50f4648fa14be3ee68f160a224cc5d77eeeac58ea500c6fb63fac6788afb0be"
    },
    {
      "anonymous": false,
      "inputs": [
        {
          "indexed": false,
          "name": "desiredCards",
          "type": "uint256[5]"
        },
        {
          "indexed": false,
          "name": "pickedCards",
          "type": "uint256[3]"
        }
      ],
      "name": "PickPayerCards",
      "type": "event",
      "signature": "0x48ca02657a8acb3a062f53bf24ca611bb25d8108f29f5e3c5e468080a44dca5d"
    },
    {
      "constant": false,
      "inputs": [
        {
          "name": "move",
          "type": "uint8"
        }
      ],
      "name": "turn",
      "outputs": [],
      "payable": false,
      "stateMutability": "nonpayable",
      "type": "function",
      "signature": "0x2e535940"
    },
    {
      "constant": false,
      "inputs": [
        {
          "name": "_winningPlayer",
          "type": "address"
        }
      ],
      "name": "endGame",
      "outputs": [],
      "payable": false,
      "stateMutability": "nonpayable",
      "type": "function",
      "signature": "0x2a035b6c"
    }
  ],
  "bytecode": "0x60806040523480156200001157600080fd5b506040516060806200352483398101806040526200003391908101906200011a565b82828282600160006101000a81548173ffffffffffffffffffffffffffffffffffffffff021916908373ffffffffffffffffffffffffffffffffffffffff16021790555081600260006101000a81548173ffffffffffffffffffffffffffffffffffffffff021916908373ffffffffffffffffffffffffffffffffffffffff160217905550806000806101000a81548173ffffffffffffffffffffffffffffffffffffffff021916908373ffffffffffffffffffffffffffffffffffffffff160217905550505050505050620001a4565b600062000112825162000190565b905092915050565b6000806000606084860312156200013057600080fd5b6000620001408682870162000104565b9350506020620001538682870162000104565b9250506040620001668682870162000104565b9150509250925092565b600073ffffffffffffffffffffffffffffffffffffffff82169050919050565b60006200019d8262000170565b9050919050565b61337080620001b46000396000f3fe608060405234801561001057600080fd5b50600436106100ec576000357c01000000000000000000000000000000000000000000000000000000009004806359a5f12d116100a9578063d30895e411610083578063d30895e41461022f578063d7eb798c1461024d578063e4b6c9921461026b578063fe145fbd1461029b576100ec565b806359a5f12d146101c35780635ad39846146101e1578063c0d35449146101ff576100ec565b806306880689146100f15780632a035b6c1461010f5780632af1e2f81461012b5780632e5359401461015b57806348373963146101775780634ed6144614610193575b600080fd5b6100f96102cb565b6040516101069190612ebf565b60405180910390f35b61012960048036036101249190810190612888565b6102f1565b005b61014560048036036101409190810190612888565b6103d0565b60405161015291906130b9565b60405180910390f35b6101756004803603610170919081019061291b565b610429565b005b610191600480360361018c91908101906128f2565b611135565b005b6101ad60048036036101a891908101906128b1565b6114e0565b6040516101ba9190613083565b60405180910390f35b6101cb611612565b6040516101d89190612ebf565b60405180910390f35b6101e9611638565b6040516101f69190612ebf565b60405180910390f35b61021960048036036102149190810190612888565b61165e565b6040516102269190613061565b60405180910390f35b6102376117de565b6040516102449190612ebf565b60405180910390f35b610255611804565b6040516102629190612f04565b60405180910390f35b61028560048036036102809190810190612888565b611817565b60405161029291906130b9565b60405180910390f35b6102b560048036036102b09190810190612888565b611842565b6040516102c29190613046565b60405180910390f35b600460019054906101000a900473ffffffffffffffffffffffffffffffffffffffff1681565b80600560006101000a81548173ffffffffffffffffffffffffffffffffffffffff021916908373ffffffffffffffffffffffffffffffffffffffff1602179055506000600460016101000a81548173ffffffffffffffffffffffffffffffffffffffff021916908373ffffffffffffffffffffffffffffffffffffffff1602179055507fc50f4648fa14be3ee68f160a224cc5d77eeeac58ea500c6fb63fac6788afb0be600560009054906101000a900473ffffffffffffffffffffffffffffffffffffffff166040516103c59190612ebf565b60405180910390a150565b6000600360008373ffffffffffffffffffffffffffffffffffffffff1673ffffffffffffffffffffffffffffffffffffffff16815260200190815260200160002060010160009054906101000a900460ff169050919050565b3373ffffffffffffffffffffffffffffffffffffffff16600460019054906101000a900473ffffffffffffffffffffffffffffffffffffffff1673ffffffffffffffffffffffffffffffffffffffff161415156104bb576040517f08c379a00000000000000000000000000000000000000000000000000000000081526004016104b290612fc6565b60405180910390fd5b600060036000600160009054906101000a900473ffffffffffffffffffffffffffffffffffffffff1673ffffffffffffffffffffffffffffffffffffffff1673ffffffffffffffffffffffffffffffffffffffff16815260200190815260200160002060000160036000600160009054906101000a900473ffffffffffffffffffffffffffffffffffffffff1673ffffffffffffffffffffffffffffffffffffffff1673ffffffffffffffffffffffffffffffffffffffff16815260200190815260200160002060010160009054906101000a900460ff1660ff168154811015156105a257fe5b90600052602060002090600202019050600060036000600260009054906101000a900473ffffffffffffffffffffffffffffffffffffffff1673ffffffffffffffffffffffffffffffffffffffff1673ffffffffffffffffffffffffffffffffffffffff16815260200190815260200160002060000160036000600260009054906101000a900473ffffffffffffffffffffffffffffffffffffffff1673ffffffffffffffffffffffffffffffffffffffff1673ffffffffffffffffffffffffffffffffffffffff16815260200190815260200160002060010160009054906101000a900460ff1660ff1681548110151561069957fe5b90600052602060002090600202019050600060036000600260009054906101000a900473ffffffffffffffffffffffffffffffffffffffff1673ffffffffffffffffffffffffffffffffffffffff1673ffffffffffffffffffffffffffffffffffffffff16815260200190815260200160002090506000600260009054906101000a900473ffffffffffffffffffffffffffffffffffffffff169050600260009054906101000a900473ffffffffffffffffffffffffffffffffffffffff1673ffffffffffffffffffffffffffffffffffffffff16600460019054906101000a900473ffffffffffffffffffffffffffffffffffffffff1673ffffffffffffffffffffffffffffffffffffffff161415610a245760036000600260009054906101000a900473ffffffffffffffffffffffffffffffffffffffff1673ffffffffffffffffffffffffffffffffffffffff1673ffffffffffffffffffffffffffffffffffffffff16815260200190815260200160002060000160036000600260009054906101000a900473ffffffffffffffffffffffffffffffffffffffff1673ffffffffffffffffffffffffffffffffffffffff1673ffffffffffffffffffffffffffffffffffffffff16815260200190815260200160002060010160009054906101000a900460ff1660ff1681548110151561089257fe5b9060005260206000209060020201935060036000600160009054906101000a900473ffffffffffffffffffffffffffffffffffffffff1673ffffffffffffffffffffffffffffffffffffffff1673ffffffffffffffffffffffffffffffffffffffff16815260200190815260200160002060000160036000600160009054906101000a900473ffffffffffffffffffffffffffffffffffffffff1673ffffffffffffffffffffffffffffffffffffffff1673ffffffffffffffffffffffffffffffffffffffff16815260200190815260200160002060010160009054906101000a900460ff1660ff1681548110151561098757fe5b9060005260206000209060020201925060036000600160009054906101000a900473ffffffffffffffffffffffffffffffffffffffff1673ffffffffffffffffffffffffffffffffffffffff1673ffffffffffffffffffffffffffffffffffffffff1681526020019081526020016000209150600160009054906101000a900473ffffffffffffffffffffffffffffffffffffffff169050610ad9565b600160009054906101000a900473ffffffffffffffffffffffffffffffffffffffff1673ffffffffffffffffffffffffffffffffffffffff16600460019054906101000a900473ffffffffffffffffffffffffffffffffffffffff1673ffffffffffffffffffffffffffffffffffffffff16141515610ad8576040517f08c379a0000000000000000000000000000000000000000000000000000000008152600401610acf90612fa6565b60405180910390fd5b5b6000806002811115610ae757fe5b866002811115610af357fe5b1415610b4f5760018560010160049054906101000a900461ffff16018560010160046101000a81548161ffff021916908361ffff160217905550610b4a8560010160069054906101000a900461ffff1685856119bc565b6110ab565b60016002811115610b5c57fe5b866002811115610b6857fe5b1415610b9057610b8b8560010160089054906101000a900461ffff1685856119bc565b6110aa565b600280811115610b9c57fe5b866002811115610ba857fe5b141561106e57610bb661227a565b6000809054906101000a900473ffffffffffffffffffffffffffffffffffffffff1673ffffffffffffffffffffffffffffffffffffffff16639188d31287600001546040518263ffffffff167c0100000000000000000000000000000000000000000000000000000000028152600401610c30919061309e565b600060405180830381600087803b158015610c4a57600080fd5b505af1158015610c5e573d6000803e3d6000fd5b505050506040513d6000823e3d601f19601f82011682018060405250610c879190810190612944565b905080602001516060015161ffff1660018760010160049054906101000a900461ffff160161ffff1610151515610cf3576040517f08c379a0000000000000000000000000000000000000000000000000000000008152600401610cea90613026565b60405180910390fd5b6000809050610d1f60018860010160049054906101000a900461ffff1601836020015160600151611c14565b8860010160048294508391906101000a81548161ffff021916908361ffff1602179055505050610d4d6122de565b8260200151602001519050610d606122de565b8360200151604001519050610d8b8860010160009054906101000a900461ffff168360000151611c14565b8960010160008296508391906101000a81548161ffff021916908361ffff1602179055505050610dd18860010160029054906101000a900461ffff168360200151611c14565b8960010160028296508391906101000a81548161ffff021916908361ffff1602179055505050610e178860010160049054906101000a900461ffff168360400151611c14565b8960010160048296508391906101000a81548161ffff021916908361ffff1602179055505050610e5d8860010160069054906101000a900461ffff168360600151611c14565b8960010160068296508391906101000a81548161ffff021916908361ffff1602179055505050610ea38860010160089054906101000a900461ffff168360800151611c14565b8960010160088296508391906101000a81548161ffff021916908361ffff160217905550505060008860010160009054906101000a900461ffff1661ffff161415610f525760018760000180549050038760010160009054906101000a900460ff1660ff161415610f1c57610f17336102f1565b610f51565b86600101600081819054906101000a900460ff168092919060010191906101000a81548160ff021916908360ff160217905550505b5b80600001518960010160009054906101000a900461ffff16018960010160006101000a81548161ffff021916908361ffff16021790555080602001518960010160029054906101000a900461ffff16018960010160026101000a81548161ffff021916908361ffff16021790555080604001518960010160049054906101000a900461ffff16018960010160046101000a81548161ffff021916908361ffff16021790555080606001518960010160069054906101000a900461ffff16018960010160066101000a81548161ffff021916908361ffff16021790555080608001518960010160089054906101000a900461ffff16018960010160086101000a81548161ffff021916908361ffff160217905550505050506110a9565b6040517f08c379a00000000000000000000000000000000000000000000000000000000081526004016110a090612f86565b60405180910390fd5b5b5b81600460016101000a81548173ffffffffffffffffffffffffffffffffffffffff021916908373ffffffffffffffffffffffffffffffffffffffff1602179055507f5f4bfc4bb3efc8381128908c65dba16d774750a4508f87b52ed63512630609f986866000015486856040516111259493929190612f1f565b60405180910390a1505050505050565b6000600360003373ffffffffffffffffffffffffffffffffffffffff1673ffffffffffffffffffffffffffffffffffffffff1681526020019081526020016000206000019050600081805490501415156111c4576040517f08c379a00000000000000000000000000000000000000000000000000000000081526004016111bb90612fe6565b60405180910390fd5b3373ffffffffffffffffffffffffffffffffffffffff16600160009054906101000a900473ffffffffffffffffffffffffffffffffffffffff1673ffffffffffffffffffffffffffffffffffffffff1614156112ab57600060036000600260009054906101000a900473ffffffffffffffffffffffffffffffffffffffff1673ffffffffffffffffffffffffffffffffffffffff1673ffffffffffffffffffffffffffffffffffffffff1681526020019081526020016000206000018054905011156112a6576001600460006101000a81548160ff0219169083151502179055505b6113ce565b3373ffffffffffffffffffffffffffffffffffffffff16600260009054906101000a900473ffffffffffffffffffffffffffffffffffffffff1673ffffffffffffffffffffffffffffffffffffffff16141561139257600060036000600160009054906101000a900473ffffffffffffffffffffffffffffffffffffffff1673ffffffffffffffffffffffffffffffffffffffff1673ffffffffffffffffffffffffffffffffffffffff16815260200190815260200160002060000180549050111561138d576001600460006101000a81548160ff0219169083151502179055505b6113cd565b6040517f08c379a00000000000000000000000000000000000000000000000000000000081526004016113c490613006565b60405180910390fd5b5b6113d6612322565b6060604051908101604052808460006005811015156113f157fe5b6020020151815260200184600160058110151561140a57fe5b6020020151815260200184600260058110151561142357fe5b6020020151815250905061144a8284600060058110151561144057fe5b6020020151611c4c565b6114678284600160058110151561145d57fe5b6020020151611c4c565b6114848284600260058110151561147a57fe5b6020020151611c4c565b7f48ca02657a8acb3a062f53bf24ca611bb25d8108f29f5e3c5e468080a44dca5d83826040516114b5929190612eda565b60405180910390a1600460009054906101000a900460ff16156114db576114da611e66565b5b505050565b6000806000905060008090505b83518110156116085760008060009054906101000a900473ffffffffffffffffffffffffffffffffffffffff1673ffffffffffffffffffffffffffffffffffffffff16639188d312868481518110151561154357fe5b90602001906020020151600001516040518263ffffffff167c0100000000000000000000000000000000000000000000000000000000028152600401611589919061309e565b600060405180830381600087803b1580156115a357600080fd5b505af11580156115b7573d6000803e3d6000fd5b505050506040513d6000823e3d601f19601f820116820180604052506115e09190810190612944565b60a0015190508261ffff168161ffff1611156115fa578092505b5080806001019150506114ed565b5080915050919050565b600260009054906101000a900473ffffffffffffffffffffffffffffffffffffffff1681565b600560009054906101000a900473ffffffffffffffffffffffffffffffffffffffff1681565b611666612345565b600360008373ffffffffffffffffffffffffffffffffffffffff1673ffffffffffffffffffffffffffffffffffffffff16815260200190815260200160002060408051908101604052908160008201805480602002602001604051908101604052809291908181526020016000905b828210156117b2578382906000526020600020906002020160c06040519081016040529081600082015481526020016001820160009054906101000a900461ffff1661ffff1661ffff1681526020016001820160029054906101000a900461ffff1661ffff1661ffff1681526020016001820160049054906101000a900461ffff1661ffff1661ffff1681526020016001820160069054906101000a900461ffff1661ffff1661ffff1681526020016001820160089054906101000a900461ffff1661ffff1661ffff1681525050815260200190600101906116d5565b5050505081526020016001820160009054906101000a900460ff1660ff1660ff16815250509050919050565b600160009054906101000a900473ffffffffffffffffffffffffffffffffffffffff1681565b600460009054906101000a900460ff1681565b60036020528060005260406000206000915090508060010160009054906101000a900460ff16905081565b61184a612362565b6000600360008473ffffffffffffffffffffffffffffffffffffffff1673ffffffffffffffffffffffffffffffffffffffff16815260200190815260200160002060010160009054906101000a900460ff169050600360008473ffffffffffffffffffffffffffffffffffffffff1673ffffffffffffffffffffffffffffffffffffffff1681526020019081526020016000206000018160ff168154811015156118f057fe5b906000526020600020906002020160c06040519081016040529081600082015481526020016001820160009054906101000a900461ffff1661ffff1661ffff1681526020016001820160029054906101000a900461ffff1661ffff1661ffff1681526020016001820160049054906101000a900461ffff1661ffff1661ffff1681526020016001820160069054906101000a900461ffff1661ffff1661ffff1681526020016001820160089054906101000a900461ffff1661ffff1661ffff1681525050915050919050565b6000808360010160029054906101000a900461ffff1661ffff161115611b1f576119f88360010160029054906101000a900461ffff1685611c14565b8460010160028294508391906101000a81548161ffff021916908361ffff160217905550505060008161ffff161115611b1a57611a478360010160009054906101000a900461ffff1682611c14565b8460010160008294508391906101000a81548161ffff021916908361ffff160217905550505060008161ffff161115611b195781600101600081819054906101000a900460ff168092919060010191906101000a81548160ff021916908360ff1602179055505081600001805490508260010160009054906101000a900460ff1660ff161115611adb57611ada336102f1565b5b611b1881836000018460010160009054906101000a900460ff1660ff16815481101515611b0457fe5b9060005260206000209060020201846119bc565b5b5b611c0e565b611b3b8360010160009054906101000a900461ffff1685611c14565b8460010160008294508391906101000a81548161ffff021916908361ffff160217905550505060008161ffff161115611c0d5781600101600081819054906101000a900460ff168092919060010191906101000a81548160ff021916908360ff1602179055505081600001805490508260010160009054906101000a900460ff1660ff161115611bcf57611bce336102f1565b5b611c0c81836000018460010160009054906101000a900460ff1660ff16815481101515611bf857fe5b9060005260206000209060020201846119bc565b5b5b50505050565b6000808361ffff168361ffff161115611c3857600084840381915091509150611c45565b8284036000809050915091505b9250929050565b611c5461227a565b6000809054906101000a900473ffffffffffffffffffffffffffffffffffffffff1673ffffffffffffffffffffffffffffffffffffffff16639188d312836040518263ffffffff167c0100000000000000000000000000000000000000000000000000000000028152600401611cca919061309e565b600060405180830381600087803b158015611ce457600080fd5b505af1158015611cf8573d6000803e3d6000fd5b505050506040513d6000823e3d601f19601f82011682018060405250611d219190810190612944565b90508260c060405190810160405280848152602001836040015161ffff168152602001836060015161ffff168152602001836080015161ffff1681526020018360c0015161ffff1681526020018360e0015161ffff16815250908060018154018082558091505090600182039060005260206000209060020201600090919290919091506000820151816000015560208201518160010160006101000a81548161ffff021916908361ffff16021790555060408201518160010160026101000a81548161ffff021916908361ffff16021790555060608201518160010160046101000a81548161ffff021916908361ffff16021790555060808201518160010160066101000a81548161ffff021916908361ffff16021790555060a08201518160010160086101000a81548161ffff021916908361ffff160217905550505050505050565b600460009054906101000a900460ff161515611eb7576040517f08c379a0000000000000000000000000000000000000000000000000000000008152600401611eae90612f66565b60405180910390fd5b600061202660036000600160009054906101000a900473ffffffffffffffffffffffffffffffffffffffff1673ffffffffffffffffffffffffffffffffffffffff1673ffffffffffffffffffffffffffffffffffffffff168152602001908152602001600020600001805480602002602001604051908101604052809291908181526020016000905b8282101561201d578382906000526020600020906002020160c06040519081016040529081600082015481526020016001820160009054906101000a900461ffff1661ffff1661ffff1681526020016001820160029054906101000a900461ffff1661ffff1661ffff1681526020016001820160049054906101000a900461ffff1661ffff1661ffff1681526020016001820160069054906101000a900461ffff1661ffff1661ffff1681526020016001820160089054906101000a900461ffff1661ffff1661ffff168152505081526020019060010190611f40565b505050506114e0565b9050600061219760036000600260009054906101000a900473ffffffffffffffffffffffffffffffffffffffff1673ffffffffffffffffffffffffffffffffffffffff1673ffffffffffffffffffffffffffffffffffffffff168152602001908152602001600020600001805480602002602001604051908101604052809291908181526020016000905b8282101561218e578382906000526020600020906002020160c06040519081016040529081600082015481526020016001820160009054906101000a900461ffff1661ffff1661ffff1681526020016001820160029054906101000a900461ffff1661ffff1661ffff1681526020016001820160049054906101000a900461ffff1661ffff1661ffff1681526020016001820160069054906101000a900461ffff1661ffff1661ffff1681526020016001820160089054906101000a900461ffff1661ffff1661ffff1681525050815260200190600101906120b1565b505050506114e0565b90508061ffff168261ffff1610151561221257600160009054906101000a900473ffffffffffffffffffffffffffffffffffffffff16600460016101000a81548173ffffffffffffffffffffffffffffffffffffffff021916908373ffffffffffffffffffffffffffffffffffffffff160217905550612276565b600260009054906101000a900473ffffffffffffffffffffffffffffffffffffffff16600460016101000a81548173ffffffffffffffffffffffffffffffffffffffff021916908373ffffffffffffffffffffffffffffffffffffffff1602179055505b5050565b61026060405190810160405280606081526020016122966123ad565b8152602001600061ffff168152602001600061ffff168152602001600061ffff168152602001600061ffff168152602001600061ffff168152602001600061ffff1681525090565b60a060405190810160405280600061ffff168152602001600061ffff168152602001600061ffff168152602001600061ffff168152602001600061ffff1681525090565b606060405190810160405280600390602082028038833980820191505090505090565b604080519081016040528060608152602001600060ff1681525090565b60c06040519081016040528060008152602001600061ffff168152602001600061ffff168152602001600061ffff168152602001600061ffff168152602001600061ffff1681525090565b61018060405190810160405280606081526020016123c96123e7565b81526020016123d66123e7565b8152602001600061ffff1681525090565b60a060405190810160405280600061ffff168152602001600061ffff168152602001600061ffff168152602001600061ffff168152602001600061ffff1681525090565b60006124378235613259565b905092915050565b600082601f830112151561245257600080fd5b813561246561246082613101565b6130d4565b915081818352602084019350602081019050838560c084028201111561248a57600080fd5b60005b838110156124ba57816124a088826127b0565b845260208401935060c0830192505060018101905061248d565b5050505092915050565b600082601f83011215156124d757600080fd5b60056124ea6124e582613129565b6130d4565b9150818385602084028201111561250057600080fd5b60005b8381101561253057816125168882612874565b845260208401935060208301925050600181019050612503565b5050505092915050565b6000612546823561326b565b905092915050565b600082601f830112151561256157600080fd5b815161257461256f8261314b565b6130d4565b9150808252602083016020830185838301111561259057600080fd5b61259b8382846132ae565b50505092915050565b600061018082840312156125b757600080fd5b6125c160806130d4565b9050600082015167ffffffffffffffff8111156125dd57600080fd5b6125e98482850161254e565b60008301525060206125fd84828501612632565b60208301525060c061261184828501612632565b60408301525061016061262684828501612860565b60608301525092915050565b600060a0828403121561264457600080fd5b61264e60a06130d4565b9050600061265e84828501612860565b600083015250602061267284828501612860565b602083015250604061268684828501612860565b604083015250606061269a84828501612860565b60608301525060806126ae84828501612860565b60808301525092915050565b600061010082840312156126cd57600080fd5b6126d86101006130d4565b9050600082015167ffffffffffffffff8111156126f457600080fd5b6127008482850161254e565b600083015250602082015167ffffffffffffffff81111561272057600080fd5b61272c848285016125a4565b602083015250604061274084828501612860565b604083015250606061275484828501612860565b606083015250608061276884828501612860565b60808301525060a061277c84828501612860565b60a08301525060c061279084828501612860565b60c08301525060e06127a484828501612860565b60e08301525092915050565b600060c082840312156127c257600080fd5b6127cc60c06130d4565b905060006127dc84828501612874565b60008301525060206127f08482850161284c565b60208301525060406128048482850161284c565b60408301525060606128188482850161284c565b606083015250608061282c8482850161284c565b60808301525060a06128408482850161284c565b60a08301525092915050565b60006128588235613284565b905092915050565b600061286c8251613284565b905092915050565b60006128808235613292565b905092915050565b60006020828403121561289a57600080fd5b60006128a88482850161242b565b91505092915050565b6000602082840312156128c357600080fd5b600082013567ffffffffffffffff8111156128dd57600080fd5b6128e98482850161243f565b91505092915050565b600060a0828403121561290457600080fd5b6000612912848285016124c4565b91505092915050565b60006020828403121561292d57600080fd5b600061293b8482850161253a565b91505092915050565b60006020828403121561295657600080fd5b600082015167ffffffffffffffff81111561297057600080fd5b61297c848285016126ba565b91505092915050565b61298e816131e0565b82525050565b600061299f82613198565b8084526020840193506129b183613177565b60005b828110156129e3576129c7868351612d37565b6129d0826131b9565b915060c0860195506001810190506129b4565b50849250505092915050565b6129f8816131a3565b612a0182613184565b60005b82811015612a3357612a17858351612ea1565b612a20826131c6565b9150602085019450600181019050612a04565b5050505050565b612a43816131ae565b612a4c8261318e565b60005b82811015612a7e57612a62858351612ea1565b612a6b826131d3565b9150602085019450600181019050612a4f565b5050505050565b612a8e816131f2565b82525050565b612a9d8161329c565b82525050565b6000602c82527f426f746820706c6179657273206861766520746f2068617665207069636b656460208301527f20746865697220636172647300000000000000000000000000000000000000006040830152606082019050919050565b6000600c82527f496e76616c6964206d6f766500000000000000000000000000000000000000006020830152604082019050919050565b6000602982527f706c6179657273207475726e20646f6573206e6f7420657175616c206569746860208301527f657220706c6179657200000000000000000000000000000000000000000000006040830152606082019050919050565b6000600d82527f4e6f7420796f7572207475726e000000000000000000000000000000000000006020830152604082019050919050565b6000602582527f506c617965722068617320616c7265616479207069636b65642074686569722060208301527f63617264730000000000000000000000000000000000000000000000000000006040830152606082019050919050565b6000602882527f5472616e73616374696f6e2073656e646572206d75737420626520706c61796560208301527f722031206f7220320000000000000000000000000000000000000000000000006040830152606082019050919050565b6000600f82527f4e6f7420656e6f756768206d616e6100000000000000000000000000000000006020830152604082019050919050565b60c082016000820151612cd26000850182612ea1565b506020820151612ce56020850182612e92565b506040820151612cf86040850182612e92565b506060820151612d0b6060850182612e92565b506080820151612d1e6080850182612e92565b5060a0820151612d3160a0850182612e92565b50505050565b60c082016000820151612d4d6000850182612ea1565b506020820151612d606020850182612e92565b506040820151612d736040850182612e92565b506060820151612d866060850182612e92565b506080820151612d996080850182612e92565b5060a0820151612dac60a0850182612e92565b50505050565b60c082016000808301549050612dc7816132e1565b612dd46000860182612ea1565b5060018301549050612de5816132e1565b612df26020860182612e92565b50612dfc816132ee565b612e096040860182612e92565b50612e13816132fd565b612e206060860182612e92565b50612e2a8161330e565b612e376080860182612e92565b50612e4181613321565b612e4e60a0860182612e92565b5050505050565b60006040830160008301518482036000860152612e728282612994565b9150506020830151612e876020860182612eb0565b508091505092915050565b612e9b81613214565b82525050565b612eaa81613242565b82525050565b612eb98161324c565b82525050565b6000602082019050612ed46000830184612985565b92915050565b600061010082019050612ef06000830185612a3a565b612efd60a08301846129ef565b9392505050565b6000602082019050612f196000830184612a85565b92915050565b600061012082019050612f356000830187612a94565b612f426020830186612ea1565b612f4f6040830185612db2565b612f5d610100830184612985565b95945050505050565b60006020820190508181036000830152612f7f81612aa3565b9050919050565b60006020820190508181036000830152612f9f81612b00565b9050919050565b60006020820190508181036000830152612fbf81612b37565b9050919050565b60006020820190508181036000830152612fdf81612b94565b9050919050565b60006020820190508181036000830152612fff81612bcb565b9050919050565b6000602082019050818103600083015261301f81612c28565b9050919050565b6000602082019050818103600083015261303f81612c85565b9050919050565b600060c08201905061305b6000830184612cbc565b92915050565b6000602082019050818103600083015261307b8184612e55565b905092915050565b60006020820190506130986000830184612e92565b92915050565b60006020820190506130b36000830184612ea1565b92915050565b60006020820190506130ce6000830184612eb0565b92915050565b6000604051905081810181811067ffffffffffffffff821117156130f757600080fd5b8060405250919050565b600067ffffffffffffffff82111561311857600080fd5b602082029050602081019050919050565b600067ffffffffffffffff82111561314057600080fd5b602082029050919050565b600067ffffffffffffffff82111561316257600080fd5b601f19601f8301169050602081019050919050565b6000602082019050919050565b6000819050919050565b6000819050919050565b600081519050919050565b600060039050919050565b600060059050919050565b6000602082019050919050565b6000602082019050919050565b6000602082019050919050565b60006131eb82613222565b9050919050565b60008115159050919050565b600060038210151561320c57fe5b819050919050565b600061ffff82169050919050565b600073ffffffffffffffffffffffffffffffffffffffff82169050919050565b6000819050919050565b600060ff82169050919050565b600061326482613222565b9050919050565b600060038210151561327c57600080fd5b819050919050565b600061ffff82169050919050565b6000819050919050565b60006132a7826131fe565b9050919050565b60005b838110156132cc5780820151818401526020810190506132b1565b838111156132db576000848401525b50505050565b6000600182049050919050565b60006201000082049050919050565b600064010000000082049050919050565b6000660100000000000082049050919050565b6000680100000000000000008204905091905056fea265627a7a72305820a6cd23f7cbfcc0f83d8a14cdc455410a9e50d9a93a52fe3f791f561abecabafa6c6578706572696d656e74616cf50037",
  "source": "pragma solidity ^0.5.2;\npragma experimental ABIEncoderV2;\n\nimport {PlayerCardsPick} from \"./PlayerCardsPick.sol\";\nimport {Cards} from \"./Cards.sol\";\nimport {MathUtils} from \"./MathUtils.sol\";\n\ncontract BattlePick is PlayerCardsPick {\n\n    enum Move {\n        Attack,\n        SpecialAttack,\n        Ability\n    }\n\n    uint16 constant turnDefenceIncrease = 30;\n\n    address public winningPlayer;\n\n    event Turn(Move move, uint attachCardId, PlayerCard playerDefenceCard, address nextPlayer);\n    event EndGame(address winningPlayer);\n    \n    constructor(address _player1, address _player2, address cardsAddress) public\n        PlayerCardsPick(_player1, _player2, cardsAddress)\n    {}\n\n    function turn(Move move) public {\n        require(playersTurn == msg.sender, \"Not your turn\");\n\n        // Assume playersTurn == player1 as Solidity does not allow uninitialized storage pointers\n        PlayerCard storage playerAttackCard = playerDecks[player1].playerCards[playerDecks[player1].currentCard];\n        PlayerCard storage playerDefenceCard = playerDecks[player2].playerCards[playerDecks[player2].currentCard];\n        PlayerDeck storage defenceDeck = playerDecks[player2];\n        address nextPlayer = player2;\n        // if (playersTurn == player1) {\n        //     playerAttackCard = player1Cards[currentCardPlayer1];\n        //     playerDefenceCard = player2Cards[currentCardPlayer2];\n        //     nextPlayer = player2;\n        // } else \n        if (playersTurn == player2) {\n            playerAttackCard = playerDecks[player2].playerCards[playerDecks[player2].currentCard];\n            playerDefenceCard = playerDecks[player1].playerCards[playerDecks[player1].currentCard];\n            defenceDeck = playerDecks[player1];\n            nextPlayer = player1;\n        } else if (playersTurn != player1) {\n            revert('players turn does not equal either player');\n        }\n\n        // move logic\n        uint16 remainingAttackAmount;\n        if (move == Move.Attack) {\n            playerAttackCard.mana = playerAttackCard.mana + 1;\n\n            // attack the defence and then health of the opponent\n            attack(playerAttackCard.attack, playerDefenceCard, defenceDeck);\n        } else if (move == Move.SpecialAttack) {\n\n            // attack the defence and then health of the opponent\n            attack(playerAttackCard.specialAttack, playerDefenceCard, defenceDeck);\n\n        } else if (move == Move.Ability) {\n\n            Card memory attackCard = cardsContract.getCard(playerAttackCard.cardId);\n\n            require(playerAttackCard.mana + 1 >= attackCard.ability.manaCost, 'Not enough mana');\n\n            uint16 remainder = 0;\n            (playerAttackCard.mana, remainder) = MathUtils.subToZero(playerAttackCard.mana + 1, attackCard.ability.manaCost);\n\n            Cards.CardProperties memory opponentAbility = attackCard.ability.opponent;\n            Cards.CardProperties memory playerAbility = attackCard.ability.player;\n\n            // reduce opponents current card\n            (playerDefenceCard.health, remainder) = MathUtils.subToZero(playerDefenceCard.health, opponentAbility.health);\n            (playerDefenceCard.defence, remainder) = MathUtils.subToZero(playerDefenceCard.defence, opponentAbility.defence);\n            (playerDefenceCard.mana, remainder) = MathUtils.subToZero(playerDefenceCard.mana, opponentAbility.mana);\n            (playerDefenceCard.attack, remainder) = MathUtils.subToZero(playerDefenceCard.attack, opponentAbility.attack);\n            (playerDefenceCard.specialAttack, remainder) = MathUtils.subToZero(playerDefenceCard.specialAttack, opponentAbility.specialAttack);\n\n            // if opponent health went to zero\n            if (playerDefenceCard.health == 0) {\n                // if last card in defence deck\n                if  (defenceDeck.currentCard == defenceDeck.playerCards.length - 1) {\n                    endGame(msg.sender);\n                } else {\n                    defenceDeck.currentCard++;\n                }\n            }\n\n            // boost your current card\n            playerAttackCard.health = playerAttackCard.health + playerAbility.health;\n            playerAttackCard.defence = playerAttackCard.defence + playerAbility.defence;\n            playerAttackCard.mana = playerAttackCard.mana + playerAbility.mana;\n            playerAttackCard.attack = playerAttackCard.attack + playerAbility.attack;\n            playerAttackCard.specialAttack = playerAttackCard.specialAttack + playerAbility.specialAttack;\n        }\n        else {\n            revert('Invalid move');\n        }\n        \n        playersTurn = nextPlayer;\n\n        emit Turn(move, playerAttackCard.cardId, playerDefenceCard, nextPlayer);\n    }\n\n    // Attacked the defence and then health of the opponent\n    function attack(uint16 attackAmount, PlayerCard storage playerDefenceCard, PlayerDeck storage defenceDeck) internal {\n        uint16 remainingAttackAmount;\n\n        if (playerDefenceCard.defence > 0) {\n            (playerDefenceCard.defence, remainingAttackAmount) = MathUtils.subToZero(playerDefenceCard.defence, attackAmount);\n\n            if (remainingAttackAmount > 0) {\n                (playerDefenceCard.health, remainingAttackAmount) = MathUtils.subToZero(playerDefenceCard.health, remainingAttackAmount);\n\n                if (remainingAttackAmount > 0) {\n                    defenceDeck.currentCard++;\n                    if (defenceDeck.currentCard > defenceDeck.playerCards.length) {\n                        endGame(msg.sender);\n                    }\n                    attack(remainingAttackAmount, defenceDeck.playerCards[defenceDeck.currentCard], defenceDeck);\n                }\n            }\n        } else {\n\n            (playerDefenceCard.health, remainingAttackAmount) = MathUtils.subToZero(playerDefenceCard.health, attackAmount);\n\n            if (remainingAttackAmount > 0) {\n                defenceDeck.currentCard++;\n                if (defenceDeck.currentCard > defenceDeck.playerCards.length) {\n                    endGame(msg.sender);\n                }\n                attack(remainingAttackAmount, defenceDeck.playerCards[defenceDeck.currentCard], defenceDeck);\n            }\n        }\n    }\n\n    function endGame(address _winningPlayer) public {\n        winningPlayer = _winningPlayer;\n        playersTurn = address(0);\n\n        emit EndGame(winningPlayer);\n    }\n}",
  "sourcePath": "/Users/nicholasaddison/Documents/workspaces/scratch/crypto-beasts/contracts/BattlePick.sol",
  "compiler": {
    "name": "solc",
    "version": "0.5.2+commit.1df8f40c.Emscripten.clang"
  },
  "schemaVersion": "3.0.6",
  "updatedAt": "2019-04-20T12:15:51.379Z",
  "devdoc": {
    "methods": {}
  },
  "userdoc": {
    "methods": {}
  }
}