{
  "contractName": "Cards",
  "abi": [
    {
      "constant": false,
      "inputs": [],
      "name": "renounceOwnership",
      "outputs": [],
      "payable": false,
      "stateMutability": "nonpayable",
      "type": "function"
    },
    {
      "constant": true,
      "inputs": [],
      "name": "owner",
      "outputs": [
        {
          "name": "",
          "type": "address"
        }
      ],
      "payable": false,
      "stateMutability": "view",
      "type": "function"
    },
    {
      "constant": true,
      "inputs": [
        {
          "name": "",
          "type": "uint256"
        }
      ],
      "name": "cards",
      "outputs": [
        {
          "name": "name",
          "type": "string"
        },
        {
          "components": [
            {
              "name": "name",
              "type": "string"
            },
            {
              "components": [
                {
                  "name": "health",
                  "type": "uint16"
                },
                {
                  "name": "defence",
                  "type": "uint16"
                },
                {
                  "name": "mana",
                  "type": "uint16"
                },
                {
                  "name": "attack",
                  "type": "uint16"
                },
                {
                  "name": "specialAttack",
                  "type": "uint16"
                }
              ],
              "name": "opponent",
              "type": "tuple"
            },
            {
              "components": [
                {
                  "name": "health",
                  "type": "uint16"
                },
                {
                  "name": "defence",
                  "type": "uint16"
                },
                {
                  "name": "mana",
                  "type": "uint16"
                },
                {
                  "name": "attack",
                  "type": "uint16"
                },
                {
                  "name": "specialAttack",
                  "type": "uint16"
                }
              ],
              "name": "player",
              "type": "tuple"
            },
            {
              "name": "manaCost",
              "type": "uint16"
            }
          ],
          "name": "ability",
          "type": "tuple"
        },
        {
          "name": "initHealth",
          "type": "uint16"
        },
        {
          "name": "initDefence",
          "type": "uint16"
        },
        {
          "name": "initMana",
          "type": "uint16"
        },
        {
          "name": "speed",
          "type": "uint16"
        },
        {
          "name": "attack",
          "type": "uint16"
        },
        {
          "name": "specialAttack",
          "type": "uint16"
        }
      ],
      "payable": false,
      "stateMutability": "view",
      "type": "function"
    },
    {
      "constant": true,
      "inputs": [],
      "name": "isOwner",
      "outputs": [
        {
          "name": "",
          "type": "bool"
        }
      ],
      "payable": false,
      "stateMutability": "view",
      "type": "function"
    },
    {
      "constant": false,
      "inputs": [
        {
          "name": "newOwner",
          "type": "address"
        }
      ],
      "name": "transferOwnership",
      "outputs": [],
      "payable": false,
      "stateMutability": "nonpayable",
      "type": "function"
    },
    {
      "anonymous": false,
      "inputs": [
        {
          "indexed": false,
          "name": "cardId",
          "type": "uint256"
        },
        {
          "components": [
            {
              "name": "name",
              "type": "string"
            },
            {
              "components": [
                {
                  "name": "name",
                  "type": "string"
                },
                {
                  "components": [
                    {
                      "name": "health",
                      "type": "uint16"
                    },
                    {
                      "name": "defence",
                      "type": "uint16"
                    },
                    {
                      "name": "mana",
                      "type": "uint16"
                    },
                    {
                      "name": "attack",
                      "type": "uint16"
                    },
                    {
                      "name": "specialAttack",
                      "type": "uint16"
                    }
                  ],
                  "name": "opponent",
                  "type": "tuple"
                },
                {
                  "components": [
                    {
                      "name": "health",
                      "type": "uint16"
                    },
                    {
                      "name": "defence",
                      "type": "uint16"
                    },
                    {
                      "name": "mana",
                      "type": "uint16"
                    },
                    {
                      "name": "attack",
                      "type": "uint16"
                    },
                    {
                      "name": "specialAttack",
                      "type": "uint16"
                    }
                  ],
                  "name": "player",
                  "type": "tuple"
                },
                {
                  "name": "manaCost",
                  "type": "uint16"
                }
              ],
              "name": "ability",
              "type": "tuple"
            },
            {
              "name": "initHealth",
              "type": "uint16"
            },
            {
              "name": "initDefence",
              "type": "uint16"
            },
            {
              "name": "initMana",
              "type": "uint16"
            },
            {
              "name": "speed",
              "type": "uint16"
            },
            {
              "name": "attack",
              "type": "uint16"
            },
            {
              "name": "specialAttack",
              "type": "uint16"
            }
          ],
          "indexed": false,
          "name": "card",
          "type": "tuple"
        }
      ],
      "name": "NewCard",
      "type": "event"
    },
    {
      "anonymous": false,
      "inputs": [
        {
          "indexed": true,
          "name": "previousOwner",
          "type": "address"
        },
        {
          "indexed": true,
          "name": "newOwner",
          "type": "address"
        }
      ],
      "name": "OwnershipTransferred",
      "type": "event"
    },
    {
      "constant": false,
      "inputs": [
        {
          "components": [
            {
              "name": "name",
              "type": "string"
            },
            {
              "components": [
                {
                  "name": "name",
                  "type": "string"
                },
                {
                  "components": [
                    {
                      "name": "health",
                      "type": "uint16"
                    },
                    {
                      "name": "defence",
                      "type": "uint16"
                    },
                    {
                      "name": "mana",
                      "type": "uint16"
                    },
                    {
                      "name": "attack",
                      "type": "uint16"
                    },
                    {
                      "name": "specialAttack",
                      "type": "uint16"
                    }
                  ],
                  "name": "opponent",
                  "type": "tuple"
                },
                {
                  "components": [
                    {
                      "name": "health",
                      "type": "uint16"
                    },
                    {
                      "name": "defence",
                      "type": "uint16"
                    },
                    {
                      "name": "mana",
                      "type": "uint16"
                    },
                    {
                      "name": "attack",
                      "type": "uint16"
                    },
                    {
                      "name": "specialAttack",
                      "type": "uint16"
                    }
                  ],
                  "name": "player",
                  "type": "tuple"
                },
                {
                  "name": "manaCost",
                  "type": "uint16"
                }
              ],
              "name": "ability",
              "type": "tuple"
            },
            {
              "name": "initHealth",
              "type": "uint16"
            },
            {
              "name": "initDefence",
              "type": "uint16"
            },
            {
              "name": "initMana",
              "type": "uint16"
            },
            {
              "name": "speed",
              "type": "uint16"
            },
            {
              "name": "attack",
              "type": "uint16"
            },
            {
              "name": "specialAttack",
              "type": "uint16"
            }
          ],
          "name": "card",
          "type": "tuple"
        }
      ],
      "name": "createCard",
      "outputs": [],
      "payable": false,
      "stateMutability": "nonpayable",
      "type": "function"
    }
  ],
  "bytecode": "0x6080604052336000806101000a81548173ffffffffffffffffffffffffffffffffffffffff021916908373ffffffffffffffffffffffffffffffffffffffff1602179055506000809054906101000a900473ffffffffffffffffffffffffffffffffffffffff1673ffffffffffffffffffffffffffffffffffffffff16600073ffffffffffffffffffffffffffffffffffffffff167f8be0079c531659141344cd1fd0a4f28419497f9722a3daafe3b4186f6b6457e060405160405180910390a3611281806100cf6000396000f3fe608060405234801561001057600080fd5b506004361061007f576000357c010000000000000000000000000000000000000000000000000000000090048063377b723a14610084578063715018a6146100a05780638da5cb5b146100aa5780638dc10768146100c85780638f32d59b146100ff578063f2fde38b1461011d575b600080fd5b61009e60048036036100999190810190610dbe565b610139565b005b6100a861046d565b005b6100b261053f565b6040516100bf919061101e565b60405180910390f35b6100e260048036036100dd9190810190610dff565b610568565b6040516100f6989796959493929190611054565b60405180910390f35b6101076108e2565b6040516101149190611039565b60405180910390f35b61013760048036036101329190810190610d95565b610939565b005b6101416108e2565b151561014c57600080fd5b600060018083908060018154018082558091505090600182039060005260206000209060060201600090919290919091506000820151816000019080519060200190610199929190610a52565b5060208201518160010160008201518160000190805190602001906101bf929190610a52565b5060208201518160010160008201518160000160006101000a81548161ffff021916908361ffff16021790555060208201518160000160026101000a81548161ffff021916908361ffff16021790555060408201518160000160046101000a81548161ffff021916908361ffff16021790555060608201518160000160066101000a81548161ffff021916908361ffff16021790555060808201518160000160086101000a81548161ffff021916908361ffff160217905550505060408201518160020160008201518160000160006101000a81548161ffff021916908361ffff16021790555060208201518160000160026101000a81548161ffff021916908361ffff16021790555060408201518160000160046101000a81548161ffff021916908361ffff16021790555060608201518160000160066101000a81548161ffff021916908361ffff16021790555060808201518160000160086101000a81548161ffff021916908361ffff160217905550505060608201518160030160006101000a81548161ffff021916908361ffff160217905550505060408201518160050160006101000a81548161ffff021916908361ffff16021790555060608201518160050160026101000a81548161ffff021916908361ffff16021790555060808201518160050160046101000a81548161ffff021916908361ffff16021790555060a08201518160050160066101000a81548161ffff021916908361ffff16021790555060c08201518160050160086101000a81548161ffff021916908361ffff16021790555060e082015181600501600a6101000a81548161ffff021916908361ffff16021790555050500390507fb1b17b23cffcf729d34b26aac4faa18940cec6ac11f34c678d0bfe232b00dc8181836040516104619291906110e0565b60405180910390a15050565b6104756108e2565b151561048057600080fd5b600073ffffffffffffffffffffffffffffffffffffffff166000809054906101000a900473ffffffffffffffffffffffffffffffffffffffff1673ffffffffffffffffffffffffffffffffffffffff167f8be0079c531659141344cd1fd0a4f28419497f9722a3daafe3b4186f6b6457e060405160405180910390a360008060006101000a81548173ffffffffffffffffffffffffffffffffffffffff021916908373ffffffffffffffffffffffffffffffffffffffff160217905550565b60008060009054906101000a900473ffffffffffffffffffffffffffffffffffffffff16905090565b60018181548110151561057757fe5b9060005260206000209060060201600091509050806000018054600181600116156101000203166002900480601f0160208091040260200160405190810160405280929190818152602001828054600181600116156101000203166002900480156106235780601f106105f857610100808354040283529160200191610623565b820191906000526020600020905b81548152906001019060200180831161060657829003601f168201915b5050505050908060010160806040519081016040529081600082018054600181600116156101000203166002900480601f0160208091040260200160405190810160405280929190818152602001828054600181600116156101000203166002900480156106d25780601f106106a7576101008083540402835291602001916106d2565b820191906000526020600020905b8154815290600101906020018083116106b557829003601f168201915b505050505081526020016001820160a060405190810160405290816000820160009054906101000a900461ffff1661ffff1661ffff1681526020016000820160029054906101000a900461ffff1661ffff1661ffff1681526020016000820160049054906101000a900461ffff1661ffff1661ffff1681526020016000820160069054906101000a900461ffff1661ffff1661ffff1681526020016000820160089054906101000a900461ffff1661ffff1661ffff168152505081526020016002820160a060405190810160405290816000820160009054906101000a900461ffff1661ffff1661ffff1681526020016000820160029054906101000a900461ffff1661ffff1661ffff1681526020016000820160049054906101000a900461ffff1661ffff1661ffff1681526020016000820160069054906101000a900461ffff1661ffff1661ffff1681526020016000820160089054906101000a900461ffff1661ffff1661ffff168152505081526020016003820160009054906101000a900461ffff1661ffff1661ffff1681525050908060050160009054906101000a900461ffff16908060050160029054906101000a900461ffff16908060050160049054906101000a900461ffff16908060050160069054906101000a900461ffff16908060050160089054906101000a900461ffff169080600501600a9054906101000a900461ffff16905088565b60008060009054906101000a900473ffffffffffffffffffffffffffffffffffffffff1673ffffffffffffffffffffffffffffffffffffffff163373ffffffffffffffffffffffffffffffffffffffff1614905090565b6109416108e2565b151561094c57600080fd5b61095581610958565b50565b600073ffffffffffffffffffffffffffffffffffffffff168173ffffffffffffffffffffffffffffffffffffffff161415151561099457600080fd5b8073ffffffffffffffffffffffffffffffffffffffff166000809054906101000a900473ffffffffffffffffffffffffffffffffffffffff1673ffffffffffffffffffffffffffffffffffffffff167f8be0079c531659141344cd1fd0a4f28419497f9722a3daafe3b4186f6b6457e060405160405180910390a3806000806101000a81548173ffffffffffffffffffffffffffffffffffffffff021916908373ffffffffffffffffffffffffffffffffffffffff16021790555050565b828054600181600116156101000203166002900490600052602060002090601f016020900481019282601f10610a9357805160ff1916838001178555610ac1565b82800160010185558215610ac1579182015b82811115610ac0578251825591602001919060010190610aa5565b5b509050610ace9190610ad2565b5090565b610af491905b80821115610af0576000816000905550600101610ad8565b5090565b90565b6000610b0382356111ca565b905092915050565b600082601f8301121515610b1e57600080fd5b8135610b31610b2c8261113d565b611110565b91508082526020830160208301858383011115610b4d57600080fd5b610b588382846111f4565b50505092915050565b60006101808284031215610b7457600080fd5b610b7e6080611110565b9050600082013567ffffffffffffffff811115610b9a57600080fd5b610ba684828501610b0b565b6000830152506020610bba84828501610bef565b60208301525060c0610bce84828501610bef565b604083015250610160610be384828501610d6d565b60608301525092915050565b600060a08284031215610c0157600080fd5b610c0b60a0611110565b90506000610c1b84828501610d6d565b6000830152506020610c2f84828501610d6d565b6020830152506040610c4384828501610d6d565b6040830152506060610c5784828501610d6d565b6060830152506080610c6b84828501610d6d565b60808301525092915050565b60006101008284031215610c8a57600080fd5b610c95610100611110565b9050600082013567ffffffffffffffff811115610cb157600080fd5b610cbd84828501610b0b565b600083015250602082013567ffffffffffffffff811115610cdd57600080fd5b610ce984828501610b61565b6020830152506040610cfd84828501610d6d565b6040830152506060610d1184828501610d6d565b6060830152506080610d2584828501610d6d565b60808301525060a0610d3984828501610d6d565b60a08301525060c0610d4d84828501610d6d565b60c08301525060e0610d6184828501610d6d565b60e08301525092915050565b6000610d7982356111dc565b905092915050565b6000610d8d82356111ea565b905092915050565b600060208284031215610da757600080fd5b6000610db584828501610af7565b91505092915050565b600060208284031215610dd057600080fd5b600082013567ffffffffffffffff811115610dea57600080fd5b610df684828501610c77565b91505092915050565b600060208284031215610e1157600080fd5b6000610e1f84828501610d81565b91505092915050565b610e3181611174565b82525050565b610e4081611186565b82525050565b6000610e5182611169565b808452610e65816020860160208601611203565b610e6e81611236565b602085010191505092915050565b6000610180830160008301518482036000860152610e9a8282610e46565b9150506020830151610eaf6020860182610ee1565b506040830151610ec260c0860182610ee1565b506060830151610ed6610160860182611000565b508091505092915050565b60a082016000820151610ef76000850182611000565b506020820151610f0a6020850182611000565b506040820151610f1d6040850182611000565b506060820151610f306060850182611000565b506080820151610f436080850182611000565b50505050565b6000610100830160008301518482036000860152610f678282610e46565b91505060208301518482036020860152610f818282610e7c565b9150506040830151610f966040860182611000565b506060830151610fa96060860182611000565b506080830151610fbc6080860182611000565b5060a0830151610fcf60a0860182611000565b5060c0830151610fe260c0860182611000565b5060e0830151610ff560e0860182611000565b508091505092915050565b61100981611192565b82525050565b611018816111c0565b82525050565b60006020820190506110336000830184610e28565b92915050565b600060208201905061104e6000830184610e37565b92915050565b600061010082019050818103600083015261106f818b610e46565b90508181036020830152611083818a610e7c565b90506110926040830189611000565b61109f6060830188611000565b6110ac6080830187611000565b6110b960a0830186611000565b6110c660c0830185611000565b6110d360e0830184611000565b9998505050505050505050565b60006040820190506110f5600083018561100f565b81810360208301526111078184610f49565b90509392505050565b6000604051905081810181811067ffffffffffffffff8211171561113357600080fd5b8060405250919050565b600067ffffffffffffffff82111561115457600080fd5b601f19601f8301169050602081019050919050565b600081519050919050565b600061117f826111a0565b9050919050565b60008115159050919050565b600061ffff82169050919050565b600073ffffffffffffffffffffffffffffffffffffffff82169050919050565b6000819050919050565b60006111d5826111a0565b9050919050565b600061ffff82169050919050565b6000819050919050565b82818337600083830152505050565b60005b83811015611221578082015181840152602081019050611206565b83811115611230576000848401525b50505050565b6000601f19601f830116905091905056fea265627a7a723058203fe53cdbdda4dcb559507a5be8007dbd1e8048fa317bd1c41bf67159fa693b236c6578706572696d656e74616cf50037",
  "source": "pragma solidity ^0.5.2;\npragma experimental ABIEncoderV2;\n\nimport \"../node_modules/openzeppelin-solidity/contracts/ownership/Ownable.sol\";\n\ncontract Cards is Ownable {\n\n    event NewCard(uint cardId, Card card);\n\n    struct CardProperties {\n        uint16 health;\n        uint16 defence;\n        uint16 mana;\n        uint16 attack;\n        uint16 specialAttack;\n    }\n\n    struct Ability {\n        string name;\n        CardProperties opponent;\n        CardProperties player;\n        uint16 manaCost;\n    }\n\n    struct Card {\n        string name;\n        Ability ability;\n\n        uint16 initHealth;  // 0-1000\n        uint16 initDefence; // 0-500\n        uint16 initMana;    // 0-20\n\n        uint16 speed;   // 0-500\n        uint16 attack; // 0-120\n        uint16 specialAttack; // 120-240\n    }\n\n    Card[] public cards;\n\n    function createCard(Card memory card) public\n        onlyOwner()\n    {\n        uint cardId = cards.push(card) - 1;\n        emit NewCard(cardId, card);\n    }\n}\n",
  "sourcePath": "/Users/nicholasaddison/Documents/workspaces/scratch/crypto-beasts/contracts/Cards.sol",
  "compiler": {
    "name": "solc",
    "version": "0.5.2+commit.1df8f40c.Emscripten.clang"
  },
  "schemaVersion": "3.0.6",
  "updatedAt": "2019-04-09T12:47:06.563Z",
  "devdoc": {
    "methods": {
      "isOwner()": {
        "return": "true if `msg.sender` is the owner of the contract."
      },
      "owner()": {
        "return": "the address of the owner."
      },
      "renounceOwnership()": {
        "details": "Allows the current owner to relinquish control of the contract. It will not be possible to call the functions with the `onlyOwner` modifier anymore."
      },
      "transferOwnership(address)": {
        "details": "Allows the current owner to transfer control of the contract to a newOwner.",
        "params": {
          "newOwner": "The address to transfer ownership to."
        }
      }
    }
  },
  "userdoc": {
    "methods": {
      "renounceOwnership()": {
        "notice": "Renouncing ownership will leave the contract without an owner, thereby removing any functionality that is only available to the owner."
      }
    }
  }
}