{
  "contractName": "Cards",
  "abi": [
    {
      "constant": false,
      "inputs": [],
      "name": "renounceOwnership",
      "outputs": [],
      "payable": false,
      "stateMutability": "nonpayable",
      "type": "function",
      "signature": "0x715018a6"
    },
    {
      "constant": true,
      "inputs": [],
      "name": "owner",
      "outputs": [
        {
          "name": "",
          "type": "address"
        }
      ],
      "payable": false,
      "stateMutability": "view",
      "type": "function",
      "signature": "0x8da5cb5b"
    },
    {
      "constant": true,
      "inputs": [
        {
          "name": "",
          "type": "uint256"
        }
      ],
      "name": "cards",
      "outputs": [
        {
          "name": "name",
          "type": "string"
        },
        {
          "components": [
            {
              "name": "name",
              "type": "string"
            },
            {
              "components": [
                {
                  "name": "health",
                  "type": "uint16"
                },
                {
                  "name": "defence",
                  "type": "uint16"
                },
                {
                  "name": "mana",
                  "type": "uint16"
                },
                {
                  "name": "attack",
                  "type": "uint16"
                },
                {
                  "name": "specialAttack",
                  "type": "uint16"
                }
              ],
              "name": "opponent",
              "type": "tuple"
            },
            {
              "components": [
                {
                  "name": "health",
                  "type": "uint16"
                },
                {
                  "name": "defence",
                  "type": "uint16"
                },
                {
                  "name": "mana",
                  "type": "uint16"
                },
                {
                  "name": "attack",
                  "type": "uint16"
                },
                {
                  "name": "specialAttack",
                  "type": "uint16"
                }
              ],
              "name": "player",
              "type": "tuple"
            },
            {
              "name": "manaCost",
              "type": "uint16"
            }
          ],
          "name": "ability",
          "type": "tuple"
        },
        {
          "name": "initHealth",
          "type": "uint16"
        },
        {
          "name": "initDefence",
          "type": "uint16"
        },
        {
          "name": "initMana",
          "type": "uint16"
        },
        {
          "name": "speed",
          "type": "uint16"
        },
        {
          "name": "attack",
          "type": "uint16"
        },
        {
          "name": "specialAttack",
          "type": "uint16"
        }
      ],
      "payable": false,
      "stateMutability": "view",
      "type": "function",
      "signature": "0x8dc10768"
    },
    {
      "constant": true,
      "inputs": [],
      "name": "isOwner",
      "outputs": [
        {
          "name": "",
          "type": "bool"
        }
      ],
      "payable": false,
      "stateMutability": "view",
      "type": "function",
      "signature": "0x8f32d59b"
    },
    {
      "constant": false,
      "inputs": [
        {
          "name": "newOwner",
          "type": "address"
        }
      ],
      "name": "transferOwnership",
      "outputs": [],
      "payable": false,
      "stateMutability": "nonpayable",
      "type": "function",
      "signature": "0xf2fde38b"
    },
    {
      "anonymous": false,
      "inputs": [
        {
          "indexed": false,
          "name": "cardId",
          "type": "uint256"
        },
        {
          "components": [
            {
              "name": "name",
              "type": "string"
            },
            {
              "components": [
                {
                  "name": "name",
                  "type": "string"
                },
                {
                  "components": [
                    {
                      "name": "health",
                      "type": "uint16"
                    },
                    {
                      "name": "defence",
                      "type": "uint16"
                    },
                    {
                      "name": "mana",
                      "type": "uint16"
                    },
                    {
                      "name": "attack",
                      "type": "uint16"
                    },
                    {
                      "name": "specialAttack",
                      "type": "uint16"
                    }
                  ],
                  "name": "opponent",
                  "type": "tuple"
                },
                {
                  "components": [
                    {
                      "name": "health",
                      "type": "uint16"
                    },
                    {
                      "name": "defence",
                      "type": "uint16"
                    },
                    {
                      "name": "mana",
                      "type": "uint16"
                    },
                    {
                      "name": "attack",
                      "type": "uint16"
                    },
                    {
                      "name": "specialAttack",
                      "type": "uint16"
                    }
                  ],
                  "name": "player",
                  "type": "tuple"
                },
                {
                  "name": "manaCost",
                  "type": "uint16"
                }
              ],
              "name": "ability",
              "type": "tuple"
            },
            {
              "name": "initHealth",
              "type": "uint16"
            },
            {
              "name": "initDefence",
              "type": "uint16"
            },
            {
              "name": "initMana",
              "type": "uint16"
            },
            {
              "name": "speed",
              "type": "uint16"
            },
            {
              "name": "attack",
              "type": "uint16"
            },
            {
              "name": "specialAttack",
              "type": "uint16"
            }
          ],
          "indexed": false,
          "name": "card",
          "type": "tuple"
        }
      ],
      "name": "NewCard",
      "type": "event",
      "signature": "0xb1b17b23cffcf729d34b26aac4faa18940cec6ac11f34c678d0bfe232b00dc81"
    },
    {
      "anonymous": false,
      "inputs": [
        {
          "indexed": true,
          "name": "previousOwner",
          "type": "address"
        },
        {
          "indexed": true,
          "name": "newOwner",
          "type": "address"
        }
      ],
      "name": "OwnershipTransferred",
      "type": "event",
      "signature": "0x8be0079c531659141344cd1fd0a4f28419497f9722a3daafe3b4186f6b6457e0"
    },
    {
      "constant": false,
      "inputs": [
        {
          "components": [
            {
              "name": "name",
              "type": "string"
            },
            {
              "components": [
                {
                  "name": "name",
                  "type": "string"
                },
                {
                  "components": [
                    {
                      "name": "health",
                      "type": "uint16"
                    },
                    {
                      "name": "defence",
                      "type": "uint16"
                    },
                    {
                      "name": "mana",
                      "type": "uint16"
                    },
                    {
                      "name": "attack",
                      "type": "uint16"
                    },
                    {
                      "name": "specialAttack",
                      "type": "uint16"
                    }
                  ],
                  "name": "opponent",
                  "type": "tuple"
                },
                {
                  "components": [
                    {
                      "name": "health",
                      "type": "uint16"
                    },
                    {
                      "name": "defence",
                      "type": "uint16"
                    },
                    {
                      "name": "mana",
                      "type": "uint16"
                    },
                    {
                      "name": "attack",
                      "type": "uint16"
                    },
                    {
                      "name": "specialAttack",
                      "type": "uint16"
                    }
                  ],
                  "name": "player",
                  "type": "tuple"
                },
                {
                  "name": "manaCost",
                  "type": "uint16"
                }
              ],
              "name": "ability",
              "type": "tuple"
            },
            {
              "name": "initHealth",
              "type": "uint16"
            },
            {
              "name": "initDefence",
              "type": "uint16"
            },
            {
              "name": "initMana",
              "type": "uint16"
            },
            {
              "name": "speed",
              "type": "uint16"
            },
            {
              "name": "attack",
              "type": "uint16"
            },
            {
              "name": "specialAttack",
              "type": "uint16"
            }
          ],
          "name": "card",
          "type": "tuple"
        }
      ],
      "name": "createCard",
      "outputs": [],
      "payable": false,
      "stateMutability": "nonpayable",
      "type": "function",
      "signature": "0x377b723a"
    },
    {
      "constant": false,
      "inputs": [],
      "name": "cardCount",
      "outputs": [
        {
          "name": "",
          "type": "uint256"
        }
      ],
      "payable": false,
      "stateMutability": "nonpayable",
      "type": "function",
      "signature": "0x1b6cde10"
    },
    {
      "constant": false,
      "inputs": [
        {
          "name": "index",
          "type": "uint256"
        }
      ],
      "name": "getCard",
      "outputs": [
        {
          "components": [
            {
              "name": "name",
              "type": "string"
            },
            {
              "components": [
                {
                  "name": "name",
                  "type": "string"
                },
                {
                  "components": [
                    {
                      "name": "health",
                      "type": "uint16"
                    },
                    {
                      "name": "defence",
                      "type": "uint16"
                    },
                    {
                      "name": "mana",
                      "type": "uint16"
                    },
                    {
                      "name": "attack",
                      "type": "uint16"
                    },
                    {
                      "name": "specialAttack",
                      "type": "uint16"
                    }
                  ],
                  "name": "opponent",
                  "type": "tuple"
                },
                {
                  "components": [
                    {
                      "name": "health",
                      "type": "uint16"
                    },
                    {
                      "name": "defence",
                      "type": "uint16"
                    },
                    {
                      "name": "mana",
                      "type": "uint16"
                    },
                    {
                      "name": "attack",
                      "type": "uint16"
                    },
                    {
                      "name": "specialAttack",
                      "type": "uint16"
                    }
                  ],
                  "name": "player",
                  "type": "tuple"
                },
                {
                  "name": "manaCost",
                  "type": "uint16"
                }
              ],
              "name": "ability",
              "type": "tuple"
            },
            {
              "name": "initHealth",
              "type": "uint16"
            },
            {
              "name": "initDefence",
              "type": "uint16"
            },
            {
              "name": "initMana",
              "type": "uint16"
            },
            {
              "name": "speed",
              "type": "uint16"
            },
            {
              "name": "attack",
              "type": "uint16"
            },
            {
              "name": "specialAttack",
              "type": "uint16"
            }
          ],
          "name": "",
          "type": "tuple"
        }
      ],
      "payable": false,
      "stateMutability": "nonpayable",
      "type": "function",
      "signature": "0x9188d312"
    }
  ],
  "bytecode": "0x6080604052336000806101000a81548173ffffffffffffffffffffffffffffffffffffffff021916908373ffffffffffffffffffffffffffffffffffffffff1602179055506000809054906101000a900473ffffffffffffffffffffffffffffffffffffffff1673ffffffffffffffffffffffffffffffffffffffff16600073ffffffffffffffffffffffffffffffffffffffff167f8be0079c531659141344cd1fd0a4f28419497f9722a3daafe3b4186f6b6457e060405160405180910390a36117fd806100cf6000396000f3fe608060405234801561001057600080fd5b50600436106100a5576000357c0100000000000000000000000000000000000000000000000000000000900480638dc10768116100785780638dc107681461010c5780638f32d59b146101435780639188d31214610161578063f2fde38b14610191576100a5565b80631b6cde10146100aa578063377b723a146100c8578063715018a6146100e45780638da5cb5b146100ee575b600080fd5b6100b26101ad565b6040516100bf9190611641565b60405180910390f35b6100e260048036036100dd91908101906112fd565b6101ba565b005b6100ec6104ee565b005b6100f66105c0565b604051610103919061155d565b60405180910390f35b6101266004803603610121919081019061133e565b6105e9565b60405161013a989796959493929190611593565b60405180910390f35b61014b610963565b6040516101589190611578565b60405180910390f35b61017b6004803603610176919081019061133e565b6109ba565b604051610188919061161f565b60405180910390f35b6101ab60048036036101a691908101906112d4565b610d96565b005b6000600180549050905090565b6101c2610963565b15156101cd57600080fd5b60006001808390806001815401808255809150509060018203906000526020600020906006020160009091929091909150600082015181600001908051906020019061021a929190610eaf565b506020820151816001016000820151816000019080519060200190610240929190610eaf565b5060208201518160010160008201518160000160006101000a81548161ffff021916908361ffff16021790555060208201518160000160026101000a81548161ffff021916908361ffff16021790555060408201518160000160046101000a81548161ffff021916908361ffff16021790555060608201518160000160066101000a81548161ffff021916908361ffff16021790555060808201518160000160086101000a81548161ffff021916908361ffff160217905550505060408201518160020160008201518160000160006101000a81548161ffff021916908361ffff16021790555060208201518160000160026101000a81548161ffff021916908361ffff16021790555060408201518160000160046101000a81548161ffff021916908361ffff16021790555060608201518160000160066101000a81548161ffff021916908361ffff16021790555060808201518160000160086101000a81548161ffff021916908361ffff160217905550505060608201518160030160006101000a81548161ffff021916908361ffff160217905550505060408201518160050160006101000a81548161ffff021916908361ffff16021790555060608201518160050160026101000a81548161ffff021916908361ffff16021790555060808201518160050160046101000a81548161ffff021916908361ffff16021790555060a08201518160050160066101000a81548161ffff021916908361ffff16021790555060c08201518160050160086101000a81548161ffff021916908361ffff16021790555060e082015181600501600a6101000a81548161ffff021916908361ffff16021790555050500390507fb1b17b23cffcf729d34b26aac4faa18940cec6ac11f34c678d0bfe232b00dc8181836040516104e292919061165c565b60405180910390a15050565b6104f6610963565b151561050157600080fd5b600073ffffffffffffffffffffffffffffffffffffffff166000809054906101000a900473ffffffffffffffffffffffffffffffffffffffff1673ffffffffffffffffffffffffffffffffffffffff167f8be0079c531659141344cd1fd0a4f28419497f9722a3daafe3b4186f6b6457e060405160405180910390a360008060006101000a81548173ffffffffffffffffffffffffffffffffffffffff021916908373ffffffffffffffffffffffffffffffffffffffff160217905550565b60008060009054906101000a900473ffffffffffffffffffffffffffffffffffffffff16905090565b6001818154811015156105f857fe5b9060005260206000209060060201600091509050806000018054600181600116156101000203166002900480601f0160208091040260200160405190810160405280929190818152602001828054600181600116156101000203166002900480156106a45780601f10610679576101008083540402835291602001916106a4565b820191906000526020600020905b81548152906001019060200180831161068757829003601f168201915b5050505050908060010160806040519081016040529081600082018054600181600116156101000203166002900480601f0160208091040260200160405190810160405280929190818152602001828054600181600116156101000203166002900480156107535780601f1061072857610100808354040283529160200191610753565b820191906000526020600020905b81548152906001019060200180831161073657829003601f168201915b505050505081526020016001820160a060405190810160405290816000820160009054906101000a900461ffff1661ffff1661ffff1681526020016000820160029054906101000a900461ffff1661ffff1661ffff1681526020016000820160049054906101000a900461ffff1661ffff1661ffff1681526020016000820160069054906101000a900461ffff1661ffff1661ffff1681526020016000820160089054906101000a900461ffff1661ffff1661ffff168152505081526020016002820160a060405190810160405290816000820160009054906101000a900461ffff1661ffff1661ffff1681526020016000820160029054906101000a900461ffff1661ffff1661ffff1681526020016000820160049054906101000a900461ffff1661ffff1661ffff1681526020016000820160069054906101000a900461ffff1661ffff1661ffff1681526020016000820160089054906101000a900461ffff1661ffff1661ffff168152505081526020016003820160009054906101000a900461ffff1661ffff1661ffff1681525050908060050160009054906101000a900461ffff16908060050160029054906101000a900461ffff16908060050160049054906101000a900461ffff16908060050160069054906101000a900461ffff16908060050160089054906101000a900461ffff169080600501600a9054906101000a900461ffff16905088565b60008060009054906101000a900473ffffffffffffffffffffffffffffffffffffffff1673ffffffffffffffffffffffffffffffffffffffff163373ffffffffffffffffffffffffffffffffffffffff1614905090565b6109c2610f2f565b6001828154811015156109d157fe5b90600052602060002090600602016101006040519081016040529081600082018054600181600116156101000203166002900480601f016020809104026020016040519081016040528092919081815260200182805460018160011615610100020316600290048015610a855780601f10610a5a57610100808354040283529160200191610a85565b820191906000526020600020905b815481529060010190602001808311610a6857829003601f168201915b505050505081526020016001820160806040519081016040529081600082018054600181600116156101000203166002900480601f016020809104026020016040519081016040528092919081815260200182805460018160011615610100020316600290048015610b385780601f10610b0d57610100808354040283529160200191610b38565b820191906000526020600020905b815481529060010190602001808311610b1b57829003601f168201915b505050505081526020016001820160a060405190810160405290816000820160009054906101000a900461ffff1661ffff1661ffff1681526020016000820160029054906101000a900461ffff1661ffff1661ffff1681526020016000820160049054906101000a900461ffff1661ffff1661ffff1681526020016000820160069054906101000a900461ffff1661ffff1661ffff1681526020016000820160089054906101000a900461ffff1661ffff1661ffff168152505081526020016002820160a060405190810160405290816000820160009054906101000a900461ffff1661ffff1661ffff1681526020016000820160029054906101000a900461ffff1661ffff1661ffff1681526020016000820160049054906101000a900461ffff1661ffff1661ffff1681526020016000820160069054906101000a900461ffff1661ffff1661ffff1681526020016000820160089054906101000a900461ffff1661ffff1661ffff168152505081526020016003820160009054906101000a900461ffff1661ffff1661ffff168152505081526020016005820160009054906101000a900461ffff1661ffff1661ffff1681526020016005820160029054906101000a900461ffff1661ffff1661ffff1681526020016005820160049054906101000a900461ffff1661ffff1661ffff1681526020016005820160069054906101000a900461ffff1661ffff1661ffff1681526020016005820160089054906101000a900461ffff1661ffff1661ffff16815260200160058201600a9054906101000a900461ffff1661ffff1661ffff16815250509050919050565b610d9e610963565b1515610da957600080fd5b610db281610db5565b50565b600073ffffffffffffffffffffffffffffffffffffffff168173ffffffffffffffffffffffffffffffffffffffff1614151515610df157600080fd5b8073ffffffffffffffffffffffffffffffffffffffff166000809054906101000a900473ffffffffffffffffffffffffffffffffffffffff1673ffffffffffffffffffffffffffffffffffffffff167f8be0079c531659141344cd1fd0a4f28419497f9722a3daafe3b4186f6b6457e060405160405180910390a3806000806101000a81548173ffffffffffffffffffffffffffffffffffffffff021916908373ffffffffffffffffffffffffffffffffffffffff16021790555050565b828054600181600116156101000203166002900490600052602060002090601f016020900481019282601f10610ef057805160ff1916838001178555610f1e565b82800160010185558215610f1e579182015b82811115610f1d578251825591602001919060010190610f02565b5b509050610f2b9190610f93565b5090565b6102606040519081016040528060608152602001610f4b610fb8565b8152602001600061ffff168152602001600061ffff168152602001600061ffff168152602001600061ffff168152602001600061ffff168152602001600061ffff1681525090565b610fb591905b80821115610fb1576000816000905550600101610f99565b5090565b90565b6101806040519081016040528060608152602001610fd4610ff2565b8152602001610fe1610ff2565b8152602001600061ffff1681525090565b60a060405190810160405280600061ffff168152602001600061ffff168152602001600061ffff168152602001600061ffff168152602001600061ffff1681525090565b60006110428235611746565b905092915050565b600082601f830112151561105d57600080fd5b813561107061106b826116b9565b61168c565b9150808252602083016020830185838301111561108c57600080fd5b611097838284611770565b50505092915050565b600061018082840312156110b357600080fd5b6110bd608061168c565b9050600082013567ffffffffffffffff8111156110d957600080fd5b6110e58482850161104a565b60008301525060206110f98482850161112e565b60208301525060c061110d8482850161112e565b604083015250610160611122848285016112ac565b60608301525092915050565b600060a0828403121561114057600080fd5b61114a60a061168c565b9050600061115a848285016112ac565b600083015250602061116e848285016112ac565b6020830152506040611182848285016112ac565b6040830152506060611196848285016112ac565b60608301525060806111aa848285016112ac565b60808301525092915050565b600061010082840312156111c957600080fd5b6111d461010061168c565b9050600082013567ffffffffffffffff8111156111f057600080fd5b6111fc8482850161104a565b600083015250602082013567ffffffffffffffff81111561121c57600080fd5b611228848285016110a0565b602083015250604061123c848285016112ac565b6040830152506060611250848285016112ac565b6060830152506080611264848285016112ac565b60808301525060a0611278848285016112ac565b60a08301525060c061128c848285016112ac565b60c08301525060e06112a0848285016112ac565b60e08301525092915050565b60006112b88235611758565b905092915050565b60006112cc8235611766565b905092915050565b6000602082840312156112e657600080fd5b60006112f484828501611036565b91505092915050565b60006020828403121561130f57600080fd5b600082013567ffffffffffffffff81111561132957600080fd5b611335848285016111b6565b91505092915050565b60006020828403121561135057600080fd5b600061135e848285016112c0565b91505092915050565b611370816116f0565b82525050565b61137f81611702565b82525050565b6000611390826116e5565b8084526113a481602086016020860161177f565b6113ad816117b2565b602085010191505092915050565b60006101808301600083015184820360008601526113d98282611385565b91505060208301516113ee6020860182611420565b50604083015161140160c0860182611420565b50606083015161141561016086018261153f565b508091505092915050565b60a082016000820151611436600085018261153f565b506020820151611449602085018261153f565b50604082015161145c604085018261153f565b50606082015161146f606085018261153f565b506080820151611482608085018261153f565b50505050565b60006101008301600083015184820360008601526114a68282611385565b915050602083015184820360208601526114c082826113bb565b91505060408301516114d5604086018261153f565b5060608301516114e8606086018261153f565b5060808301516114fb608086018261153f565b5060a083015161150e60a086018261153f565b5060c083015161152160c086018261153f565b5060e083015161153460e086018261153f565b508091505092915050565b6115488161170e565b82525050565b6115578161173c565b82525050565b60006020820190506115726000830184611367565b92915050565b600060208201905061158d6000830184611376565b92915050565b60006101008201905081810360008301526115ae818b611385565b905081810360208301526115c2818a6113bb565b90506115d1604083018961153f565b6115de606083018861153f565b6115eb608083018761153f565b6115f860a083018661153f565b61160560c083018561153f565b61161260e083018461153f565b9998505050505050505050565b600060208201905081810360008301526116398184611488565b905092915050565b6000602082019050611656600083018461154e565b92915050565b6000604082019050611671600083018561154e565b81810360208301526116838184611488565b90509392505050565b6000604051905081810181811067ffffffffffffffff821117156116af57600080fd5b8060405250919050565b600067ffffffffffffffff8211156116d057600080fd5b601f19601f8301169050602081019050919050565b600081519050919050565b60006116fb8261171c565b9050919050565b60008115159050919050565b600061ffff82169050919050565b600073ffffffffffffffffffffffffffffffffffffffff82169050919050565b6000819050919050565b60006117518261171c565b9050919050565b600061ffff82169050919050565b6000819050919050565b82818337600083830152505050565b60005b8381101561179d578082015181840152602081019050611782565b838111156117ac576000848401525b50505050565b6000601f19601f830116905091905056fea265627a7a72305820ca43395b686831cc919b1b97ff83c7a27c144495ea68d990bfaa9b42341adfc26c6578706572696d656e74616cf50037",
  "source": "pragma solidity ^0.5.2;\npragma experimental ABIEncoderV2;\n\nimport \"../node_modules/openzeppelin-solidity/contracts/ownership/Ownable.sol\";\nimport {CryptoBeastsTypes} from \"./CryptoBeastsTypes.sol\";\n\ncontract Cards is Ownable, CryptoBeastsTypes {\n\n    event NewCard(uint cardId, Card card);\n\n    Card[] public cards;\n\n    function createCard(Card memory card) public\n        onlyOwner()\n    {\n        uint cardId = cards.push(card) - 1;\n        emit NewCard(cardId, card);\n    }\n\n    function cardCount() public returns (uint) {\n        return cards.length;\n    }\n\n    function getCard(uint index) public returns (Card memory) {\n        return cards[index];\n    }\n}\n",
  "sourcePath": "/Users/nicholasaddison/Documents/workspaces/scratch/crypto-beasts/contracts/Cards.sol",
  "compiler": {
    "name": "solc",
    "version": "0.5.2+commit.1df8f40c.Emscripten.clang"
  },
  "schemaVersion": "3.0.6",
  "updatedAt": "2019-04-18T23:04:20.386Z",
  "devdoc": {
    "methods": {
      "isOwner()": {
        "return": "true if `msg.sender` is the owner of the contract."
      },
      "owner()": {
        "return": "the address of the owner."
      },
      "renounceOwnership()": {
        "details": "Allows the current owner to relinquish control of the contract. It will not be possible to call the functions with the `onlyOwner` modifier anymore."
      },
      "transferOwnership(address)": {
        "details": "Allows the current owner to transfer control of the contract to a newOwner.",
        "params": {
          "newOwner": "The address to transfer ownership to."
        }
      }
    }
  },
  "userdoc": {
    "methods": {
      "renounceOwnership()": {
        "notice": "Renouncing ownership will leave the contract without an owner, thereby removing any functionality that is only available to the owner."
      }
    }
  }
}