{
  "contractName": "Challenge",
  "abi": [
    {
      "constant": true,
      "inputs": [
        {
          "name": "",
          "type": "address"
        }
      ],
      "name": "challenges",
      "outputs": [
        {
          "name": "",
          "type": "bool"
        }
      ],
      "payable": false,
      "stateMutability": "view",
      "type": "function",
      "signature": "0x08b43a19"
    },
    {
      "constant": true,
      "inputs": [
        {
          "name": "",
          "type": "uint256"
        }
      ],
      "name": "challengeQueue",
      "outputs": [
        {
          "name": "",
          "type": "address"
        }
      ],
      "payable": false,
      "stateMutability": "view",
      "type": "function",
      "signature": "0xe4ada286"
    },
    {
      "anonymous": false,
      "inputs": [
        {
          "indexed": false,
          "name": "challenger",
          "type": "address"
        }
      ],
      "name": "Challenge",
      "type": "event",
      "signature": "0xc21b87340588bdc78634253d4b0c2c02f475010edc0dc0c201bb0db913fa51a0"
    },
    {
      "anonymous": false,
      "inputs": [
        {
          "indexed": false,
          "name": "challenger",
          "type": "address"
        }
      ],
      "name": "Cancel",
      "type": "event",
      "signature": "0xdfae2e44eee3429afab9409ee9f946d11d84e8eee5d3c81525197a2925b0ceb9"
    },
    {
      "anonymous": false,
      "inputs": [
        {
          "indexed": false,
          "name": "challenger",
          "type": "address"
        },
        {
          "indexed": false,
          "name": "acceptor",
          "type": "address"
        }
      ],
      "name": "Accept",
      "type": "event",
      "signature": "0x4bd6f5a2cc7d567108836dec2c45aacc8ac6b2a1d7a32ad262065b1c74e69680"
    },
    {
      "constant": false,
      "inputs": [],
      "name": "anyone",
      "outputs": [],
      "payable": false,
      "stateMutability": "nonpayable",
      "type": "function",
      "signature": "0x785beeb9"
    },
    {
      "constant": true,
      "inputs": [
        {
          "name": "challenger",
          "type": "address"
        }
      ],
      "name": "isChallenging",
      "outputs": [
        {
          "name": "",
          "type": "bool"
        }
      ],
      "payable": false,
      "stateMutability": "view",
      "type": "function",
      "signature": "0xceb06bc5"
    }
  ],
  "bytecode": "0x608060405234801561001057600080fd5b506105e9806100206000396000f3fe608060405234801561001057600080fd5b5060043610610069576000357c01000000000000000000000000000000000000000000000000000000009004806308b43a191461006e578063785beeb9146100ca578063ceb06bc5146100d4578063e4ada28614610130575b600080fd5b6100b06004803603602081101561008457600080fd5b81019080803573ffffffffffffffffffffffffffffffffffffffff16906020019092919050505061019e565b604051808215151515815260200191505060405180910390f35b6100d26101be565b005b610116600480360360208110156100ea57600080fd5b81019080803573ffffffffffffffffffffffffffffffffffffffff16906020019092919050505061052a565b604051808215151515815260200191505060405180910390f35b61015c6004803603602081101561014657600080fd5b810190808035906020019092919050505061057f565b604051808273ffffffffffffffffffffffffffffffffffffffff1673ffffffffffffffffffffffffffffffffffffffff16815260200191505060405180910390f35b60006020528060005260406000206000915054906101000a900460ff1681565b6000803373ffffffffffffffffffffffffffffffffffffffff1673ffffffffffffffffffffffffffffffffffffffff16815260200190815260200160002060009054906101000a900460ff1615151561027f576040517f08c379a00000000000000000000000000000000000000000000000000000000081526004018080602001828103825260138152602001807f416c7265616479206368616c6c656e67696e670000000000000000000000000081525060200191505060405180910390fd5b600060018054905011156104075760006001808080549050038154811015156102a457fe5b9060005260206000200160009054906101000a900473ffffffffffffffffffffffffffffffffffffffff169050600180548015156102de57fe5b6001900381819060005260206000200160006101000a81549073ffffffffffffffffffffffffffffffffffffffff0219169055905560008060008373ffffffffffffffffffffffffffffffffffffffff1673ffffffffffffffffffffffffffffffffffffffff16815260200190815260200160002060006101000a81548160ff0219169083151502179055507f4bd6f5a2cc7d567108836dec2c45aacc8ac6b2a1d7a32ad262065b1c74e696808133604051808373ffffffffffffffffffffffffffffffffffffffff1673ffffffffffffffffffffffffffffffffffffffff1681526020018273ffffffffffffffffffffffffffffffffffffffff1673ffffffffffffffffffffffffffffffffffffffff1681526020019250505060405180910390a150610528565b60013390806001815401808255809150509060018203906000526020600020016000909192909190916101000a81548173ffffffffffffffffffffffffffffffffffffffff021916908373ffffffffffffffffffffffffffffffffffffffff1602179055505060016000803373ffffffffffffffffffffffffffffffffffffffff1673ffffffffffffffffffffffffffffffffffffffff16815260200190815260200160002060006101000a81548160ff0219169083151502179055507fc21b87340588bdc78634253d4b0c2c02f475010edc0dc0c201bb0db913fa51a033604051808273ffffffffffffffffffffffffffffffffffffffff1673ffffffffffffffffffffffffffffffffffffffff16815260200191505060405180910390a15b565b60008060008373ffffffffffffffffffffffffffffffffffffffff1673ffffffffffffffffffffffffffffffffffffffff16815260200190815260200160002060009054906101000a900460ff169050919050565b60018181548110151561058e57fe5b906000526020600020016000915054906101000a900473ffffffffffffffffffffffffffffffffffffffff168156fea165627a7a72305820336d0fdadd01775e2043b0b71cab566fb2e0cd161b6c141be6c756dc6dfbf4150029",
  "source": "\npragma solidity ^0.5.0;\n\ncontract Challenge {\n\n    mapping (address => bool) public challenges;\n\n    address[] public challengeQueue;\n\n    event Challenge(address challenger);\n    event Cancel(address challenger);\n    event Accept(address challenger, address acceptor);\n\n    function anyone() public {\n        // can not already have issued a challenge\n        require(!challenges[msg.sender], 'Already challenging');\n\n        if (challengeQueue.length > 0) {\n            // TODO currently FILO. Ideally should be FIFO\n            address challenger = challengeQueue[challengeQueue.length - 1];\n            challengeQueue.pop();\n            challenges[challenger] = false;\n\n            emit Accept(challenger, msg.sender);\n        }\n        else {\n            challengeQueue.push(msg.sender);\n            challenges[msg.sender] = true;\n\n            emit Challenge(msg.sender);\n        }\n    }\n\n    function isChallenging(address challenger) public view returns (bool) {\n        return challenges[challenger];\n    }\n}",
  "sourcePath": "/Users/nicholasaddison/Documents/workspaces/scratch/crypto-beasts/contracts/Challenge.sol",
  "compiler": {
    "name": "solc",
    "version": "0.5.2+commit.1df8f40c.Emscripten.clang"
  },
  "schemaVersion": "3.0.6",
  "updatedAt": "2019-04-20T12:15:44.840Z",
  "devdoc": {
    "methods": {}
  },
  "userdoc": {
    "methods": {}
  }
}