{
  "contractName": "Challenge",
  "abi": [
    {
      "constant": true,
      "inputs": [],
      "name": "challenger",
      "outputs": [
        {
          "name": "",
          "type": "address"
        }
      ],
      "payable": false,
      "stateMutability": "view",
      "type": "function",
      "signature": "0x534db0e2"
    },
    {
      "anonymous": false,
      "inputs": [
        {
          "indexed": false,
          "name": "challenger",
          "type": "address"
        }
      ],
      "name": "Challenge",
      "type": "event",
      "signature": "0xc21b87340588bdc78634253d4b0c2c02f475010edc0dc0c201bb0db913fa51a0"
    },
    {
      "anonymous": false,
      "inputs": [
        {
          "indexed": false,
          "name": "challenger",
          "type": "address"
        }
      ],
      "name": "Cancel",
      "type": "event",
      "signature": "0xdfae2e44eee3429afab9409ee9f946d11d84e8eee5d3c81525197a2925b0ceb9"
    },
    {
      "anonymous": false,
      "inputs": [
        {
          "indexed": false,
          "name": "challenger",
          "type": "address"
        },
        {
          "indexed": false,
          "name": "acceptor",
          "type": "address"
        }
      ],
      "name": "Accept",
      "type": "event",
      "signature": "0x4bd6f5a2cc7d567108836dec2c45aacc8ac6b2a1d7a32ad262065b1c74e69680"
    },
    {
      "constant": false,
      "inputs": [],
      "name": "challenge",
      "outputs": [],
      "payable": false,
      "stateMutability": "nonpayable",
      "type": "function",
      "signature": "0xd2ef7398"
    },
    {
      "constant": false,
      "inputs": [],
      "name": "cancel",
      "outputs": [],
      "payable": false,
      "stateMutability": "nonpayable",
      "type": "function",
      "signature": "0xea8a1af0"
    }
  ],
  "bytecode": "0x608060405260008060006101000a81548173ffffffffffffffffffffffffffffffffffffffff021916908373ffffffffffffffffffffffffffffffffffffffff16021790555034801561005157600080fd5b50610491806100616000396000f3fe608060405234801561001057600080fd5b506004361061005e576000357c010000000000000000000000000000000000000000000000000000000090048063534db0e214610063578063d2ef7398146100ad578063ea8a1af0146100b7575b600080fd5b61006b6100c1565b604051808273ffffffffffffffffffffffffffffffffffffffff1673ffffffffffffffffffffffffffffffffffffffff16815260200191505060405180910390f35b6100b56100e6565b005b6100bf6103a5565b005b6000809054906101000a900473ffffffffffffffffffffffffffffffffffffffff1681565b3373ffffffffffffffffffffffffffffffffffffffff166000809054906101000a900473ffffffffffffffffffffffffffffffffffffffff1673ffffffffffffffffffffffffffffffffffffffff16141515156101ab576040517f08c379a00000000000000000000000000000000000000000000000000000000081526004018080602001828103825260138152602001807f416c7265616479206368616c6c656e67696e670000000000000000000000000081525060200191505060405180910390fd5b600073ffffffffffffffffffffffffffffffffffffffff166000809054906101000a900473ffffffffffffffffffffffffffffffffffffffff1673ffffffffffffffffffffffffffffffffffffffff1614156102a957336000806101000a81548173ffffffffffffffffffffffffffffffffffffffff021916908373ffffffffffffffffffffffffffffffffffffffff1602179055507fc21b87340588bdc78634253d4b0c2c02f475010edc0dc0c201bb0db913fa51a033604051808273ffffffffffffffffffffffffffffffffffffffff1673ffffffffffffffffffffffffffffffffffffffff16815260200191505060405180910390a16103a3565b7f4bd6f5a2cc7d567108836dec2c45aacc8ac6b2a1d7a32ad262065b1c74e696806000809054906101000a900473ffffffffffffffffffffffffffffffffffffffff1633604051808373ffffffffffffffffffffffffffffffffffffffff1673ffffffffffffffffffffffffffffffffffffffff1681526020018273ffffffffffffffffffffffffffffffffffffffff1673ffffffffffffffffffffffffffffffffffffffff1681526020019250505060405180910390a160008060006101000a81548173ffffffffffffffffffffffffffffffffffffffff021916908373ffffffffffffffffffffffffffffffffffffffff1602179055505b565b3373ffffffffffffffffffffffffffffffffffffffff166000809054906101000a900473ffffffffffffffffffffffffffffffffffffffff1673ffffffffffffffffffffffffffffffffffffffff1614151561040057600080fd5b7fdfae2e44eee3429afab9409ee9f946d11d84e8eee5d3c81525197a2925b0ceb933604051808273ffffffffffffffffffffffffffffffffffffffff1673ffffffffffffffffffffffffffffffffffffffff16815260200191505060405180910390a156fea165627a7a7230582042ad0c02ff7dcee6302e7e2e0cf42b080f1af92d4d8c3620f759ff3e28f9d5b90029",
  "source": "\npragma solidity ^0.5.0;\n\ncontract Challenge {\n\n    address public challenger = address(0);\n\n    event Challenge(address challenger);\n    event Cancel(address challenger);\n    event Accept(address challenger, address acceptor);\n\n    function challenge() public {\n        // have already issued a challenge\n        require(challenger != msg.sender, 'Already challenging');\n\n        if (challenger == address(0)) {\n            challenger = msg.sender;\n            emit Challenge(msg.sender);\n        }\n        else {\n            emit Accept(challenger, msg.sender);\n            challenger = address(0);\n        }\n    }\n\n    function cancel() public {\n        require(challenger == msg.sender);\n        \n        emit Cancel(msg.sender);\n    }\n}",
  "sourcePath": "/Users/nicholasaddison/Documents/workspaces/scratch/crypto-beasts/contracts/Challenge.sol",
  "compiler": {
    "name": "solc",
    "version": "0.5.2+commit.1df8f40c.Emscripten.clang"
  },
  "schemaVersion": "3.0.6",
  "updatedAt": "2019-04-22T04:27:44.091Z",
  "devdoc": {
    "methods": {}
  },
  "userdoc": {
    "methods": {}
  }
}