{
  "contractName": "PlayerCards",
  "abi": [
    {
      "constant": true,
      "inputs": [],
      "name": "playersTurn",
      "outputs": [
        {
          "name": "",
          "type": "address"
        }
      ],
      "payable": false,
      "stateMutability": "view",
      "type": "function"
    },
    {
      "constant": false,
      "inputs": [
        {
          "components": [
            {
              "name": "name",
              "type": "string"
            },
            {
              "components": [
                {
                  "name": "name",
                  "type": "string"
                },
                {
                  "components": [
                    {
                      "name": "health",
                      "type": "uint16"
                    },
                    {
                      "name": "defence",
                      "type": "uint16"
                    },
                    {
                      "name": "mana",
                      "type": "uint16"
                    },
                    {
                      "name": "attack",
                      "type": "uint16"
                    },
                    {
                      "name": "specialAttack",
                      "type": "uint16"
                    }
                  ],
                  "name": "opponent",
                  "type": "tuple"
                },
                {
                  "components": [
                    {
                      "name": "health",
                      "type": "uint16"
                    },
                    {
                      "name": "defence",
                      "type": "uint16"
                    },
                    {
                      "name": "mana",
                      "type": "uint16"
                    },
                    {
                      "name": "attack",
                      "type": "uint16"
                    },
                    {
                      "name": "specialAttack",
                      "type": "uint16"
                    }
                  ],
                  "name": "player",
                  "type": "tuple"
                },
                {
                  "name": "manaCost",
                  "type": "uint16"
                }
              ],
              "name": "ability",
              "type": "tuple"
            },
            {
              "name": "initHealth",
              "type": "uint16"
            },
            {
              "name": "initDefence",
              "type": "uint16"
            },
            {
              "name": "initMana",
              "type": "uint16"
            },
            {
              "name": "speed",
              "type": "uint16"
            },
            {
              "name": "attack",
              "type": "uint16"
            },
            {
              "name": "specialAttack",
              "type": "uint16"
            }
          ],
          "name": "card",
          "type": "tuple"
        }
      ],
      "name": "createCard",
      "outputs": [],
      "payable": false,
      "stateMutability": "nonpayable",
      "type": "function"
    },
    {
      "constant": true,
      "inputs": [],
      "name": "player2",
      "outputs": [
        {
          "name": "",
          "type": "address"
        }
      ],
      "payable": false,
      "stateMutability": "view",
      "type": "function"
    },
    {
      "constant": false,
      "inputs": [],
      "name": "renounceOwnership",
      "outputs": [],
      "payable": false,
      "stateMutability": "nonpayable",
      "type": "function"
    },
    {
      "constant": true,
      "inputs": [],
      "name": "owner",
      "outputs": [
        {
          "name": "",
          "type": "address"
        }
      ],
      "payable": false,
      "stateMutability": "view",
      "type": "function"
    },
    {
      "constant": true,
      "inputs": [
        {
          "name": "",
          "type": "uint256"
        }
      ],
      "name": "cards",
      "outputs": [
        {
          "name": "name",
          "type": "string"
        },
        {
          "components": [
            {
              "name": "name",
              "type": "string"
            },
            {
              "components": [
                {
                  "name": "health",
                  "type": "uint16"
                },
                {
                  "name": "defence",
                  "type": "uint16"
                },
                {
                  "name": "mana",
                  "type": "uint16"
                },
                {
                  "name": "attack",
                  "type": "uint16"
                },
                {
                  "name": "specialAttack",
                  "type": "uint16"
                }
              ],
              "name": "opponent",
              "type": "tuple"
            },
            {
              "components": [
                {
                  "name": "health",
                  "type": "uint16"
                },
                {
                  "name": "defence",
                  "type": "uint16"
                },
                {
                  "name": "mana",
                  "type": "uint16"
                },
                {
                  "name": "attack",
                  "type": "uint16"
                },
                {
                  "name": "specialAttack",
                  "type": "uint16"
                }
              ],
              "name": "player",
              "type": "tuple"
            },
            {
              "name": "manaCost",
              "type": "uint16"
            }
          ],
          "name": "ability",
          "type": "tuple"
        },
        {
          "name": "initHealth",
          "type": "uint16"
        },
        {
          "name": "initDefence",
          "type": "uint16"
        },
        {
          "name": "initMana",
          "type": "uint16"
        },
        {
          "name": "speed",
          "type": "uint16"
        },
        {
          "name": "attack",
          "type": "uint16"
        },
        {
          "name": "specialAttack",
          "type": "uint16"
        }
      ],
      "payable": false,
      "stateMutability": "view",
      "type": "function"
    },
    {
      "constant": true,
      "inputs": [],
      "name": "isOwner",
      "outputs": [
        {
          "name": "",
          "type": "bool"
        }
      ],
      "payable": false,
      "stateMutability": "view",
      "type": "function"
    },
    {
      "constant": true,
      "inputs": [],
      "name": "player1",
      "outputs": [
        {
          "name": "",
          "type": "address"
        }
      ],
      "payable": false,
      "stateMutability": "view",
      "type": "function"
    },
    {
      "constant": true,
      "inputs": [],
      "name": "cardsPicked",
      "outputs": [
        {
          "name": "",
          "type": "bool"
        }
      ],
      "payable": false,
      "stateMutability": "view",
      "type": "function"
    },
    {
      "constant": true,
      "inputs": [
        {
          "name": "",
          "type": "address"
        }
      ],
      "name": "playerDecks",
      "outputs": [
        {
          "name": "currentCard",
          "type": "uint8"
        }
      ],
      "payable": false,
      "stateMutability": "view",
      "type": "function"
    },
    {
      "constant": false,
      "inputs": [
        {
          "name": "newOwner",
          "type": "address"
        }
      ],
      "name": "transferOwnership",
      "outputs": [],
      "payable": false,
      "stateMutability": "nonpayable",
      "type": "function"
    },
    {
      "inputs": [
        {
          "name": "_player1",
          "type": "address"
        },
        {
          "name": "_player2",
          "type": "address"
        }
      ],
      "payable": false,
      "stateMutability": "nonpayable",
      "type": "constructor"
    },
    {
      "anonymous": false,
      "inputs": [
        {
          "indexed": false,
          "name": "desiredCards",
          "type": "uint256[5]"
        },
        {
          "indexed": false,
          "name": "pickedCards",
          "type": "uint256[3]"
        }
      ],
      "name": "PickPayerCards",
      "type": "event"
    },
    {
      "anonymous": false,
      "inputs": [
        {
          "indexed": false,
          "name": "cardId",
          "type": "uint256"
        },
        {
          "components": [
            {
              "name": "name",
              "type": "string"
            },
            {
              "components": [
                {
                  "name": "name",
                  "type": "string"
                },
                {
                  "components": [
                    {
                      "name": "health",
                      "type": "uint16"
                    },
                    {
                      "name": "defence",
                      "type": "uint16"
                    },
                    {
                      "name": "mana",
                      "type": "uint16"
                    },
                    {
                      "name": "attack",
                      "type": "uint16"
                    },
                    {
                      "name": "specialAttack",
                      "type": "uint16"
                    }
                  ],
                  "name": "opponent",
                  "type": "tuple"
                },
                {
                  "components": [
                    {
                      "name": "health",
                      "type": "uint16"
                    },
                    {
                      "name": "defence",
                      "type": "uint16"
                    },
                    {
                      "name": "mana",
                      "type": "uint16"
                    },
                    {
                      "name": "attack",
                      "type": "uint16"
                    },
                    {
                      "name": "specialAttack",
                      "type": "uint16"
                    }
                  ],
                  "name": "player",
                  "type": "tuple"
                },
                {
                  "name": "manaCost",
                  "type": "uint16"
                }
              ],
              "name": "ability",
              "type": "tuple"
            },
            {
              "name": "initHealth",
              "type": "uint16"
            },
            {
              "name": "initDefence",
              "type": "uint16"
            },
            {
              "name": "initMana",
              "type": "uint16"
            },
            {
              "name": "speed",
              "type": "uint16"
            },
            {
              "name": "attack",
              "type": "uint16"
            },
            {
              "name": "specialAttack",
              "type": "uint16"
            }
          ],
          "indexed": false,
          "name": "card",
          "type": "tuple"
        }
      ],
      "name": "NewCard",
      "type": "event"
    },
    {
      "anonymous": false,
      "inputs": [
        {
          "indexed": true,
          "name": "previousOwner",
          "type": "address"
        },
        {
          "indexed": true,
          "name": "newOwner",
          "type": "address"
        }
      ],
      "name": "OwnershipTransferred",
      "type": "event"
    },
    {
      "constant": true,
      "inputs": [
        {
          "name": "player",
          "type": "address"
        }
      ],
      "name": "getPlayerCurrentCard",
      "outputs": [
        {
          "components": [
            {
              "name": "cardId",
              "type": "uint256"
            },
            {
              "name": "health",
              "type": "uint16"
            },
            {
              "name": "defence",
              "type": "uint16"
            },
            {
              "name": "mana",
              "type": "uint16"
            },
            {
              "name": "attack",
              "type": "uint16"
            },
            {
              "name": "specialAttack",
              "type": "uint16"
            }
          ],
          "name": "",
          "type": "tuple"
        }
      ],
      "payable": false,
      "stateMutability": "view",
      "type": "function"
    },
    {
      "constant": true,
      "inputs": [
        {
          "name": "player",
          "type": "address"
        }
      ],
      "name": "getPlayersCurrentCardNumber",
      "outputs": [
        {
          "name": "",
          "type": "uint8"
        }
      ],
      "payable": false,
      "stateMutability": "view",
      "type": "function"
    },
    {
      "constant": false,
      "inputs": [
        {
          "name": "desiredCards",
          "type": "uint256[5]"
        }
      ],
      "name": "pickPayerCards",
      "outputs": [],
      "payable": false,
      "stateMutability": "nonpayable",
      "type": "function"
    },
    {
      "constant": false,
      "inputs": [
        {
          "components": [
            {
              "name": "cardId",
              "type": "uint256"
            },
            {
              "name": "health",
              "type": "uint16"
            },
            {
              "name": "defence",
              "type": "uint16"
            },
            {
              "name": "mana",
              "type": "uint16"
            },
            {
              "name": "attack",
              "type": "uint16"
            },
            {
              "name": "specialAttack",
              "type": "uint16"
            }
          ],
          "name": "playerCards",
          "type": "tuple[]"
        }
      ],
      "name": "calcMaxSpeed",
      "outputs": [
        {
          "name": "",
          "type": "uint16"
        }
      ],
      "payable": false,
      "stateMutability": "nonpayable",
      "type": "function"
    }
  ],
  "bytecode": "0x60806040523480156200001157600080fd5b5060405160408062002b1783398101806040526200003391908101906200018f565b336000806101000a81548173ffffffffffffffffffffffffffffffffffffffff021916908373ffffffffffffffffffffffffffffffffffffffff1602179055506000809054906101000a900473ffffffffffffffffffffffffffffffffffffffff1673ffffffffffffffffffffffffffffffffffffffff16600073ffffffffffffffffffffffffffffffffffffffff167f8be0079c531659141344cd1fd0a4f28419497f9722a3daafe3b4186f6b6457e060405160405180910390a381600260006101000a81548173ffffffffffffffffffffffffffffffffffffffff021916908373ffffffffffffffffffffffffffffffffffffffff16021790555080600360006101000a81548173ffffffffffffffffffffffffffffffffffffffff021916908373ffffffffffffffffffffffffffffffffffffffff160217905550505062000204565b6000620001878251620001f0565b905092915050565b60008060408385031215620001a357600080fd5b6000620001b38582860162000179565b9250506020620001c68582860162000179565b9150509250929050565b600073ffffffffffffffffffffffffffffffffffffffff82169050919050565b6000620001fd82620001d0565b9050919050565b61290380620002146000396000f3fe608060405234801561001057600080fd5b5060043610610112576000357c0100000000000000000000000000000000000000000000000000000000900480638da5cb5b116100b4578063d7eb798c11610083578063d7eb798c14610286578063e4b6c992146102a4578063f2fde38b146102d4578063fe145fbd146102f057610112565b80638da5cb5b146101f55780638dc10768146102135780638f32d59b1461024a578063d30895e41461026857610112565b806348373963116100f057806348373963146101815780634ed614461461019d57806359a5f12d146101cd578063715018a6146101eb57610112565b806306880689146101175780632af1e2f814610135578063377b723a14610165575b600080fd5b61011f610320565b60405161012c919061252a565b60405180910390f35b61014f600480360361014a9190810190612000565b610346565b60405161015c91906126dc565b60405180910390f35b61017f600480360361017a9190810190612093565b61039f565b005b61019b6004803603610196919081019061206a565b6106d3565b005b6101b760048036036101b29190810190612029565b610b4e565b6040516101c49190612691565b60405180910390f35b6101d5610bde565b6040516101e2919061252a565b60405180910390f35b6101f3610c04565b005b6101fd610cd6565b60405161020a919061252a565b60405180910390f35b61022d600480360361022891908101906120d4565b610cff565b60405161024198979695949392919061258a565b60405180910390f35b610252611079565b60405161025f919061256f565b60405180910390f35b6102706110d0565b60405161027d919061252a565b60405180910390f35b61028e6110f6565b60405161029b919061256f565b60405180910390f35b6102be60048036036102b99190810190612000565b611109565b6040516102cb91906126dc565b60405180910390f35b6102ee60048036036102e99190810190612000565b611134565b005b61030a60048036036103059190810190612000565b611153565b6040516103179190612676565b60405180910390f35b600560019054906101000a900473ffffffffffffffffffffffffffffffffffffffff1681565b6000600460008373ffffffffffffffffffffffffffffffffffffffff1673ffffffffffffffffffffffffffffffffffffffff16815260200190815260200160002060010160009054906101000a900460ff169050919050565b6103a7611079565b15156103b257600080fd5b6000600180839080600181540180825580915050906001820390600052602060002090600602016000909192909190915060008201518160000190805190602001906103ff929190611ab8565b506020820151816001016000820151816000019080519060200190610425929190611ab8565b5060208201518160010160008201518160000160006101000a81548161ffff021916908361ffff16021790555060208201518160000160026101000a81548161ffff021916908361ffff16021790555060408201518160000160046101000a81548161ffff021916908361ffff16021790555060608201518160000160066101000a81548161ffff021916908361ffff16021790555060808201518160000160086101000a81548161ffff021916908361ffff160217905550505060408201518160020160008201518160000160006101000a81548161ffff021916908361ffff16021790555060208201518160000160026101000a81548161ffff021916908361ffff16021790555060408201518160000160046101000a81548161ffff021916908361ffff16021790555060608201518160000160066101000a81548161ffff021916908361ffff16021790555060808201518160000160086101000a81548161ffff021916908361ffff160217905550505060608201518160030160006101000a81548161ffff021916908361ffff160217905550505060408201518160050160006101000a81548161ffff021916908361ffff16021790555060608201518160050160026101000a81548161ffff021916908361ffff16021790555060808201518160050160046101000a81548161ffff021916908361ffff16021790555060a08201518160050160066101000a81548161ffff021916908361ffff16021790555060c08201518160050160086101000a81548161ffff021916908361ffff16021790555060e082015181600501600a6101000a81548161ffff021916908361ffff16021790555050500390507fb1b17b23cffcf729d34b26aac4faa18940cec6ac11f34c678d0bfe232b00dc8181836040516106c79291906126ac565b60405180910390a15050565b6000600460003373ffffffffffffffffffffffffffffffffffffffff1673ffffffffffffffffffffffffffffffffffffffff168152602001908152602001600020600001905060008180549050141515610762576040517f08c379a000000000000000000000000000000000000000000000000000000000815260040161075990612636565b60405180910390fd5b3373ffffffffffffffffffffffffffffffffffffffff16600260009054906101000a900473ffffffffffffffffffffffffffffffffffffffff1673ffffffffffffffffffffffffffffffffffffffff16141561084957600060046000600360009054906101000a900473ffffffffffffffffffffffffffffffffffffffff1673ffffffffffffffffffffffffffffffffffffffff1673ffffffffffffffffffffffffffffffffffffffff168152602001908152602001600020600001805490501115610844576001600560006101000a81548160ff0219169083151502179055505b61096c565b3373ffffffffffffffffffffffffffffffffffffffff16600360009054906101000a900473ffffffffffffffffffffffffffffffffffffffff1673ffffffffffffffffffffffffffffffffffffffff16141561093057600060046000600260009054906101000a900473ffffffffffffffffffffffffffffffffffffffff1673ffffffffffffffffffffffffffffffffffffffff1673ffffffffffffffffffffffffffffffffffffffff16815260200190815260200160002060000180549050111561092b576001600560006101000a81548160ff0219169083151502179055505b61096b565b6040517f08c379a000000000000000000000000000000000000000000000000000000000815260040161096290612656565b60405180910390fd5b5b610974611b38565b60606040519081016040528060008152602001600081526020016000815250905060006109a3600560016112cd565b90506109c18385836005811015156109b757fe5b6020020151611396565b8260008154811015156109d057fe5b9060005260206000209060020201600001548260006003811015156109f157fe5b6020020181815250506000610a08600a60026112cd565b905080821480610a185750600481115b15610a4057610a2f600180805490500360026112cd565b9050610a3b8482611396565b610a5d565b610a5c848683600581101515610a5257fe5b6020020151611396565b5b836001815481101515610a6c57fe5b906000526020600020906002020160000154836001600381101515610a8d57fe5b6020020181815250506000610aaa600180805490500360036112cd565b9050610ab68582611396565b846002815481101515610ac557fe5b906000526020600020906002020160000154846002600381101515610ae657fe5b6020020181815250507f48ca02657a8acb3a062f53bf24ca611bb25d8108f29f5e3c5e468080a44dca5d8685604051610b20929190612545565b60405180910390a1600560009054906101000a900460ff1615610b4657610b456115aa565b5b505050505050565b6000806000905060008090505b8351811015610bd457600060018583815181101515610b7657fe5b9060200190602002015160000151815481101515610b9057fe5b906000526020600020906006020160050160069054906101000a900461ffff1690508261ffff168161ffff161115610bc6578092505b508080600101915050610b5b565b5080915050919050565b600360009054906101000a900473ffffffffffffffffffffffffffffffffffffffff1681565b610c0c611079565b1515610c1757600080fd5b600073ffffffffffffffffffffffffffffffffffffffff166000809054906101000a900473ffffffffffffffffffffffffffffffffffffffff1673ffffffffffffffffffffffffffffffffffffffff167f8be0079c531659141344cd1fd0a4f28419497f9722a3daafe3b4186f6b6457e060405160405180910390a360008060006101000a81548173ffffffffffffffffffffffffffffffffffffffff021916908373ffffffffffffffffffffffffffffffffffffffff160217905550565b60008060009054906101000a900473ffffffffffffffffffffffffffffffffffffffff16905090565b600181815481101515610d0e57fe5b9060005260206000209060060201600091509050806000018054600181600116156101000203166002900480601f016020809104026020016040519081016040528092919081815260200182805460018160011615610100020316600290048015610dba5780601f10610d8f57610100808354040283529160200191610dba565b820191906000526020600020905b815481529060010190602001808311610d9d57829003601f168201915b5050505050908060010160806040519081016040529081600082018054600181600116156101000203166002900480601f016020809104026020016040519081016040528092919081815260200182805460018160011615610100020316600290048015610e695780601f10610e3e57610100808354040283529160200191610e69565b820191906000526020600020905b815481529060010190602001808311610e4c57829003601f168201915b505050505081526020016001820160a060405190810160405290816000820160009054906101000a900461ffff1661ffff1661ffff1681526020016000820160029054906101000a900461ffff1661ffff1661ffff1681526020016000820160049054906101000a900461ffff1661ffff1661ffff1681526020016000820160069054906101000a900461ffff1661ffff1661ffff1681526020016000820160089054906101000a900461ffff1661ffff1661ffff168152505081526020016002820160a060405190810160405290816000820160009054906101000a900461ffff1661ffff1661ffff1681526020016000820160029054906101000a900461ffff1661ffff1661ffff1681526020016000820160049054906101000a900461ffff1661ffff1661ffff1681526020016000820160069054906101000a900461ffff1661ffff1661ffff1681526020016000820160089054906101000a900461ffff1661ffff1661ffff168152505081526020016003820160009054906101000a900461ffff1661ffff1661ffff1681525050908060050160009054906101000a900461ffff16908060050160029054906101000a900461ffff16908060050160049054906101000a900461ffff16908060050160069054906101000a900461ffff16908060050160089054906101000a900461ffff169080600501600a9054906101000a900461ffff16905088565b60008060009054906101000a900473ffffffffffffffffffffffffffffffffffffffff1673ffffffffffffffffffffffffffffffffffffffff163373ffffffffffffffffffffffffffffffffffffffff1614905090565b600260009054906101000a900473ffffffffffffffffffffffffffffffffffffffff1681565b600560009054906101000a900460ff1681565b60046020528060005260406000206000915090508060010160009054906101000a900460ff16905081565b61113c611079565b151561114757600080fd5b611150816119be565b50565b61115b611b5b565b6000600460008473ffffffffffffffffffffffffffffffffffffffff1673ffffffffffffffffffffffffffffffffffffffff16815260200190815260200160002060010160009054906101000a900460ff169050600460008473ffffffffffffffffffffffffffffffffffffffff1673ffffffffffffffffffffffffffffffffffffffff1681526020019081526020016000206000018160ff1681548110151561120157fe5b906000526020600020906002020160c06040519081016040529081600082015481526020016001820160009054906101000a900461ffff1661ffff1661ffff1681526020016001820160029054906101000a900461ffff1661ffff1661ffff1681526020016001820160049054906101000a900461ffff1661ffff1661ffff1681526020016001820160069054906101000a900461ffff1661ffff1661ffff1681526020016001820160089054906101000a900461ffff1661ffff1661ffff1681525050915050919050565b60008082600143034033600180549050604051602001808560ff1660ff167f01000000000000000000000000000000000000000000000000000000000000000281526001018481526020018373ffffffffffffffffffffffffffffffffffffffff1673ffffffffffffffffffffffffffffffffffffffff166c0100000000000000000000000002815260140182815260200194505050505060405160208183030381529060405280519060200120600190049050838181151561138c57fe5b0691505092915050565b8160c0604051908101604052808381526020016001848154811015156113b857fe5b906000526020600020906006020160050160009054906101000a900461ffff1661ffff1681526020016001848154811015156113f057fe5b906000526020600020906006020160050160029054906101000a900461ffff1661ffff16815260200160018481548110151561142857fe5b906000526020600020906006020160050160049054906101000a900461ffff1661ffff16815260200160018481548110151561146057fe5b906000526020600020906006020160050160089054906101000a900461ffff1661ffff16815260200160018481548110151561149857fe5b9060005260206000209060060201600501600a9054906101000a900461ffff1661ffff16815250908060018154018082558091505090600182039060005260206000209060020201600090919290919091506000820151816000015560208201518160010160006101000a81548161ffff021916908361ffff16021790555060408201518160010160026101000a81548161ffff021916908361ffff16021790555060608201518160010160046101000a81548161ffff021916908361ffff16021790555060808201518160010160066101000a81548161ffff021916908361ffff16021790555060a08201518160010160086101000a81548161ffff021916908361ffff1602179055505050505050565b600560009054906101000a900460ff1615156115fb576040517f08c379a00000000000000000000000000000000000000000000000000000000081526004016115f290612616565b60405180910390fd5b600061176a60046000600260009054906101000a900473ffffffffffffffffffffffffffffffffffffffff1673ffffffffffffffffffffffffffffffffffffffff1673ffffffffffffffffffffffffffffffffffffffff168152602001908152602001600020600001805480602002602001604051908101604052809291908181526020016000905b82821015611761578382906000526020600020906002020160c06040519081016040529081600082015481526020016001820160009054906101000a900461ffff1661ffff1661ffff1681526020016001820160029054906101000a900461ffff1661ffff1661ffff1681526020016001820160049054906101000a900461ffff1661ffff1661ffff1681526020016001820160069054906101000a900461ffff1661ffff1661ffff1681526020016001820160089054906101000a900461ffff1661ffff1661ffff168152505081526020019060010190611684565b50505050610b4e565b905060006118db60046000600360009054906101000a900473ffffffffffffffffffffffffffffffffffffffff1673ffffffffffffffffffffffffffffffffffffffff1673ffffffffffffffffffffffffffffffffffffffff168152602001908152602001600020600001805480602002602001604051908101604052809291908181526020016000905b828210156118d2578382906000526020600020906002020160c06040519081016040529081600082015481526020016001820160009054906101000a900461ffff1661ffff1661ffff1681526020016001820160029054906101000a900461ffff1661ffff1661ffff1681526020016001820160049054906101000a900461ffff1661ffff1661ffff1681526020016001820160069054906101000a900461ffff1661ffff1661ffff1681526020016001820160089054906101000a900461ffff1661ffff1661ffff1681525050815260200190600101906117f5565b50505050610b4e565b90508061ffff168261ffff1610151561195657600260009054906101000a900473ffffffffffffffffffffffffffffffffffffffff16600560016101000a81548173ffffffffffffffffffffffffffffffffffffffff021916908373ffffffffffffffffffffffffffffffffffffffff1602179055506119ba565b600360009054906101000a900473ffffffffffffffffffffffffffffffffffffffff16600560016101000a81548173ffffffffffffffffffffffffffffffffffffffff021916908373ffffffffffffffffffffffffffffffffffffffff1602179055505b5050565b600073ffffffffffffffffffffffffffffffffffffffff168173ffffffffffffffffffffffffffffffffffffffff16141515156119fa57600080fd5b8073ffffffffffffffffffffffffffffffffffffffff166000809054906101000a900473ffffffffffffffffffffffffffffffffffffffff1673ffffffffffffffffffffffffffffffffffffffff167f8be0079c531659141344cd1fd0a4f28419497f9722a3daafe3b4186f6b6457e060405160405180910390a3806000806101000a81548173ffffffffffffffffffffffffffffffffffffffff021916908373ffffffffffffffffffffffffffffffffffffffff16021790555050565b828054600181600116156101000203166002900490600052602060002090601f016020900481019282601f10611af957805160ff1916838001178555611b27565b82800160010185558215611b27579182015b82811115611b26578251825591602001919060010190611b0b565b5b509050611b349190611ba6565b5090565b606060405190810160405280600390602082028038833980820191505090505090565b60c06040519081016040528060008152602001600061ffff168152602001600061ffff168152602001600061ffff168152602001600061ffff168152602001600061ffff1681525090565b611bc891905b80821115611bc4576000816000905550600101611bac565b5090565b90565b6000611bd7823561284c565b905092915050565b600082601f8301121515611bf257600080fd5b8135611c05611c0082612724565b6126f7565b915081818352602084019350602081019050838560c0840282011115611c2a57600080fd5b60005b83811015611c5a5781611c408882611f3c565b845260208401935060c08301925050600181019050611c2d565b5050505092915050565b600082601f8301121515611c7757600080fd5b6005611c8a611c858261274c565b6126f7565b91508183856020840282011115611ca057600080fd5b60005b83811015611cd05781611cb68882611fec565b845260208401935060208301925050600181019050611ca3565b5050505092915050565b600082601f8301121515611ced57600080fd5b8135611d00611cfb8261276e565b6126f7565b91508082526020830160208301858383011115611d1c57600080fd5b611d27838284612876565b50505092915050565b60006101808284031215611d4357600080fd5b611d4d60806126f7565b9050600082013567ffffffffffffffff811115611d6957600080fd5b611d7584828501611cda565b6000830152506020611d8984828501611dbe565b60208301525060c0611d9d84828501611dbe565b604083015250610160611db284828501611fd8565b60608301525092915050565b600060a08284031215611dd057600080fd5b611dda60a06126f7565b90506000611dea84828501611fd8565b6000830152506020611dfe84828501611fd8565b6020830152506040611e1284828501611fd8565b6040830152506060611e2684828501611fd8565b6060830152506080611e3a84828501611fd8565b60808301525092915050565b60006101008284031215611e5957600080fd5b611e646101006126f7565b9050600082013567ffffffffffffffff811115611e8057600080fd5b611e8c84828501611cda565b600083015250602082013567ffffffffffffffff811115611eac57600080fd5b611eb884828501611d30565b6020830152506040611ecc84828501611fd8565b6040830152506060611ee084828501611fd8565b6060830152506080611ef484828501611fd8565b60808301525060a0611f0884828501611fd8565b60a08301525060c0611f1c84828501611fd8565b60c08301525060e0611f3084828501611fd8565b60e08301525092915050565b600060c08284031215611f4e57600080fd5b611f5860c06126f7565b90506000611f6884828501611fec565b6000830152506020611f7c84828501611fd8565b6020830152506040611f9084828501611fd8565b6040830152506060611fa484828501611fd8565b6060830152506080611fb884828501611fd8565b60808301525060a0611fcc84828501611fd8565b60a08301525092915050565b6000611fe4823561285e565b905092915050565b6000611ff8823561286c565b905092915050565b60006020828403121561201257600080fd5b600061202084828501611bcb565b91505092915050565b60006020828403121561203b57600080fd5b600082013567ffffffffffffffff81111561205557600080fd5b61206184828501611bdf565b91505092915050565b600060a0828403121561207c57600080fd5b600061208a84828501611c64565b91505092915050565b6000602082840312156120a557600080fd5b600082013567ffffffffffffffff8111156120bf57600080fd5b6120cb84828501611e46565b91505092915050565b6000602082840312156120e657600080fd5b60006120f484828501611fec565b91505092915050565b612106816127e9565b82525050565b612115816127ae565b61211e8261279a565b60005b828110156121505761213485835161250c565b61213d826127cf565b9150602085019450600181019050612121565b5050505050565b612160816127b9565b612169826127a4565b60005b8281101561219b5761217f85835161250c565b612188826127dc565b915060208501945060018101905061216c565b5050505050565b6121ab816127fb565b82525050565b60006121bc826127c4565b8084526121d0816020860160208601612885565b6121d9816128b8565b602085010191505092915050565b6000602c82527f426f746820706c6179657273206861766520746f2068617665207069636b656460208301527f20746865697220636172647300000000000000000000000000000000000000006040830152606082019050919050565b6000602582527f506c617965722068617320616c7265616479207069636b65642074686569722060208301527f63617264730000000000000000000000000000000000000000000000000000006040830152606082019050919050565b6000602882527f5472616e73616374696f6e2073656e646572206d75737420626520706c61796560208301527f722031206f7220320000000000000000000000000000000000000000000000006040830152606082019050919050565b600061018083016000830151848203600086015261231c82826121b1565b91505060208301516123316020860182612363565b50604083015161234460c0860182612363565b5060608301516123586101608601826124fd565b508091505092915050565b60a08201600082015161237960008501826124fd565b50602082015161238c60208501826124fd565b50604082015161239f60408501826124fd565b5060608201516123b260608501826124fd565b5060808201516123c560808501826124fd565b50505050565b60006101008301600083015184820360008601526123e982826121b1565b9150506020830151848203602086015261240382826122fe565b915050604083015161241860408601826124fd565b50606083015161242b60608601826124fd565b50608083015161243e60808601826124fd565b5060a083015161245160a08601826124fd565b5060c083015161246460c08601826124fd565b5060e083015161247760e08601826124fd565b508091505092915050565b60c082016000820151612498600085018261250c565b5060208201516124ab60208501826124fd565b5060408201516124be60408501826124fd565b5060608201516124d160608501826124fd565b5060808201516124e460808501826124fd565b5060a08201516124f760a08501826124fd565b50505050565b61250681612807565b82525050565b61251581612835565b82525050565b6125248161283f565b82525050565b600060208201905061253f60008301846120fd565b92915050565b60006101008201905061255b6000830185612157565b61256860a083018461210c565b9392505050565b600060208201905061258460008301846121a2565b92915050565b60006101008201905081810360008301526125a5818b6121b1565b905081810360208301526125b9818a6122fe565b90506125c860408301896124fd565b6125d560608301886124fd565b6125e260808301876124fd565b6125ef60a08301866124fd565b6125fc60c08301856124fd565b61260960e08301846124fd565b9998505050505050505050565b6000602082019050818103600083015261262f816121e7565b9050919050565b6000602082019050818103600083015261264f81612244565b9050919050565b6000602082019050818103600083015261266f816122a1565b9050919050565b600060c08201905061268b6000830184612482565b92915050565b60006020820190506126a660008301846124fd565b92915050565b60006040820190506126c1600083018561250c565b81810360208301526126d381846123cb565b90509392505050565b60006020820190506126f1600083018461251b565b92915050565b6000604051905081810181811067ffffffffffffffff8211171561271a57600080fd5b8060405250919050565b600067ffffffffffffffff82111561273b57600080fd5b602082029050602081019050919050565b600067ffffffffffffffff82111561276357600080fd5b602082029050919050565b600067ffffffffffffffff82111561278557600080fd5b601f19601f8301169050602081019050919050565b6000819050919050565b6000819050919050565b600060039050919050565b600060059050919050565b600081519050919050565b6000602082019050919050565b6000602082019050919050565b60006127f482612815565b9050919050565b60008115159050919050565b600061ffff82169050919050565b600073ffffffffffffffffffffffffffffffffffffffff82169050919050565b6000819050919050565b600060ff82169050919050565b600061285782612815565b9050919050565b600061ffff82169050919050565b6000819050919050565b82818337600083830152505050565b60005b838110156128a3578082015181840152602081019050612888565b838111156128b2576000848401525b50505050565b6000601f19601f830116905091905056fea265627a7a72305820c5fd99eb86c319c829554bd1b0fb6c62acfdfb46f9ac255fadb6b2cfb2ad85d56c6578706572696d656e74616cf50037",
  "source": "pragma solidity ^0.5.2;\npragma experimental ABIEncoderV2;\n\nimport {Cards} from \"./Cards.sol\";\n\ncontract PlayerCards is Cards {\n\n    struct PlayerCard {\n        uint cardId;\n\n        uint16 health;\n        uint16 defence;\n        uint16 mana;\n\n        uint16 attack;\n        uint16 specialAttack;\n    }\n\n    struct PlayerDeck {\n        PlayerCard[] playerCards;\n        uint8 currentCard;\n    }\n\n    address public player1;\n    address public player2;\n    mapping (address => PlayerDeck) public playerDecks;\n    bool public cardsPicked;\n    address public playersTurn;\n\n    constructor(address _player1, address _player2) public {\n        player1 = _player1;\n        player2 = _player2;\n    }\n\n    function _randomNumber(uint numberOfPicks, uint8 pickNumber) private view returns (uint) {\n\n        uint rand = uint(\n            keccak256(\n                abi.encodePacked(\n                    pickNumber,\n                    blockhash(block.number - 1),\n                    msg.sender,\n                    cards.length\n                )\n            )\n        );\n        return rand % numberOfPicks;\n    }\n\n    function _setPlayerCard(PlayerCard[] storage playerCards, uint cardId) internal {\n\n        playerCards.push( PlayerCard({\n            cardId: cardId,\n            health: cards[cardId].initHealth,\n            defence: cards[cardId].initDefence,\n            mana: cards[cardId].initMana,\n            attack: cards[cardId].attack,\n            specialAttack: cards[cardId].specialAttack\n        }));\n    }\n\n    function getPlayerCurrentCard(address player) public view returns (PlayerCard memory) {\n\n        uint8 deckNumber = playerDecks[player].currentCard;\n\n        return playerDecks[player].playerCards[deckNumber];\n    }\n\n    function getPlayersCurrentCardNumber(address player) public view returns (uint8) {\n        return playerDecks[player].currentCard;\n    }\n\n    function pickPayerCards(uint[5] memory desiredCards) public {\n\n        PlayerCard[] storage playerCards = playerDecks[msg.sender].playerCards;\n        require(playerCards.length == 0, 'Player has already picked their cards');\n\n        if (player1 == msg.sender) {\n            if (playerDecks[player2].playerCards.length > 0) {\n                cardsPicked = true;\n            }\n        }\n        else if (player2 == msg.sender) {\n            if (playerDecks[player1].playerCards.length > 0) {\n                cardsPicked = true;\n            }\n        } else {\n            revert('Transaction sender must be player 1 or 2');\n        }\n\n        uint[3] memory pickedCardNumbers = [uint(0), 0, 0];\n\n        // pick one of the 5\n        uint randomPick1 = _randomNumber(5, 1);\n        _setPlayerCard(playerCards, desiredCards[randomPick1]);\n        pickedCardNumbers[0] = playerCards[0].cardId;\n\n        // 40% chance picking one of the remaining 4 cards. If not, get a random card\n        // then just pick a random card\n        uint randomPick2 = _randomNumber(10, 2);\n        // if picked the same card as before, or not the first 5 desgined cards\n        if (randomPick1 == randomPick2 ||\n            randomPick2 > 4) {\n            randomPick2 = _randomNumber(cards.length - 1, 2);\n            // pick any card\n            _setPlayerCard(playerCards, randomPick2);\n        }\n        else {\n            // Pick from the desired cards\n            _setPlayerCard(playerCards, desiredCards[randomPick2]);\n        }\n\n        pickedCardNumbers[1] = playerCards[1].cardId;\n\n        uint randomPick3 = _randomNumber(cards.length - 1, 3);\n        _setPlayerCard(playerCards, randomPick3);\n\n        pickedCardNumbers[2] = playerCards[2].cardId;\n\n        emit PickPayerCards(desiredCards, pickedCardNumbers);\n\n        if (cardsPicked) {\n            startBattle();\n        }\n    }\n\n    event PickPayerCards(uint[5] desiredCards, uint[3] pickedCards);\n\n    function startBattle() internal {\n        require(cardsPicked, 'Both players have to have picked their cards');\n\n        uint16 player1MaxSpeed = calcMaxSpeed(playerDecks[player1].playerCards);\n        uint16 player2MaxSpeed = calcMaxSpeed(playerDecks[player2].playerCards);\n\n        if (player1MaxSpeed >= player2MaxSpeed) {\n            playersTurn = player1;\n        }\n        else {\n            playersTurn = player2;\n        }\n    }\n\n    function calcMaxSpeed(PlayerCard[] memory playerCards) public returns (uint16) {\n\n        uint16 maxSpeed = 0;\n\n        for (uint i=0; i<playerCards.length; i++) {\n\n            uint16 cardSpeed = cards[playerCards[i].cardId].speed;\n\n            if (cardSpeed > maxSpeed) {\n                maxSpeed = cardSpeed;\n            }\n        }\n\n        return maxSpeed;\n    }\n}",
  "sourcePath": "/Users/nicholasaddison/Documents/workspaces/scratch/crypto-beasts/contracts/PlayerCards.sol",
  "compiler": {
    "name": "solc",
    "version": "0.5.2+commit.1df8f40c.Emscripten.clang"
  },
  "schemaVersion": "3.0.6",
  "updatedAt": "2019-04-09T12:47:06.564Z",
  "devdoc": {
    "methods": {
      "isOwner()": {
        "return": "true if `msg.sender` is the owner of the contract."
      },
      "owner()": {
        "return": "the address of the owner."
      },
      "renounceOwnership()": {
        "details": "Allows the current owner to relinquish control of the contract. It will not be possible to call the functions with the `onlyOwner` modifier anymore."
      },
      "transferOwnership(address)": {
        "details": "Allows the current owner to transfer control of the contract to a newOwner.",
        "params": {
          "newOwner": "The address to transfer ownership to."
        }
      }
    }
  },
  "userdoc": {
    "methods": {
      "renounceOwnership()": {
        "notice": "Renouncing ownership will leave the contract without an owner, thereby removing any functionality that is only available to the owner."
      }
    }
  }
}