{
  "contractName": "PlayerCardsPick",
  "abi": [
    {
      "constant": true,
      "inputs": [],
      "name": "playersTurn",
      "outputs": [
        {
          "name": "",
          "type": "address"
        }
      ],
      "payable": false,
      "stateMutability": "view",
      "type": "function"
    },
    {
      "constant": true,
      "inputs": [],
      "name": "player2",
      "outputs": [
        {
          "name": "",
          "type": "address"
        }
      ],
      "payable": false,
      "stateMutability": "view",
      "type": "function"
    },
    {
      "constant": true,
      "inputs": [],
      "name": "player1",
      "outputs": [
        {
          "name": "",
          "type": "address"
        }
      ],
      "payable": false,
      "stateMutability": "view",
      "type": "function"
    },
    {
      "constant": true,
      "inputs": [],
      "name": "cardsPicked",
      "outputs": [
        {
          "name": "",
          "type": "bool"
        }
      ],
      "payable": false,
      "stateMutability": "view",
      "type": "function"
    },
    {
      "constant": true,
      "inputs": [
        {
          "name": "",
          "type": "address"
        }
      ],
      "name": "playerDecks",
      "outputs": [
        {
          "name": "currentCard",
          "type": "uint8"
        }
      ],
      "payable": false,
      "stateMutability": "view",
      "type": "function"
    },
    {
      "inputs": [
        {
          "name": "_player1",
          "type": "address"
        },
        {
          "name": "_player2",
          "type": "address"
        },
        {
          "name": "cardsAddress",
          "type": "address"
        }
      ],
      "payable": false,
      "stateMutability": "nonpayable",
      "type": "constructor"
    },
    {
      "anonymous": false,
      "inputs": [
        {
          "indexed": false,
          "name": "desiredCards",
          "type": "uint256[5]"
        },
        {
          "indexed": false,
          "name": "pickedCards",
          "type": "uint256[3]"
        }
      ],
      "name": "PickPayerCards",
      "type": "event"
    },
    {
      "constant": true,
      "inputs": [
        {
          "name": "player",
          "type": "address"
        }
      ],
      "name": "getPlayerCurrentCard",
      "outputs": [
        {
          "components": [
            {
              "name": "cardId",
              "type": "uint256"
            },
            {
              "name": "health",
              "type": "uint16"
            },
            {
              "name": "defence",
              "type": "uint16"
            },
            {
              "name": "mana",
              "type": "uint16"
            },
            {
              "name": "attack",
              "type": "uint16"
            },
            {
              "name": "specialAttack",
              "type": "uint16"
            }
          ],
          "name": "",
          "type": "tuple"
        }
      ],
      "payable": false,
      "stateMutability": "view",
      "type": "function"
    },
    {
      "constant": true,
      "inputs": [
        {
          "name": "player",
          "type": "address"
        }
      ],
      "name": "getPlayersCurrentCardNumber",
      "outputs": [
        {
          "name": "",
          "type": "uint8"
        }
      ],
      "payable": false,
      "stateMutability": "view",
      "type": "function"
    },
    {
      "constant": true,
      "inputs": [
        {
          "name": "player",
          "type": "address"
        }
      ],
      "name": "getPlayerDeck",
      "outputs": [
        {
          "components": [
            {
              "components": [
                {
                  "name": "cardId",
                  "type": "uint256"
                },
                {
                  "name": "health",
                  "type": "uint16"
                },
                {
                  "name": "defence",
                  "type": "uint16"
                },
                {
                  "name": "mana",
                  "type": "uint16"
                },
                {
                  "name": "attack",
                  "type": "uint16"
                },
                {
                  "name": "specialAttack",
                  "type": "uint16"
                }
              ],
              "name": "playerCards",
              "type": "tuple[]"
            },
            {
              "name": "currentCard",
              "type": "uint8"
            }
          ],
          "name": "",
          "type": "tuple"
        }
      ],
      "payable": false,
      "stateMutability": "view",
      "type": "function"
    },
    {
      "constant": false,
      "inputs": [
        {
          "name": "desiredCards",
          "type": "uint256[5]"
        }
      ],
      "name": "pickPayerCards",
      "outputs": [],
      "payable": false,
      "stateMutability": "nonpayable",
      "type": "function"
    },
    {
      "constant": false,
      "inputs": [
        {
          "components": [
            {
              "name": "cardId",
              "type": "uint256"
            },
            {
              "name": "health",
              "type": "uint16"
            },
            {
              "name": "defence",
              "type": "uint16"
            },
            {
              "name": "mana",
              "type": "uint16"
            },
            {
              "name": "attack",
              "type": "uint16"
            },
            {
              "name": "specialAttack",
              "type": "uint16"
            }
          ],
          "name": "playerCards",
          "type": "tuple[]"
        }
      ],
      "name": "calcMaxSpeed",
      "outputs": [
        {
          "name": "",
          "type": "uint16"
        }
      ],
      "payable": false,
      "stateMutability": "nonpayable",
      "type": "function"
    }
  ],
  "bytecode": "0x60806040523480156200001157600080fd5b5060405160608062002064833981018060405262000033919081019062000114565b82600160006101000a81548173ffffffffffffffffffffffffffffffffffffffff021916908373ffffffffffffffffffffffffffffffffffffffff16021790555081600260006101000a81548173ffffffffffffffffffffffffffffffffffffffff021916908373ffffffffffffffffffffffffffffffffffffffff160217905550806000806101000a81548173ffffffffffffffffffffffffffffffffffffffff021916908373ffffffffffffffffffffffffffffffffffffffff1602179055505050506200019e565b60006200010c82516200018a565b905092915050565b6000806000606084860312156200012a57600080fd5b60006200013a86828701620000fe565b93505060206200014d86828701620000fe565b92505060406200016086828701620000fe565b9150509250925092565b600073ffffffffffffffffffffffffffffffffffffffff82169050919050565b600062000197826200016a565b9050919050565b611eb680620001ae6000396000f3fe608060405234801561001057600080fd5b50600436106100bb576000357c010000000000000000000000000000000000000000000000000000000090048063c0d3544911610083578063c0d3544914610178578063d30895e4146101a8578063d7eb798c146101c6578063e4b6c992146101e4578063fe145fbd14610214576100bb565b806306880689146100c05780632af1e2f8146100de578063483739631461010e5780634ed614461461012a57806359a5f12d1461015a575b600080fd5b6100c8610244565b6040516100d59190611b62565b60405180910390f35b6100f860048036036100f39190810190611708565b61026a565b6040516101059190611c95565b60405180910390f35b61012860048036036101239190810190611772565b6102c3565b005b610144600480360361013f9190810190611731565b61066e565b6040516101519190611c5f565b60405180910390f35b6101626107a0565b60405161016f9190611b62565b60405180910390f35b610192600480360361018d9190810190611708565b6107c6565b60405161019f9190611c3d565b60405180910390f35b6101b0610946565b6040516101bd9190611b62565b60405180910390f35b6101ce61096c565b6040516101db9190611ba7565b60405180910390f35b6101fe60048036036101f99190810190611708565b61097f565b60405161020b9190611c95565b60405180910390f35b61022e60048036036102299190810190611708565b6109aa565b60405161023b9190611c22565b60405180910390f35b600460019054906101000a900473ffffffffffffffffffffffffffffffffffffffff1681565b6000600360008373ffffffffffffffffffffffffffffffffffffffff1673ffffffffffffffffffffffffffffffffffffffff16815260200190815260200160002060010160009054906101000a900460ff169050919050565b6000600360003373ffffffffffffffffffffffffffffffffffffffff1673ffffffffffffffffffffffffffffffffffffffff168152602001908152602001600020600001905060008180549050141515610352576040517f08c379a000000000000000000000000000000000000000000000000000000000815260040161034990611be2565b60405180910390fd5b3373ffffffffffffffffffffffffffffffffffffffff16600160009054906101000a900473ffffffffffffffffffffffffffffffffffffffff1673ffffffffffffffffffffffffffffffffffffffff16141561043957600060036000600260009054906101000a900473ffffffffffffffffffffffffffffffffffffffff1673ffffffffffffffffffffffffffffffffffffffff1673ffffffffffffffffffffffffffffffffffffffff168152602001908152602001600020600001805490501115610434576001600460006101000a81548160ff0219169083151502179055505b61055c565b3373ffffffffffffffffffffffffffffffffffffffff16600260009054906101000a900473ffffffffffffffffffffffffffffffffffffffff1673ffffffffffffffffffffffffffffffffffffffff16141561052057600060036000600160009054906101000a900473ffffffffffffffffffffffffffffffffffffffff1673ffffffffffffffffffffffffffffffffffffffff1673ffffffffffffffffffffffffffffffffffffffff16815260200190815260200160002060000180549050111561051b576001600460006101000a81548160ff0219169083151502179055505b61055b565b6040517f08c379a000000000000000000000000000000000000000000000000000000000815260040161055290611c02565b60405180910390fd5b5b610564611152565b60606040519081016040528084600060058110151561057f57fe5b6020020151815260200184600160058110151561059857fe5b602002015181526020018460026005811015156105b157fe5b602002015181525090506105d8828460006005811015156105ce57fe5b6020020151610b24565b6105f5828460016005811015156105eb57fe5b6020020151610b24565b6106128284600260058110151561060857fe5b6020020151610b24565b7f48ca02657a8acb3a062f53bf24ca611bb25d8108f29f5e3c5e468080a44dca5d8382604051610643929190611b7d565b60405180910390a1600460009054906101000a900460ff161561066957610668610d3e565b5b505050565b6000806000905060008090505b83518110156107965760008060009054906101000a900473ffffffffffffffffffffffffffffffffffffffff1673ffffffffffffffffffffffffffffffffffffffff16639188d31286848151811015156106d157fe5b90602001906020020151600001516040518263ffffffff167c01000000000000000000000000000000000000000000000000000000000281526004016107179190611c7a565b600060405180830381600087803b15801561073157600080fd5b505af1158015610745573d6000803e3d6000fd5b505050506040513d6000823e3d601f19601f8201168201806040525061076e919081019061179b565b60a0015190508261ffff168161ffff161115610788578092505b50808060010191505061067b565b5080915050919050565b600260009054906101000a900473ffffffffffffffffffffffffffffffffffffffff1681565b6107ce611175565b600360008373ffffffffffffffffffffffffffffffffffffffff1673ffffffffffffffffffffffffffffffffffffffff16815260200190815260200160002060408051908101604052908160008201805480602002602001604051908101604052809291908181526020016000905b8282101561091a578382906000526020600020906002020160c06040519081016040529081600082015481526020016001820160009054906101000a900461ffff1661ffff1661ffff1681526020016001820160029054906101000a900461ffff1661ffff1661ffff1681526020016001820160049054906101000a900461ffff1661ffff1661ffff1681526020016001820160069054906101000a900461ffff1661ffff1661ffff1681526020016001820160089054906101000a900461ffff1661ffff1661ffff16815250508152602001906001019061083d565b5050505081526020016001820160009054906101000a900460ff1660ff1660ff16815250509050919050565b600160009054906101000a900473ffffffffffffffffffffffffffffffffffffffff1681565b600460009054906101000a900460ff1681565b60036020528060005260406000206000915090508060010160009054906101000a900460ff16905081565b6109b2611192565b6000600360008473ffffffffffffffffffffffffffffffffffffffff1673ffffffffffffffffffffffffffffffffffffffff16815260200190815260200160002060010160009054906101000a900460ff169050600360008473ffffffffffffffffffffffffffffffffffffffff1673ffffffffffffffffffffffffffffffffffffffff1681526020019081526020016000206000018160ff16815481101515610a5857fe5b906000526020600020906002020160c06040519081016040529081600082015481526020016001820160009054906101000a900461ffff1661ffff1661ffff1681526020016001820160029054906101000a900461ffff1661ffff1661ffff1681526020016001820160049054906101000a900461ffff1661ffff1661ffff1681526020016001820160069054906101000a900461ffff1661ffff1661ffff1681526020016001820160089054906101000a900461ffff1661ffff1661ffff1681525050915050919050565b610b2c6111dd565b6000809054906101000a900473ffffffffffffffffffffffffffffffffffffffff1673ffffffffffffffffffffffffffffffffffffffff16639188d312836040518263ffffffff167c0100000000000000000000000000000000000000000000000000000000028152600401610ba29190611c7a565b600060405180830381600087803b158015610bbc57600080fd5b505af1158015610bd0573d6000803e3d6000fd5b505050506040513d6000823e3d601f19601f82011682018060405250610bf9919081019061179b565b90508260c060405190810160405280848152602001836040015161ffff168152602001836060015161ffff168152602001836080015161ffff1681526020018360c0015161ffff1681526020018360e0015161ffff16815250908060018154018082558091505090600182039060005260206000209060020201600090919290919091506000820151816000015560208201518160010160006101000a81548161ffff021916908361ffff16021790555060408201518160010160026101000a81548161ffff021916908361ffff16021790555060608201518160010160046101000a81548161ffff021916908361ffff16021790555060808201518160010160066101000a81548161ffff021916908361ffff16021790555060a08201518160010160086101000a81548161ffff021916908361ffff160217905550505050505050565b600460009054906101000a900460ff161515610d8f576040517f08c379a0000000000000000000000000000000000000000000000000000000008152600401610d8690611bc2565b60405180910390fd5b6000610efe60036000600160009054906101000a900473ffffffffffffffffffffffffffffffffffffffff1673ffffffffffffffffffffffffffffffffffffffff1673ffffffffffffffffffffffffffffffffffffffff168152602001908152602001600020600001805480602002602001604051908101604052809291908181526020016000905b82821015610ef5578382906000526020600020906002020160c06040519081016040529081600082015481526020016001820160009054906101000a900461ffff1661ffff1661ffff1681526020016001820160029054906101000a900461ffff1661ffff1661ffff1681526020016001820160049054906101000a900461ffff1661ffff1661ffff1681526020016001820160069054906101000a900461ffff1661ffff1661ffff1681526020016001820160089054906101000a900461ffff1661ffff1661ffff168152505081526020019060010190610e18565b5050505061066e565b9050600061106f60036000600260009054906101000a900473ffffffffffffffffffffffffffffffffffffffff1673ffffffffffffffffffffffffffffffffffffffff1673ffffffffffffffffffffffffffffffffffffffff168152602001908152602001600020600001805480602002602001604051908101604052809291908181526020016000905b82821015611066578382906000526020600020906002020160c06040519081016040529081600082015481526020016001820160009054906101000a900461ffff1661ffff1661ffff1681526020016001820160029054906101000a900461ffff1661ffff1661ffff1681526020016001820160049054906101000a900461ffff1661ffff1661ffff1681526020016001820160069054906101000a900461ffff1661ffff1661ffff1681526020016001820160089054906101000a900461ffff1661ffff1661ffff168152505081526020019060010190610f89565b5050505061066e565b90508061ffff168261ffff161015156110ea57600160009054906101000a900473ffffffffffffffffffffffffffffffffffffffff16600460016101000a81548173ffffffffffffffffffffffffffffffffffffffff021916908373ffffffffffffffffffffffffffffffffffffffff16021790555061114e565b600260009054906101000a900473ffffffffffffffffffffffffffffffffffffffff16600460016101000a81548173ffffffffffffffffffffffffffffffffffffffff021916908373ffffffffffffffffffffffffffffffffffffffff1602179055505b5050565b606060405190810160405280600390602082028038833980820191505090505090565b604080519081016040528060608152602001600060ff1681525090565b60c06040519081016040528060008152602001600061ffff168152602001600061ffff168152602001600061ffff168152602001600061ffff168152602001600061ffff1681525090565b61026060405190810160405280606081526020016111f9611241565b8152602001600061ffff168152602001600061ffff168152602001600061ffff168152602001600061ffff168152602001600061ffff168152602001600061ffff1681525090565b610180604051908101604052806060815260200161125d61127b565b815260200161126a61127b565b8152602001600061ffff1681525090565b60a060405190810160405280600061ffff168152602001600061ffff168152602001600061ffff168152602001600061ffff168152602001600061ffff1681525090565b60006112cb8235611e1f565b905092915050565b600082601f83011215156112e657600080fd5b81356112f96112f482611cdd565b611cb0565b915081818352602084019350602081019050838560c084028201111561131e57600080fd5b60005b8381101561134e57816113348882611630565b845260208401935060c08301925050600181019050611321565b5050505092915050565b600082601f830112151561136b57600080fd5b600561137e61137982611d05565b611cb0565b9150818385602084028201111561139457600080fd5b60005b838110156113c457816113aa88826116f4565b845260208401935060208301925050600181019050611397565b5050505092915050565b600082601f83011215156113e157600080fd5b81516113f46113ef82611d27565b611cb0565b9150808252602083016020830185838301111561141057600080fd5b61141b838284611e49565b50505092915050565b6000610180828403121561143757600080fd5b6114416080611cb0565b9050600082015167ffffffffffffffff81111561145d57600080fd5b611469848285016113ce565b600083015250602061147d848285016114b2565b60208301525060c0611491848285016114b2565b6040830152506101606114a6848285016116e0565b60608301525092915050565b600060a082840312156114c457600080fd5b6114ce60a0611cb0565b905060006114de848285016116e0565b60008301525060206114f2848285016116e0565b6020830152506040611506848285016116e0565b604083015250606061151a848285016116e0565b606083015250608061152e848285016116e0565b60808301525092915050565b6000610100828403121561154d57600080fd5b611558610100611cb0565b9050600082015167ffffffffffffffff81111561157457600080fd5b611580848285016113ce565b600083015250602082015167ffffffffffffffff8111156115a057600080fd5b6115ac84828501611424565b60208301525060406115c0848285016116e0565b60408301525060606115d4848285016116e0565b60608301525060806115e8848285016116e0565b60808301525060a06115fc848285016116e0565b60a08301525060c0611610848285016116e0565b60c08301525060e0611624848285016116e0565b60e08301525092915050565b600060c0828403121561164257600080fd5b61164c60c0611cb0565b9050600061165c848285016116f4565b6000830152506020611670848285016116cc565b6020830152506040611684848285016116cc565b6040830152506060611698848285016116cc565b60608301525060806116ac848285016116cc565b60808301525060a06116c0848285016116cc565b60a08301525092915050565b60006116d88235611e31565b905092915050565b60006116ec8251611e31565b905092915050565b60006117008235611e3f565b905092915050565b60006020828403121561171a57600080fd5b6000611728848285016112bf565b91505092915050565b60006020828403121561174357600080fd5b600082013567ffffffffffffffff81111561175d57600080fd5b611769848285016112d3565b91505092915050565b600060a0828403121561178457600080fd5b600061179284828501611358565b91505092915050565b6000602082840312156117ad57600080fd5b600082015167ffffffffffffffff8111156117c757600080fd5b6117d38482850161153a565b91505092915050565b6117e581611dbc565b82525050565b60006117f682611d74565b80845260208401935061180883611d53565b60005b8281101561183a5761181e868351611a7d565b61182782611d95565b915060c08601955060018101905061180b565b50849250505092915050565b61184f81611d7f565b61185882611d60565b60005b8281101561188a5761186e858351611b44565b61187782611da2565b915060208501945060018101905061185b565b5050505050565b61189a81611d8a565b6118a382611d6a565b60005b828110156118d5576118b9858351611b44565b6118c282611daf565b91506020850194506001810190506118a6565b5050505050565b6118e581611dce565b82525050565b6000602c82527f426f746820706c6179657273206861766520746f2068617665207069636b656460208301527f20746865697220636172647300000000000000000000000000000000000000006040830152606082019050919050565b6000602582527f506c617965722068617320616c7265616479207069636b65642074686569722060208301527f63617264730000000000000000000000000000000000000000000000000000006040830152606082019050919050565b6000602882527f5472616e73616374696f6e2073656e646572206d75737420626520706c61796560208301527f722031206f7220320000000000000000000000000000000000000000000000006040830152606082019050919050565b60c082016000820151611a186000850182611b44565b506020820151611a2b6020850182611b35565b506040820151611a3e6040850182611b35565b506060820151611a516060850182611b35565b506080820151611a646080850182611b35565b5060a0820151611a7760a0850182611b35565b50505050565b60c082016000820151611a936000850182611b44565b506020820151611aa66020850182611b35565b506040820151611ab96040850182611b35565b506060820151611acc6060850182611b35565b506080820151611adf6080850182611b35565b5060a0820151611af260a0850182611b35565b50505050565b60006040830160008301518482036000860152611b1582826117eb565b9150506020830151611b2a6020860182611b53565b508091505092915050565b611b3e81611dda565b82525050565b611b4d81611e08565b82525050565b611b5c81611e12565b82525050565b6000602082019050611b7760008301846117dc565b92915050565b600061010082019050611b936000830185611891565b611ba060a0830184611846565b9392505050565b6000602082019050611bbc60008301846118dc565b92915050565b60006020820190508181036000830152611bdb816118eb565b9050919050565b60006020820190508181036000830152611bfb81611948565b9050919050565b60006020820190508181036000830152611c1b816119a5565b9050919050565b600060c082019050611c376000830184611a02565b92915050565b60006020820190508181036000830152611c578184611af8565b905092915050565b6000602082019050611c746000830184611b35565b92915050565b6000602082019050611c8f6000830184611b44565b92915050565b6000602082019050611caa6000830184611b53565b92915050565b6000604051905081810181811067ffffffffffffffff82111715611cd357600080fd5b8060405250919050565b600067ffffffffffffffff821115611cf457600080fd5b602082029050602081019050919050565b600067ffffffffffffffff821115611d1c57600080fd5b602082029050919050565b600067ffffffffffffffff821115611d3e57600080fd5b601f19601f8301169050602081019050919050565b6000602082019050919050565b6000819050919050565b6000819050919050565b600081519050919050565b600060039050919050565b600060059050919050565b6000602082019050919050565b6000602082019050919050565b6000602082019050919050565b6000611dc782611de8565b9050919050565b60008115159050919050565b600061ffff82169050919050565b600073ffffffffffffffffffffffffffffffffffffffff82169050919050565b6000819050919050565b600060ff82169050919050565b6000611e2a82611de8565b9050919050565b600061ffff82169050919050565b6000819050919050565b60005b83811015611e67578082015181840152602081019050611e4c565b83811115611e76576000848401525b5050505056fea265627a7a723058200d75e1c8ee6c1856ac4835d8e60b04db94700e7258ca1e596ec6ce802752bf1d6c6578706572696d656e74616cf50037",
  "source": "pragma solidity ^0.5.2;\npragma experimental ABIEncoderV2;\n\nimport {CryptoBeastsTypes} from \"./CryptoBeastsTypes.sol\";\nimport {Cards} from \"./Cards.sol\";\n\ncontract PlayerCardsPick is CryptoBeastsTypes {\n\n    struct PlayerCard {\n        uint cardId;\n\n        uint16 health;\n        uint16 defence;\n        uint16 mana;\n\n        uint16 attack;\n        uint16 specialAttack;\n    }\n\n    struct PlayerDeck {\n        PlayerCard[] playerCards;\n        uint8 currentCard;\n    }\n\n    Cards cardsContract;\n    address public player1;\n    address public player2;\n    mapping (address => PlayerDeck) public playerDecks;\n    bool public cardsPicked;\n    address public playersTurn;\n\n    constructor(address _player1, address _player2, address cardsAddress) public {\n        player1 = _player1;\n        player2 = _player2;\n\n        cardsContract = Cards(cardsAddress);\n    }\n\n    function _setPlayerCard(PlayerCard[] storage playerCards, uint cardId) internal {\n\n        Card memory card = cardsContract.getCard(cardId);\n\n        playerCards.push( PlayerCard({\n            cardId: cardId,\n            health: card.initHealth,\n            defence: card.initDefence,\n            mana: card.initMana,\n            attack: card.attack,\n            specialAttack: card.specialAttack\n        }));\n    }\n\n    function getPlayerCurrentCard(address player) public view returns (PlayerCard memory) {\n\n        uint8 deckNumber = playerDecks[player].currentCard;\n\n        return playerDecks[player].playerCards[deckNumber];\n    }\n\n    function getPlayersCurrentCardNumber(address player) public view returns (uint8) {\n        return playerDecks[player].currentCard;\n    }\n\n    function getPlayerDeck(address player) public view returns (PlayerDeck memory) {\n        return playerDecks[player];\n    }\n\n    function pickPayerCards(uint[5] memory desiredCards) public {\n\n        PlayerCard[] storage playerCards = playerDecks[msg.sender].playerCards;\n        require(playerCards.length == 0, 'Player has already picked their cards');\n\n        if (player1 == msg.sender) {\n            if (playerDecks[player2].playerCards.length > 0) {\n                cardsPicked = true;\n            }\n        }\n        else if (player2 == msg.sender) {\n            if (playerDecks[player1].playerCards.length > 0) {\n                cardsPicked = true;\n            }\n        } else {\n            revert('Transaction sender must be player 1 or 2');\n        }\n\n        uint[3] memory pickedCardNumbers = [\n            desiredCards[0],\n            desiredCards[1],\n            desiredCards[2]];\n\n        _setPlayerCard(playerCards, desiredCards[0]);\n        _setPlayerCard(playerCards, desiredCards[1]);\n        _setPlayerCard(playerCards, desiredCards[2]);\n\n        emit PickPayerCards(desiredCards, pickedCardNumbers);\n\n        if (cardsPicked) {\n            startBattle();\n        }\n    }\n\n    event PickPayerCards(uint[5] desiredCards, uint[3] pickedCards);\n\n    function startBattle() internal {\n        require(cardsPicked, 'Both players have to have picked their cards');\n\n        uint16 player1MaxSpeed = calcMaxSpeed(playerDecks[player1].playerCards);\n        uint16 player2MaxSpeed = calcMaxSpeed(playerDecks[player2].playerCards);\n\n        if (player1MaxSpeed >= player2MaxSpeed) {\n            playersTurn = player1;\n        }\n        else {\n            playersTurn = player2;\n        }\n    }\n\n    function calcMaxSpeed(PlayerCard[] memory playerCards) public returns (uint16) {\n\n        uint16 maxSpeed = 0;\n\n        for (uint i=0; i<playerCards.length; i++) {\n\n            uint16 cardSpeed = cardsContract.getCard(playerCards[i].cardId).speed;\n\n            if (cardSpeed > maxSpeed) {\n                maxSpeed = cardSpeed;\n            }\n        }\n\n        return maxSpeed;\n    }\n}",
  "sourcePath": "/Users/nicholasaddison/Documents/workspaces/scratch/crypto-beasts/contracts/PlayerCardsPick.sol",
  "compiler": {
    "name": "solc",
    "version": "0.5.2+commit.1df8f40c.Emscripten.clang"
  },
  "schemaVersion": "3.0.6",
  "updatedAt": "2019-04-18T12:52:35.409Z",
  "devdoc": {
    "methods": {}
  },
  "userdoc": {
    "methods": {}
  }
}