{
  "contractName": "PlayerCardsRandom",
  "abi": [
    {
      "constant": true,
      "inputs": [],
      "name": "playersTurn",
      "outputs": [
        {
          "name": "",
          "type": "address"
        }
      ],
      "payable": false,
      "stateMutability": "view",
      "type": "function"
    },
    {
      "constant": true,
      "inputs": [],
      "name": "player2",
      "outputs": [
        {
          "name": "",
          "type": "address"
        }
      ],
      "payable": false,
      "stateMutability": "view",
      "type": "function"
    },
    {
      "constant": true,
      "inputs": [],
      "name": "player1",
      "outputs": [
        {
          "name": "",
          "type": "address"
        }
      ],
      "payable": false,
      "stateMutability": "view",
      "type": "function"
    },
    {
      "constant": true,
      "inputs": [],
      "name": "cardsPicked",
      "outputs": [
        {
          "name": "",
          "type": "bool"
        }
      ],
      "payable": false,
      "stateMutability": "view",
      "type": "function"
    },
    {
      "constant": true,
      "inputs": [
        {
          "name": "",
          "type": "address"
        }
      ],
      "name": "playerDecks",
      "outputs": [
        {
          "name": "currentCard",
          "type": "uint8"
        }
      ],
      "payable": false,
      "stateMutability": "view",
      "type": "function"
    },
    {
      "inputs": [
        {
          "name": "_player1",
          "type": "address"
        },
        {
          "name": "_player2",
          "type": "address"
        },
        {
          "name": "cardsAddress",
          "type": "address"
        }
      ],
      "payable": false,
      "stateMutability": "nonpayable",
      "type": "constructor"
    },
    {
      "anonymous": false,
      "inputs": [
        {
          "indexed": false,
          "name": "desiredCards",
          "type": "uint256[5]"
        },
        {
          "indexed": false,
          "name": "pickedCards",
          "type": "uint256[3]"
        }
      ],
      "name": "PickPayerCards",
      "type": "event"
    },
    {
      "constant": true,
      "inputs": [
        {
          "name": "player",
          "type": "address"
        }
      ],
      "name": "getPlayerCurrentCard",
      "outputs": [
        {
          "components": [
            {
              "name": "cardId",
              "type": "uint256"
            },
            {
              "name": "health",
              "type": "uint16"
            },
            {
              "name": "defence",
              "type": "uint16"
            },
            {
              "name": "mana",
              "type": "uint16"
            },
            {
              "name": "attack",
              "type": "uint16"
            },
            {
              "name": "specialAttack",
              "type": "uint16"
            }
          ],
          "name": "",
          "type": "tuple"
        }
      ],
      "payable": false,
      "stateMutability": "view",
      "type": "function"
    },
    {
      "constant": true,
      "inputs": [
        {
          "name": "player",
          "type": "address"
        }
      ],
      "name": "getPlayersCurrentCardNumber",
      "outputs": [
        {
          "name": "",
          "type": "uint8"
        }
      ],
      "payable": false,
      "stateMutability": "view",
      "type": "function"
    },
    {
      "constant": false,
      "inputs": [
        {
          "name": "desiredCards",
          "type": "uint256[5]"
        }
      ],
      "name": "pickPayerCards",
      "outputs": [],
      "payable": false,
      "stateMutability": "nonpayable",
      "type": "function"
    },
    {
      "constant": false,
      "inputs": [
        {
          "components": [
            {
              "name": "cardId",
              "type": "uint256"
            },
            {
              "name": "health",
              "type": "uint16"
            },
            {
              "name": "defence",
              "type": "uint16"
            },
            {
              "name": "mana",
              "type": "uint16"
            },
            {
              "name": "attack",
              "type": "uint16"
            },
            {
              "name": "specialAttack",
              "type": "uint16"
            }
          ],
          "name": "playerCards",
          "type": "tuple[]"
        }
      ],
      "name": "calcMaxSpeed",
      "outputs": [
        {
          "name": "",
          "type": "uint16"
        }
      ],
      "payable": false,
      "stateMutability": "nonpayable",
      "type": "function"
    },
    {
      "constant": true,
      "inputs": [
        {
          "name": "player",
          "type": "address"
        }
      ],
      "name": "getPlayerDeck",
      "outputs": [
        {
          "components": [
            {
              "components": [
                {
                  "name": "cardId",
                  "type": "uint256"
                },
                {
                  "name": "health",
                  "type": "uint16"
                },
                {
                  "name": "defence",
                  "type": "uint16"
                },
                {
                  "name": "mana",
                  "type": "uint16"
                },
                {
                  "name": "attack",
                  "type": "uint16"
                },
                {
                  "name": "specialAttack",
                  "type": "uint16"
                }
              ],
              "name": "playerCards",
              "type": "tuple[]"
            },
            {
              "name": "currentCard",
              "type": "uint8"
            }
          ],
          "name": "",
          "type": "tuple"
        }
      ],
      "payable": false,
      "stateMutability": "view",
      "type": "function"
    }
  ],
  "bytecode": "0x60806040523480156200001157600080fd5b506040516060806200239d833981018060405262000033919081019062000114565b82600160006101000a81548173ffffffffffffffffffffffffffffffffffffffff021916908373ffffffffffffffffffffffffffffffffffffffff16021790555081600260006101000a81548173ffffffffffffffffffffffffffffffffffffffff021916908373ffffffffffffffffffffffffffffffffffffffff160217905550806000806101000a81548173ffffffffffffffffffffffffffffffffffffffff021916908373ffffffffffffffffffffffffffffffffffffffff1602179055505050506200019e565b60006200010c82516200018a565b905092915050565b6000806000606084860312156200012a57600080fd5b60006200013a86828701620000fe565b93505060206200014d86828701620000fe565b92505060406200016086828701620000fe565b9150509250925092565b600073ffffffffffffffffffffffffffffffffffffffff82169050919050565b600062000197826200016a565b9050919050565b6121ef80620001ae6000396000f3fe608060405234801561001057600080fd5b50600436106100bb576000357c010000000000000000000000000000000000000000000000000000000090048063c0d3544911610083578063c0d3544914610178578063d30895e4146101a8578063d7eb798c146101c6578063e4b6c992146101e4578063fe145fbd14610214576100bb565b806306880689146100c05780632af1e2f8146100de578063483739631461010e5780634ed614461461012a57806359a5f12d1461015a575b600080fd5b6100c8610244565b6040516100d59190611e9b565b60405180910390f35b6100f860048036036100f39190810190611a18565b61026a565b6040516101059190611fce565b60405180910390f35b61012860048036036101239190810190611a82565b6102c3565b005b610144600480360361013f9190810190611a41565b6108ae565b6040516101519190611f98565b60405180910390f35b6101626109e0565b60405161016f9190611e9b565b60405180910390f35b610192600480360361018d9190810190611a18565b610a06565b60405161019f9190611f76565b60405180910390f35b6101b0610b86565b6040516101bd9190611e9b565b60405180910390f35b6101ce610bac565b6040516101db9190611ee0565b60405180910390f35b6101fe60048036036101f99190810190611a18565b610bbf565b60405161020b9190611fce565b60405180910390f35b61022e60048036036102299190810190611a18565b610bea565b60405161023b9190611f5b565b60405180910390f35b600460019054906101000a900473ffffffffffffffffffffffffffffffffffffffff1681565b6000600360008373ffffffffffffffffffffffffffffffffffffffff1673ffffffffffffffffffffffffffffffffffffffff16815260200190815260200160002060010160009054906101000a900460ff169050919050565b6000600360003373ffffffffffffffffffffffffffffffffffffffff1673ffffffffffffffffffffffffffffffffffffffff168152602001908152602001600020600001905060008180549050141515610352576040517f08c379a000000000000000000000000000000000000000000000000000000000815260040161034990611f1b565b60405180910390fd5b3373ffffffffffffffffffffffffffffffffffffffff16600160009054906101000a900473ffffffffffffffffffffffffffffffffffffffff1673ffffffffffffffffffffffffffffffffffffffff16141561043957600060036000600260009054906101000a900473ffffffffffffffffffffffffffffffffffffffff1673ffffffffffffffffffffffffffffffffffffffff1673ffffffffffffffffffffffffffffffffffffffff168152602001908152602001600020600001805490501115610434576001600460006101000a81548160ff0219169083151502179055505b61055c565b3373ffffffffffffffffffffffffffffffffffffffff16600260009054906101000a900473ffffffffffffffffffffffffffffffffffffffff1673ffffffffffffffffffffffffffffffffffffffff16141561052057600060036000600160009054906101000a900473ffffffffffffffffffffffffffffffffffffffff1673ffffffffffffffffffffffffffffffffffffffff1673ffffffffffffffffffffffffffffffffffffffff16815260200190815260200160002060000180549050111561051b576001600460006101000a81548160ff0219169083151502179055505b61055b565b6040517f08c379a000000000000000000000000000000000000000000000000000000000815260040161055290611f3b565b60405180910390fd5b5b61056461144e565b606060405190810160405280600081526020016000815260200160008152509050600061059360056001610d64565b90506105b18385836005811015156105a757fe5b6020020151610e20565b8260008154811015156105c057fe5b9060005260206000209060020201600001548260006003811015156105e157fe5b60200201818152505060006105f8600a6002610d64565b9050808214806106085750600481115b156106e8576106d760016000809054906101000a900473ffffffffffffffffffffffffffffffffffffffff1673ffffffffffffffffffffffffffffffffffffffff16631b6cde106040518163ffffffff167c0100000000000000000000000000000000000000000000000000000000028152600401602060405180830381600087803b15801561069757600080fd5b505af11580156106ab573d6000803e3d6000fd5b505050506040513d601f19601f820116820180604052506106cf9190810190611aec565b036002610d64565b90506106e38482610e20565b610705565b6107048486836005811015156106fa57fe5b6020020151610e20565b5b83600181548110151561071457fe5b90600052602060002090600202016000015483600160038110151561073557fe5b602002018181525050600061080a60016000809054906101000a900473ffffffffffffffffffffffffffffffffffffffff1673ffffffffffffffffffffffffffffffffffffffff16631b6cde106040518163ffffffff167c0100000000000000000000000000000000000000000000000000000000028152600401602060405180830381600087803b1580156107ca57600080fd5b505af11580156107de573d6000803e3d6000fd5b505050506040513d601f19601f820116820180604052506108029190810190611aec565b036003610d64565b90506108168582610e20565b84600281548110151561082557fe5b90600052602060002090600202016000015484600260038110151561084657fe5b6020020181815250507f48ca02657a8acb3a062f53bf24ca611bb25d8108f29f5e3c5e468080a44dca5d8685604051610880929190611eb6565b60405180910390a1600460009054906101000a900460ff16156108a6576108a561103a565b5b505050505050565b6000806000905060008090505b83518110156109d65760008060009054906101000a900473ffffffffffffffffffffffffffffffffffffffff1673ffffffffffffffffffffffffffffffffffffffff16639188d312868481518110151561091157fe5b90602001906020020151600001516040518263ffffffff167c01000000000000000000000000000000000000000000000000000000000281526004016109579190611fb3565b600060405180830381600087803b15801561097157600080fd5b505af1158015610985573d6000803e3d6000fd5b505050506040513d6000823e3d601f19601f820116820180604052506109ae9190810190611aab565b60a0015190508261ffff168161ffff1611156109c8578092505b5080806001019150506108bb565b5080915050919050565b600260009054906101000a900473ffffffffffffffffffffffffffffffffffffffff1681565b610a0e611471565b600360008373ffffffffffffffffffffffffffffffffffffffff1673ffffffffffffffffffffffffffffffffffffffff16815260200190815260200160002060408051908101604052908160008201805480602002602001604051908101604052809291908181526020016000905b82821015610b5a578382906000526020600020906002020160c06040519081016040529081600082015481526020016001820160009054906101000a900461ffff1661ffff1661ffff1681526020016001820160029054906101000a900461ffff1661ffff1661ffff1681526020016001820160049054906101000a900461ffff1661ffff1661ffff1681526020016001820160069054906101000a900461ffff1661ffff1661ffff1681526020016001820160089054906101000a900461ffff1661ffff1661ffff168152505081526020019060010190610a7d565b5050505081526020016001820160009054906101000a900460ff1660ff1660ff16815250509050919050565b600160009054906101000a900473ffffffffffffffffffffffffffffffffffffffff1681565b600460009054906101000a900460ff1681565b60036020528060005260406000206000915090508060010160009054906101000a900460ff16905081565b610bf261148e565b6000600360008473ffffffffffffffffffffffffffffffffffffffff1673ffffffffffffffffffffffffffffffffffffffff16815260200190815260200160002060010160009054906101000a900460ff169050600360008473ffffffffffffffffffffffffffffffffffffffff1673ffffffffffffffffffffffffffffffffffffffff1681526020019081526020016000206000018160ff16815481101515610c9857fe5b906000526020600020906002020160c06040519081016040529081600082015481526020016001820160009054906101000a900461ffff1661ffff1661ffff1681526020016001820160029054906101000a900461ffff1661ffff1661ffff1681526020016001820160049054906101000a900461ffff1661ffff1661ffff1681526020016001820160069054906101000a900461ffff1661ffff1661ffff1681526020016001820160089054906101000a900461ffff1661ffff1661ffff1681525050915050919050565b60008082600143034033604051602001808460ff1660ff167f01000000000000000000000000000000000000000000000000000000000000000281526001018381526020018273ffffffffffffffffffffffffffffffffffffffff1673ffffffffffffffffffffffffffffffffffffffff166c010000000000000000000000000281526014019350505050604051602081830303815290604052805190602001206001900490508381811515610e1657fe5b0691505092915050565b610e286114d9565b6000809054906101000a900473ffffffffffffffffffffffffffffffffffffffff1673ffffffffffffffffffffffffffffffffffffffff16639188d312836040518263ffffffff167c0100000000000000000000000000000000000000000000000000000000028152600401610e9e9190611fb3565b600060405180830381600087803b158015610eb857600080fd5b505af1158015610ecc573d6000803e3d6000fd5b505050506040513d6000823e3d601f19601f82011682018060405250610ef59190810190611aab565b90508260c060405190810160405280848152602001836040015161ffff168152602001836060015161ffff168152602001836080015161ffff1681526020018360c0015161ffff1681526020018360e0015161ffff16815250908060018154018082558091505090600182039060005260206000209060020201600090919290919091506000820151816000015560208201518160010160006101000a81548161ffff021916908361ffff16021790555060408201518160010160026101000a81548161ffff021916908361ffff16021790555060608201518160010160046101000a81548161ffff021916908361ffff16021790555060808201518160010160066101000a81548161ffff021916908361ffff16021790555060a08201518160010160086101000a81548161ffff021916908361ffff160217905550505050505050565b600460009054906101000a900460ff16151561108b576040517f08c379a000000000000000000000000000000000000000000000000000000000815260040161108290611efb565b60405180910390fd5b60006111fa60036000600160009054906101000a900473ffffffffffffffffffffffffffffffffffffffff1673ffffffffffffffffffffffffffffffffffffffff1673ffffffffffffffffffffffffffffffffffffffff168152602001908152602001600020600001805480602002602001604051908101604052809291908181526020016000905b828210156111f1578382906000526020600020906002020160c06040519081016040529081600082015481526020016001820160009054906101000a900461ffff1661ffff1661ffff1681526020016001820160029054906101000a900461ffff1661ffff1661ffff1681526020016001820160049054906101000a900461ffff1661ffff1661ffff1681526020016001820160069054906101000a900461ffff1661ffff1661ffff1681526020016001820160089054906101000a900461ffff1661ffff1661ffff168152505081526020019060010190611114565b505050506108ae565b9050600061136b60036000600260009054906101000a900473ffffffffffffffffffffffffffffffffffffffff1673ffffffffffffffffffffffffffffffffffffffff1673ffffffffffffffffffffffffffffffffffffffff168152602001908152602001600020600001805480602002602001604051908101604052809291908181526020016000905b82821015611362578382906000526020600020906002020160c06040519081016040529081600082015481526020016001820160009054906101000a900461ffff1661ffff1661ffff1681526020016001820160029054906101000a900461ffff1661ffff1661ffff1681526020016001820160049054906101000a900461ffff1661ffff1661ffff1681526020016001820160069054906101000a900461ffff1661ffff1661ffff1681526020016001820160089054906101000a900461ffff1661ffff1661ffff168152505081526020019060010190611285565b505050506108ae565b90508061ffff168261ffff161015156113e657600160009054906101000a900473ffffffffffffffffffffffffffffffffffffffff16600460016101000a81548173ffffffffffffffffffffffffffffffffffffffff021916908373ffffffffffffffffffffffffffffffffffffffff16021790555061144a565b600260009054906101000a900473ffffffffffffffffffffffffffffffffffffffff16600460016101000a81548173ffffffffffffffffffffffffffffffffffffffff021916908373ffffffffffffffffffffffffffffffffffffffff1602179055505b5050565b606060405190810160405280600390602082028038833980820191505090505090565b604080519081016040528060608152602001600060ff1681525090565b60c06040519081016040528060008152602001600061ffff168152602001600061ffff168152602001600061ffff168152602001600061ffff168152602001600061ffff1681525090565b61026060405190810160405280606081526020016114f561153d565b8152602001600061ffff168152602001600061ffff168152602001600061ffff168152602001600061ffff168152602001600061ffff168152602001600061ffff1681525090565b6101806040519081016040528060608152602001611559611577565b8152602001611566611577565b8152602001600061ffff1681525090565b60a060405190810160405280600061ffff168152602001600061ffff168152602001600061ffff168152602001600061ffff168152602001600061ffff1681525090565b60006115c78235612158565b905092915050565b600082601f83011215156115e257600080fd5b81356115f56115f082612016565b611fe9565b915081818352602084019350602081019050838560c084028201111561161a57600080fd5b60005b8381101561164a5781611630888261192c565b845260208401935060c0830192505060018101905061161d565b5050505092915050565b600082601f830112151561166757600080fd5b600561167a6116758261203e565b611fe9565b9150818385602084028201111561169057600080fd5b60005b838110156116c057816116a688826119f0565b845260208401935060208301925050600181019050611693565b5050505092915050565b600082601f83011215156116dd57600080fd5b81516116f06116eb82612060565b611fe9565b9150808252602083016020830185838301111561170c57600080fd5b611717838284612182565b50505092915050565b6000610180828403121561173357600080fd5b61173d6080611fe9565b9050600082015167ffffffffffffffff81111561175957600080fd5b611765848285016116ca565b6000830152506020611779848285016117ae565b60208301525060c061178d848285016117ae565b6040830152506101606117a2848285016119dc565b60608301525092915050565b600060a082840312156117c057600080fd5b6117ca60a0611fe9565b905060006117da848285016119dc565b60008301525060206117ee848285016119dc565b6020830152506040611802848285016119dc565b6040830152506060611816848285016119dc565b606083015250608061182a848285016119dc565b60808301525092915050565b6000610100828403121561184957600080fd5b611854610100611fe9565b9050600082015167ffffffffffffffff81111561187057600080fd5b61187c848285016116ca565b600083015250602082015167ffffffffffffffff81111561189c57600080fd5b6118a884828501611720565b60208301525060406118bc848285016119dc565b60408301525060606118d0848285016119dc565b60608301525060806118e4848285016119dc565b60808301525060a06118f8848285016119dc565b60a08301525060c061190c848285016119dc565b60c08301525060e0611920848285016119dc565b60e08301525092915050565b600060c0828403121561193e57600080fd5b61194860c0611fe9565b90506000611958848285016119f0565b600083015250602061196c848285016119c8565b6020830152506040611980848285016119c8565b6040830152506060611994848285016119c8565b60608301525060806119a8848285016119c8565b60808301525060a06119bc848285016119c8565b60a08301525092915050565b60006119d4823561216a565b905092915050565b60006119e8825161216a565b905092915050565b60006119fc8235612178565b905092915050565b6000611a108251612178565b905092915050565b600060208284031215611a2a57600080fd5b6000611a38848285016115bb565b91505092915050565b600060208284031215611a5357600080fd5b600082013567ffffffffffffffff811115611a6d57600080fd5b611a79848285016115cf565b91505092915050565b600060a08284031215611a9457600080fd5b6000611aa284828501611654565b91505092915050565b600060208284031215611abd57600080fd5b600082015167ffffffffffffffff811115611ad757600080fd5b611ae384828501611836565b91505092915050565b600060208284031215611afe57600080fd5b6000611b0c84828501611a04565b91505092915050565b611b1e816120f5565b82525050565b6000611b2f826120ad565b808452602084019350611b418361208c565b60005b82811015611b7357611b57868351611db6565b611b60826120ce565b915060c086019550600181019050611b44565b50849250505092915050565b611b88816120b8565b611b9182612099565b60005b82811015611bc357611ba7858351611e7d565b611bb0826120db565b9150602085019450600181019050611b94565b5050505050565b611bd3816120c3565b611bdc826120a3565b60005b82811015611c0e57611bf2858351611e7d565b611bfb826120e8565b9150602085019450600181019050611bdf565b5050505050565b611c1e81612107565b82525050565b6000602c82527f426f746820706c6179657273206861766520746f2068617665207069636b656460208301527f20746865697220636172647300000000000000000000000000000000000000006040830152606082019050919050565b6000602582527f506c617965722068617320616c7265616479207069636b65642074686569722060208301527f63617264730000000000000000000000000000000000000000000000000000006040830152606082019050919050565b6000602882527f5472616e73616374696f6e2073656e646572206d75737420626520706c61796560208301527f722031206f7220320000000000000000000000000000000000000000000000006040830152606082019050919050565b60c082016000820151611d516000850182611e7d565b506020820151611d646020850182611e6e565b506040820151611d776040850182611e6e565b506060820151611d8a6060850182611e6e565b506080820151611d9d6080850182611e6e565b5060a0820151611db060a0850182611e6e565b50505050565b60c082016000820151611dcc6000850182611e7d565b506020820151611ddf6020850182611e6e565b506040820151611df26040850182611e6e565b506060820151611e056060850182611e6e565b506080820151611e186080850182611e6e565b5060a0820151611e2b60a0850182611e6e565b50505050565b60006040830160008301518482036000860152611e4e8282611b24565b9150506020830151611e636020860182611e8c565b508091505092915050565b611e7781612113565b82525050565b611e8681612141565b82525050565b611e958161214b565b82525050565b6000602082019050611eb06000830184611b15565b92915050565b600061010082019050611ecc6000830185611bca565b611ed960a0830184611b7f565b9392505050565b6000602082019050611ef56000830184611c15565b92915050565b60006020820190508181036000830152611f1481611c24565b9050919050565b60006020820190508181036000830152611f3481611c81565b9050919050565b60006020820190508181036000830152611f5481611cde565b9050919050565b600060c082019050611f706000830184611d3b565b92915050565b60006020820190508181036000830152611f908184611e31565b905092915050565b6000602082019050611fad6000830184611e6e565b92915050565b6000602082019050611fc86000830184611e7d565b92915050565b6000602082019050611fe36000830184611e8c565b92915050565b6000604051905081810181811067ffffffffffffffff8211171561200c57600080fd5b8060405250919050565b600067ffffffffffffffff82111561202d57600080fd5b602082029050602081019050919050565b600067ffffffffffffffff82111561205557600080fd5b602082029050919050565b600067ffffffffffffffff82111561207757600080fd5b601f19601f8301169050602081019050919050565b6000602082019050919050565b6000819050919050565b6000819050919050565b600081519050919050565b600060039050919050565b600060059050919050565b6000602082019050919050565b6000602082019050919050565b6000602082019050919050565b600061210082612121565b9050919050565b60008115159050919050565b600061ffff82169050919050565b600073ffffffffffffffffffffffffffffffffffffffff82169050919050565b6000819050919050565b600060ff82169050919050565b600061216382612121565b9050919050565b600061ffff82169050919050565b6000819050919050565b60005b838110156121a0578082015181840152602081019050612185565b838111156121af576000848401525b5050505056fea265627a7a7230582075c24523594ac912473c8cf5ba1d52def040297b28dd084b418cd0dfdef571646c6578706572696d656e74616cf50037",
  "source": "pragma solidity ^0.5.2;\npragma experimental ABIEncoderV2;\n\nimport {CryptoBeastsTypes} from \"./CryptoBeastsTypes.sol\";\nimport {Cards} from \"./Cards.sol\";\n\ncontract PlayerCardsRandom is CryptoBeastsTypes {\n\n    struct PlayerCard {\n        uint cardId;\n\n        uint16 health;\n        uint16 defence;\n        uint16 mana;\n\n        uint16 attack;\n        uint16 specialAttack;\n    }\n\n    struct PlayerDeck {\n        PlayerCard[] playerCards;\n        uint8 currentCard;\n    }\n\n    Cards cardsContract;\n    address public player1;\n    address public player2;\n    mapping (address => PlayerDeck) public playerDecks;\n    bool public cardsPicked;\n    address public playersTurn;\n\n    constructor(address _player1, address _player2, address cardsAddress) public {\n        player1 = _player1;\n        player2 = _player2;\n\n        cardsContract = Cards(cardsAddress);\n    }\n\n    function _randomNumber(uint numberOfPicks, uint8 pickNumber) private view returns (uint) {\n\n        uint rand = uint(\n            keccak256(\n                abi.encodePacked(\n                    pickNumber,\n                    blockhash(block.number - 1),\n                    msg.sender\n                )\n            )\n        );\n        return rand % numberOfPicks;\n    }\n\n    function _setPlayerCard(PlayerCard[] storage playerCards, uint cardId) internal {\n\n        Card memory card = cardsContract.getCard(cardId);\n\n        playerCards.push( PlayerCard({\n            cardId: cardId,\n            health: card.initHealth,\n            defence: card.initDefence,\n            mana: card.initMana,\n            attack: card.attack,\n            specialAttack: card.specialAttack\n        }));\n    }\n\n    function getPlayerCurrentCard(address player) public view returns (PlayerCard memory) {\n\n        uint8 deckNumber = playerDecks[player].currentCard;\n\n        return playerDecks[player].playerCards[deckNumber];\n    }\n\n    function getPlayersCurrentCardNumber(address player) public view returns (uint8) {\n        return playerDecks[player].currentCard;\n    }\n\n    function pickPayerCards(uint[5] memory desiredCards) public {\n\n        PlayerCard[] storage playerCards = playerDecks[msg.sender].playerCards;\n        require(playerCards.length == 0, 'Player has already picked their cards');\n\n        if (player1 == msg.sender) {\n            if (playerDecks[player2].playerCards.length > 0) {\n                cardsPicked = true;\n            }\n        }\n        else if (player2 == msg.sender) {\n            if (playerDecks[player1].playerCards.length > 0) {\n                cardsPicked = true;\n            }\n        } else {\n            revert('Transaction sender must be player 1 or 2');\n        }\n\n        uint[3] memory pickedCardNumbers = [uint(0), 0, 0];\n\n        // pick one of the 5\n        uint randomPick1 = _randomNumber(5, 1);\n        _setPlayerCard(playerCards, desiredCards[randomPick1]);\n        pickedCardNumbers[0] = playerCards[0].cardId;\n\n        // 40% chance picking one of the remaining 4 cards. If not, get a random card\n        // then just pick a random card\n        uint randomPick2 = _randomNumber(10, 2);\n        // if picked the same card as before, or not the first 5 desgined cards\n        if (randomPick1 == randomPick2 ||\n            randomPick2 > 4) {\n            randomPick2 = _randomNumber(cardsContract.cardCount() - 1, 2);\n            // pick any card\n            _setPlayerCard(playerCards, randomPick2);\n        }\n        else {\n            // Pick from the desired cards\n            _setPlayerCard(playerCards, desiredCards[randomPick2]);\n        }\n\n        pickedCardNumbers[1] = playerCards[1].cardId;\n\n        uint randomPick3 = _randomNumber(cardsContract.cardCount() - 1, 3);\n        _setPlayerCard(playerCards, randomPick3);\n\n        pickedCardNumbers[2] = playerCards[2].cardId;\n\n        emit PickPayerCards(desiredCards, pickedCardNumbers);\n\n        if (cardsPicked) {\n            startBattle();\n        }\n    }\n\n    event PickPayerCards(uint[5] desiredCards, uint[3] pickedCards);\n\n    function startBattle() internal {\n        require(cardsPicked, 'Both players have to have picked their cards');\n\n        uint16 player1MaxSpeed = calcMaxSpeed(playerDecks[player1].playerCards);\n        uint16 player2MaxSpeed = calcMaxSpeed(playerDecks[player2].playerCards);\n\n        if (player1MaxSpeed >= player2MaxSpeed) {\n            playersTurn = player1;\n        }\n        else {\n            playersTurn = player2;\n        }\n    }\n\n    function calcMaxSpeed(PlayerCard[] memory playerCards) public returns (uint16) {\n\n        uint16 maxSpeed = 0;\n\n        for (uint i=0; i<playerCards.length; i++) {\n\n            uint16 cardSpeed = cardsContract.getCard(playerCards[i].cardId).speed;\n\n            if (cardSpeed > maxSpeed) {\n                maxSpeed = cardSpeed;\n            }\n        }\n\n        return maxSpeed;\n    }\n\n    function getPlayerDeck(address player) public view returns (PlayerDeck memory) {\n        return playerDecks[player];\n    }\n}",
  "sourcePath": "/Users/nicholasaddison/Documents/workspaces/scratch/crypto-beasts/contracts/PlayerCardsRandom.sol",
  "compiler": {
    "name": "solc",
    "version": "0.5.2+commit.1df8f40c.Emscripten.clang"
  },
  "schemaVersion": "3.0.6",
  "updatedAt": "2019-04-17T23:54:53.484Z",
  "devdoc": {
    "methods": {}
  },
  "userdoc": {
    "methods": {}
  }
}