{
  "contractName": "Testing",
  "abi": [
    {
      "anonymous": false,
      "inputs": [
        {
          "indexed": false,
          "name": "counter",
          "type": "uint256"
        }
      ],
      "name": "Increment",
      "type": "event",
      "signature": "0x51af157c2eee40f68107a47a49c32fbbeb0a3c9e5cd37aa56e88e6be92368a81"
    },
    {
      "constant": false,
      "inputs": [],
      "name": "failRequire",
      "outputs": [],
      "payable": false,
      "stateMutability": "nonpayable",
      "type": "function",
      "signature": "0x9ec8fc6a"
    },
    {
      "constant": true,
      "inputs": [],
      "name": "msgSender",
      "outputs": [
        {
          "name": "",
          "type": "address"
        }
      ],
      "payable": false,
      "stateMutability": "view",
      "type": "function",
      "signature": "0xd737d0c7"
    },
    {
      "constant": false,
      "inputs": [],
      "name": "increment",
      "outputs": [
        {
          "name": "",
          "type": "uint256"
        }
      ],
      "payable": false,
      "stateMutability": "nonpayable",
      "type": "function",
      "signature": "0xd09de08a"
    },
    {
      "constant": false,
      "inputs": [],
      "name": "toggleFail",
      "outputs": [],
      "payable": false,
      "stateMutability": "nonpayable",
      "type": "function",
      "signature": "0xb2d3a513"
    }
  ],
  "bytecode": "0x608060405260016000556000600160006101000a81548160ff02191690831515021790555034801561003057600080fd5b50610280806100406000396000f3fe608060405234801561001057600080fd5b5060043610610069576000357c0100000000000000000000000000000000000000000000000000000000900480639ec8fc6a1461006e578063b2d3a51314610078578063d09de08a14610082578063d737d0c7146100a0575b600080fd5b6100766100ea565b005b610080610162565b005b61008a610201565b6040518082815260200191505060405180910390f35b6100a861024c565b604051808273ffffffffffffffffffffffffffffffffffffffff1673ffffffffffffffffffffffffffffffffffffffff16815260200191505060405180910390f35b60001515610160576040517f08c379a000000000000000000000000000000000000000000000000000000000815260040180806020018281038252600e8152602001807f4661696c6564207265717569726500000000000000000000000000000000000081525060200191505060405180910390fd5b565b600160009054906101000a900460ff16156101e5576040517f08c379a00000000000000000000000000000000000000000000000000000000081526004018080602001828103825260108152602001807f4661696c207472616e73616374696f6e0000000000000000000000000000000081525060200191505060405180910390fd5b60018060006101000a81548160ff021916908315150217905550565b60007f51af157c2eee40f68107a47a49c32fbbeb0a3c9e5cd37aa56e88e6be92368a81600080815480929190600101919050556040518082815260200191505060405180910390a190565b60003390509056fea165627a7a7230582003ca605c6439fd80a6f6890238f8817b31fd60f3ff987481bd09f94ab5ea0b540029",
  "source": "\ncontract Testing {\n\n    uint256 counter = 1;\n\n    event Increment(uint256 counter);\n    \n    function failRequire() public {\n        require(false, 'Failed require');\n    }\n\n    function msgSender() public view returns (address) {\n        return msg.sender;\n    }\n\n    function increment() public returns (uint256) {\n\n        emit Increment(counter++);\n    }\n\n    bool fail = false;\n\n    function toggleFail() public {\n        if (fail) {\n            revert('Fail transaction');\n            fail = false;\n        }\n        else {\n            fail = true;\n        }\n    }\n}",
  "sourcePath": "/Users/nicholasaddison/Documents/workspaces/scratch/crypto-beasts/contracts/Testing.sol",
  "compiler": {
    "name": "solc",
    "version": "0.5.2+commit.1df8f40c.Emscripten.clang"
  },
  "schemaVersion": "3.0.6",
  "updatedAt": "2019-04-20T12:40:24.272Z",
  "devdoc": {
    "methods": {}
  },
  "userdoc": {
    "methods": {}
  }
}