{
  "contractName": "Testing",
  "abi": [
    {
      "constant": false,
      "inputs": [],
      "name": "toggleFail",
      "outputs": [],
      "payable": false,
      "stateMutability": "nonpayable",
      "type": "function",
      "signature": "0xb2d3a513"
    }
  ],
  "bytecode": "0x608060405260008060006101000a81548160ff02191690831515021790555034801561002a57600080fd5b5061011b8061003a6000396000f3fe6080604052348015600f57600080fd5b50600436106045576000357c010000000000000000000000000000000000000000000000000000000090048063b2d3a51314604a575b600080fd5b60506052565b005b6000809054906101000a900460ff161560d3576040517f08c379a00000000000000000000000000000000000000000000000000000000081526004018080602001828103825260108152602001807f4661696c207472616e73616374696f6e0000000000000000000000000000000081525060200191505060405180910390fd5b60016000806101000a81548160ff02191690831515021790555056fea165627a7a72305820ac51ec212b7f1c880eb2780eb94d3012ec65539b98fd54b39c02b41a461a6f6d0029",
  "source": "\ncontract Testing {\n\n    bool fail = false;\n\n    function toggleFail() public {\n        if (fail) {\n            revert('Fail transaction');\n            fail = false;\n        }\n        else {\n            fail = true;\n        }\n    }\n}",
  "sourcePath": "/Users/nicholasaddison/Documents/workspaces/scratch/crypto-beasts/contracts/Testing.sol",
  "compiler": {
    "name": "solc",
    "version": "0.5.2+commit.1df8f40c.Emscripten.clang"
  },
  "schemaVersion": "3.0.6",
  "updatedAt": "2019-04-20T20:08:25.326Z",
  "devdoc": {
    "methods": {}
  },
  "userdoc": {
    "methods": {}
  }
}