{
  "contractName": "Testing",
  "abi": [
    {
      "constant": true,
      "inputs": [],
      "name": "fail",
      "outputs": [
        {
          "name": "",
          "type": "bool"
        }
      ],
      "payable": false,
      "stateMutability": "view",
      "type": "function",
      "signature": "0xa9cc4718"
    },
    {
      "constant": false,
      "inputs": [],
      "name": "testTx",
      "outputs": [],
      "payable": false,
      "stateMutability": "nonpayable",
      "type": "function",
      "signature": "0x3edbbe0f"
    },
    {
      "constant": false,
      "inputs": [
        {
          "name": "_fail",
          "type": "bool"
        }
      ],
      "name": "setFail",
      "outputs": [],
      "payable": false,
      "stateMutability": "nonpayable",
      "type": "function",
      "signature": "0x9d769402"
    }
  ],
  "bytecode": "0x608060405260008060006101000a81548160ff02191690831515021790555034801561002a57600080fd5b506101a58061003a6000396000f3fe608060405234801561001057600080fd5b506004361061005e576000357c0100000000000000000000000000000000000000000000000000000000900480633edbbe0f146100635780639d7694021461006d578063a9cc47181461009d575b600080fd5b61006b6100bf565b005b61009b6004803603602081101561008357600080fd5b8101908080351515906020019092919050505061014b565b005b6100a5610167565b604051808215151515815260200191505060405180910390f35b600015156000809054906101000a900460ff161515141515610149576040517f08c379a000000000000000000000000000000000000000000000000000000000815260040180806020018281038252600e8152602001807f54782073657420746f206661696c00000000000000000000000000000000000081525060200191505060405180910390fd5b565b806000806101000a81548160ff02191690831515021790555050565b6000809054906101000a900460ff168156fea165627a7a72305820deecac378af9de2653d99a16283ca3a141c4949a62031e64d70536c4e81782930029",
  "source": "\ncontract Testing {\n\n    bool public fail = false;\n\n    function testTx() public {\n        require(fail == false, 'Tx set to fail');\n    }\n\n    function setFail(bool _fail) public {\n        fail = _fail;\n    }\n}\n",
  "sourcePath": "/Users/nicholasaddison/Documents/workspaces/scratch/crypto-beasts/contracts/Testing.sol",
  "compiler": {
    "name": "solc",
    "version": "0.5.2+commit.1df8f40c.Emscripten.clang"
  },
  "schemaVersion": "3.0.6",
  "updatedAt": "2019-04-22T04:27:53.701Z",
  "devdoc": {
    "methods": {}
  },
  "userdoc": {
    "methods": {}
  }
}